{
  "contractName": "ERC721BaseURI",
  "abi": [
    {
      "anonymous": false,
      "inputs": [
        {
          "indexed": true,
          "internalType": "address",
          "name": "previousOwner",
          "type": "address"
        },
        {
          "indexed": true,
          "internalType": "address",
          "name": "newOwner",
          "type": "address"
        }
      ],
      "name": "OwnershipTransferred",
      "type": "event"
    },
    {
      "inputs": [],
      "name": "owner",
      "outputs": [
        {
          "internalType": "address",
          "name": "",
          "type": "address"
        }
      ],
      "stateMutability": "view",
      "type": "function"
    },
    {
      "inputs": [],
      "name": "renounceOwnership",
      "outputs": [],
      "stateMutability": "nonpayable",
      "type": "function"
    },
    {
      "inputs": [
        {
          "internalType": "address",
          "name": "newOwner",
          "type": "address"
        }
      ],
      "name": "transferOwnership",
      "outputs": [],
      "stateMutability": "nonpayable",
      "type": "function"
    },
    {
      "inputs": [],
      "name": "baseURI",
      "outputs": [
        {
          "internalType": "string",
          "name": "",
          "type": "string"
        }
      ],
      "stateMutability": "view",
      "type": "function"
    }
  ],
  "bytecode": "0x608060405234801561001057600080fd5b506103fa806100206000396000f3fe608060405234801561001057600080fd5b506004361061004c5760003560e01c80636c0360eb14610051578063715018a6146100ce5780638da5cb5b146100d8578063f2fde38b146100fc575b600080fd5b610059610122565b6040805160208082528351818301528351919283929083019185019080838360005b8381101561009357818101518382015260200161007b565b50505050905090810190601f1680156100c05780820380516001836020036101000a031916815260200191505b509250505060405180910390f35b6100d66101b8565b005b6100e0610276565b604080516001600160a01b039092168252519081900360200190f35b6100d66004803603602081101561011257600080fd5b50356001600160a01b0316610285565b60658054604080516020601f60026000196101006001881615020190951694909404938401819004810282018101909252828152606093909290918301828280156101ae5780601f10610183576101008083540402835291602001916101ae565b820191906000526020600020905b81548152906001019060200180831161019157829003601f168201915b5050505050905090565b6101c061039a565b6001600160a01b03166101d1610276565b6001600160a01b03161461022c576040805162461bcd60e51b815260206004820181905260248201527f4f776e61626c653a2063616c6c6572206973206e6f7420746865206f776e6572604482015290519081900360640190fd5b6033546040516000916001600160a01b0316907f8be0079c531659141344cd1fd0a4f28419497f9722a3daafe3b4186f6b6457e0908390a3603380546001600160a01b0319169055565b6033546001600160a01b031690565b61028d61039a565b6001600160a01b031661029e610276565b6001600160a01b0316146102f9576040805162461bcd60e51b815260206004820181905260248201527f4f776e61626c653a2063616c6c6572206973206e6f7420746865206f776e6572604482015290519081900360640190fd5b6001600160a01b03811661033e5760405162461bcd60e51b815260040180806020018281038252602681526020018061039f6026913960400191505060405180910390fd5b6033546040516001600160a01b038084169216907f8be0079c531659141344cd1fd0a4f28419497f9722a3daafe3b4186f6b6457e090600090a3603380546001600160a01b0319166001600160a01b0392909216919091179055565b339056fe4f776e61626c653a206e6577206f776e657220697320746865207a65726f2061646472657373a26469706673582212204a626ad97e922630ff7ba62be731df642825f7b30d9f101f467cd9a9c1c0f84464736f6c63430007060033",
  "immutableReferences": {},
  "source": "// SPDX-License-Identifier: MIT\n\npragma solidity >=0.6.9 <0.8.0;\n\nimport \"@openzeppelin/contracts-upgradeable/access/OwnableUpgradeable.sol\";\n\ncontract ERC721BaseURI is OwnableUpgradeable {\n    // Base URI\n    string private _baseURI;\n\n    function __ERC721BaseURI_init_unchained(string memory baseURI_) internal initializer {\n        _baseURI = baseURI_;\n    }\n\n    /**\n    * @dev Returns the base URI set via {_setBaseURI}. This will be\n    * automatically added as a prefix in {tokenURI} to each token's URI, or\n    * to the token ID if no specific URI is set for that token ID.\n    */\n    function baseURI() public view virtual returns (string memory) {\n        return _baseURI;\n    }\n\n    uint256[50] private __gap;\n}\n",
  "sourcePath": "/home/quadro/Projects/rarible/generative-art/contracts/tokens/ERC721BaseURI.sol",
  "compiler": {
    "name": "solc",
    "version": "0.7.6+commit.7338295f.Emscripten.clang"
  },
  "schemaVersion": "3.4.3",
  "updatedAt": "2021-09-28T10:45:40.194Z",
  "devdoc": {
    "kind": "dev",
    "methods": {
      "baseURI()": {
        "details": "Returns the base URI set via {_setBaseURI}. This will be automatically added as a prefix in {tokenURI} to each token's URI, or to the token ID if no specific URI is set for that token ID."
      },
      "owner()": {
        "details": "Returns the address of the current owner."
      },
      "renounceOwnership()": {
        "details": "Leaves the contract without owner. It will not be possible to call `onlyOwner` functions anymore. Can only be called by the current owner. NOTE: Renouncing ownership will leave the contract without an owner, thereby removing any functionality that is only available to the owner."
      },
      "transferOwnership(address)": {
        "details": "Transfers ownership of the contract to a new account (`newOwner`). Can only be called by the current owner."
      }
    },
    "version": 1
  },
  "userdoc": {
    "kind": "user",
    "methods": {},
    "version": 1
  }
}