{
  "contractName": "ERC721GenOperatorRole",
  "abi": [
    {
      "anonymous": false,
      "inputs": [
        {
          "indexed": true,
          "internalType": "address",
          "name": "previousOwner",
          "type": "address"
        },
        {
          "indexed": true,
          "internalType": "address",
          "name": "newOwner",
          "type": "address"
        }
      ],
      "name": "OwnershipTransferred",
      "type": "event"
    },
    {
      "inputs": [],
      "name": "owner",
      "outputs": [
        {
          "internalType": "address",
          "name": "",
          "type": "address"
        }
      ],
      "stateMutability": "view",
      "type": "function"
    },
    {
      "inputs": [],
      "name": "renounceOwnership",
      "outputs": [],
      "stateMutability": "nonpayable",
      "type": "function"
    },
    {
      "inputs": [
        {
          "internalType": "address",
          "name": "newOwner",
          "type": "address"
        }
      ],
      "name": "transferOwnership",
      "outputs": [],
      "stateMutability": "nonpayable",
      "type": "function"
    },
    {
      "inputs": [
        {
          "internalType": "address",
          "name": "operator",
          "type": "address"
        }
      ],
      "name": "__ERC721GenOperatorRole_init",
      "outputs": [],
      "stateMutability": "nonpayable",
      "type": "function"
    }
  ],
  "bytecode": "0x608060405234801561001057600080fd5b5061066e806100206000396000f3fe608060405234801561001057600080fd5b506004361061004c5760003560e01c806316cc2df814610051578063715018a6146100795780638da5cb5b14610081578063f2fde38b146100a5575b600080fd5b6100776004803603602081101561006757600080fd5b50356001600160a01b03166100cb565b005b610077610187565b610089610245565b604080516001600160a01b039092168252519081900360200190f35b610077600480360360208110156100bb57600080fd5b50356001600160a01b0316610254565b600054610100900460ff16806100e457506100e4610369565b806100f2575060005460ff16155b61012d5760405162461bcd60e51b815260040180806020018281038252602e81526020018061060b602e913960400191505060405180910390fd5b600054610100900460ff16158015610158576000805460ff1961ff0019909116610100171660011790555b61016061037a565b61016861041c565b61017182610515565b8015610183576000805461ff00191690555b5050565b61018f6105da565b6001600160a01b03166101a0610245565b6001600160a01b0316146101fb576040805162461bcd60e51b815260206004820181905260248201527f4f776e61626c653a2063616c6c6572206973206e6f7420746865206f776e6572604482015290519081900360640190fd5b6033546040516000916001600160a01b0316907f8be0079c531659141344cd1fd0a4f28419497f9722a3daafe3b4186f6b6457e0908390a3603380546001600160a01b0319169055565b6033546001600160a01b031690565b61025c6105da565b6001600160a01b031661026d610245565b6001600160a01b0316146102c8576040805162461bcd60e51b815260206004820181905260248201527f4f776e61626c653a2063616c6c6572206973206e6f7420746865206f776e6572604482015290519081900360640190fd5b6001600160a01b03811661030d5760405162461bcd60e51b81526004018080602001828103825260268152602001806105e56026913960400191505060405180910390fd5b6033546040516001600160a01b038084169216907f8be0079c531659141344cd1fd0a4f28419497f9722a3daafe3b4186f6b6457e090600090a3603380546001600160a01b0319166001600160a01b0392909216919091179055565b6000610374306105de565b15905090565b600054610100900460ff16806103935750610393610369565b806103a1575060005460ff16155b6103dc5760405162461bcd60e51b815260040180806020018281038252602e81526020018061060b602e913960400191505060405180910390fd5b600054610100900460ff16158015610407576000805460ff1961ff0019909116610100171660011790555b8015610419576000805461ff00191690555b50565b600054610100900460ff16806104355750610435610369565b80610443575060005460ff16155b61047e5760405162461bcd60e51b815260040180806020018281038252602e81526020018061060b602e913960400191505060405180910390fd5b600054610100900460ff161580156104a9576000805460ff1961ff0019909116610100171660011790555b60006104b36105da565b603380546001600160a01b0319166001600160a01b038316908117909155604051919250906000907f8be0079c531659141344cd1fd0a4f28419497f9722a3daafe3b4186f6b6457e0908290a3508015610419576000805461ff001916905550565b600054610100900460ff168061052e575061052e610369565b8061053c575060005460ff16155b6105775760405162461bcd60e51b815260040180806020018281038252602e81526020018061060b602e913960400191505060405180910390fd5b600054610100900460ff161580156105a2576000805460ff1961ff0019909116610100171660011790555b6001600160a01b0382166000908152606560205260409020805460ff191660011790558015610183576000805461ff00191690555050565b3390565b3b15159056fe4f776e61626c653a206e6577206f776e657220697320746865207a65726f2061646472657373496e697469616c697a61626c653a20636f6e747261637420697320616c726561647920696e697469616c697a6564a26469706673582212207da7de5f3ecb1b9c78644407eb7463f585414bf03d1ddecbb09c9e60a5a845c264736f6c63430007060033",
  "immutableReferences": {},
  "source": "// SPDX-License-Identifier: MIT\n\npragma solidity >=0.6.9 <0.8.0;\n\nimport \"@openzeppelin/contracts-upgradeable/access/OwnableUpgradeable.sol\";\n\ncontract ERC721GenOperatorRole is OwnableUpgradeable {\n    mapping (address => bool) operators;\n\n    function __ERC721GenOperatorRole_init(address operator) external initializer {\n        __Context_init_unchained();\n        __Ownable_init_unchained();\n        __ERC721GenOperatorRole_init_unchained(operator);\n    }\n\n    function __ERC721GenOperatorRole_init_unchained(address operator) internal initializer {\n        operators[operator] = true;\n    }\n\n    modifier onlyOperator() {\n        require(operators[_msgSender()], \"OperatorRole: caller is not the operator\");\n        _;\n    }\n\n    uint256[50] private __gap;\n}\n",
  "sourcePath": "/home/quadro/Projects/rarible/generative-art/contracts/tokens/ERC721GenOperatorRole.sol",
  "compiler": {
    "name": "solc",
    "version": "0.7.6+commit.7338295f.Emscripten.clang"
  },
  "schemaVersion": "3.4.3",
  "updatedAt": "2021-11-12T09:33:30.137Z",
  "devdoc": {
    "kind": "dev",
    "methods": {
      "owner()": {
        "details": "Returns the address of the current owner."
      },
      "renounceOwnership()": {
        "details": "Leaves the contract without owner. It will not be possible to call `onlyOwner` functions anymore. Can only be called by the current owner. NOTE: Renouncing ownership will leave the contract without an owner, thereby removing any functionality that is only available to the owner."
      },
      "transferOwnership(address)": {
        "details": "Transfers ownership of the contract to a new account (`newOwner`). Can only be called by the current owner."
      }
    },
    "version": 1
  },
  "userdoc": {
    "kind": "user",
    "methods": {},
    "version": 1
  }
}