{
  "contractName": "ERC721GenFactory",
  "abi": [
    {
      "inputs": [
        {
          "internalType": "address",
          "name": "_implementation",
          "type": "address"
        },
        {
          "internalType": "address",
          "name": "_transferProxy",
          "type": "address"
        },
        {
          "internalType": "address",
          "name": "_operatorProxy",
          "type": "address"
        },
        {
          "internalType": "string",
          "name": "_baseURI",
          "type": "string"
        }
      ],
      "stateMutability": "nonpayable",
      "type": "constructor"
    },
    {
      "anonymous": false,
      "inputs": [
        {
          "indexed": false,
          "internalType": "address",
          "name": "owner",
          "type": "address"
        },
        {
          "indexed": false,
          "internalType": "address",
          "name": "collection",
          "type": "address"
        },
        {
          "indexed": false,
          "internalType": "address",
          "name": "admin",
          "type": "address"
        }
      ],
      "name": "CollectionCreated",
      "type": "event"
    },
    {
      "anonymous": false,
      "inputs": [
        {
          "indexed": true,
          "internalType": "address",
          "name": "previousOwner",
          "type": "address"
        },
        {
          "indexed": true,
          "internalType": "address",
          "name": "newOwner",
          "type": "address"
        }
      ],
      "name": "OwnershipTransferred",
      "type": "event"
    },
    {
      "inputs": [],
      "name": "baseURI",
      "outputs": [
        {
          "internalType": "string",
          "name": "",
          "type": "string"
        }
      ],
      "stateMutability": "view",
      "type": "function",
      "constant": true
    },
    {
      "inputs": [],
      "name": "implementation",
      "outputs": [
        {
          "internalType": "address",
          "name": "",
          "type": "address"
        }
      ],
      "stateMutability": "view",
      "type": "function",
      "constant": true
    },
    {
      "inputs": [],
      "name": "operatorProxy",
      "outputs": [
        {
          "internalType": "address",
          "name": "",
          "type": "address"
        }
      ],
      "stateMutability": "view",
      "type": "function",
      "constant": true
    },
    {
      "inputs": [],
      "name": "owner",
      "outputs": [
        {
          "internalType": "address",
          "name": "",
          "type": "address"
        }
      ],
      "stateMutability": "view",
      "type": "function",
      "constant": true
    },
    {
      "inputs": [],
      "name": "renounceOwnership",
      "outputs": [],
      "stateMutability": "nonpayable",
      "type": "function"
    },
    {
      "inputs": [
        {
          "internalType": "address",
          "name": "newOwner",
          "type": "address"
        }
      ],
      "name": "transferOwnership",
      "outputs": [],
      "stateMutability": "nonpayable",
      "type": "function"
    },
    {
      "inputs": [],
      "name": "transferProxy",
      "outputs": [
        {
          "internalType": "address",
          "name": "",
          "type": "address"
        }
      ],
      "stateMutability": "view",
      "type": "function",
      "constant": true
    },
    {
      "inputs": [
        {
          "internalType": "string",
          "name": "_name",
          "type": "string"
        },
        {
          "internalType": "string",
          "name": "_symbol",
          "type": "string"
        },
        {
          "components": [
            {
              "internalType": "address payable",
              "name": "account",
              "type": "address"
            },
            {
              "internalType": "uint96",
              "name": "value",
              "type": "uint96"
            }
          ],
          "internalType": "struct LibPart.Part[]",
          "name": "_royalties",
          "type": "tuple[]"
        },
        {
          "components": [
            {
              "internalType": "uint256[]",
              "name": "rarities",
              "type": "uint256[]"
            }
          ],
          "internalType": "struct Traits.Trait[]",
          "name": "_traits",
          "type": "tuple[]"
        },
        {
          "internalType": "uint256",
          "name": "_total",
          "type": "uint256"
        },
        {
          "internalType": "uint256",
          "name": "_maxValue",
          "type": "uint256"
        }
      ],
      "name": "createCollection",
      "outputs": [],
      "stateMutability": "nonpayable",
      "type": "function"
    },
    {
      "inputs": [
        {
          "internalType": "address",
          "name": "_implementation",
          "type": "address"
        }
      ],
      "name": "changeImplementation",
      "outputs": [],
      "stateMutability": "nonpayable",
      "type": "function"
    }
  ],
  "bytecode": "0x60806040523480156200001157600080fd5b50604051620025ed380380620025ed8339810160408190526200003491620001b4565b600062000040620000e7565b600080546001600160a01b0319166001600160a01b0383169081178255604051929350917f8be0079c531659141344cd1fd0a4f28419497f9722a3daafe3b4186f6b6457e0908290a350600180546001600160a01b038087166001600160a01b0319928316179092556002805486841690831617905560038054928516929091169190911790558051620000dc906004906020840190620000eb565b5050505050620002ac565b3390565b828054600181600116156101000203166002900490600052602060002090601f0160209004810192826200012357600085556200016e565b82601f106200013e57805160ff19168380011785556200016e565b828001600101855582156200016e579182015b828111156200016e57825182559160200191906001019062000151565b506200017c92915062000180565b5090565b5b808211156200017c576000815560010162000181565b80516001600160a01b0381168114620001af57600080fd5b919050565b60008060008060808587031215620001ca578384fd5b620001d58562000197565b93506020620001e681870162000197565b9350620001f66040870162000197565b60608701519093506001600160401b038082111562000213578384fd5b818801915088601f83011262000227578384fd5b8151818111156200023457fe5b604051601f8201601f19168101850183811182821017156200025257fe5b60405281815283820185018b101562000269578586fd5b8592505b818310156200028c57838301850151818401860152918401916200026d565b818311156200029d57858583830101525b979a9699509497505050505050565b61233180620002bc6000396000f3fe60806040523480156200001157600080fd5b5060043610620000a05760003560e01c80636e667db3116200006f5780636e667db31462000110578063715018a6146200011a57806377e9377614620001245780638da5cb5b146200012e578063f2fde38b146200013857620000a0565b806317a68dd814620000a557806359dd553614620000be5780635c60da1b14620000d55780636c0360eb14620000f7575b600080fd5b620000bc620000b63660046200092e565b6200014f565b005b620000bc620000cf36600462000954565b620001ea565b620000df6200040c565b604051620000ee919062000b5f565b60405180910390f35b620001016200041b565b604051620000ee919062000bcd565b620000df620004ad565b620000bc620004bc565b620000df6200057f565b620000df6200058e565b620000bc620001493660046200092e565b6200059d565b62000159620006b8565b6001600160a01b03166200016c6200058e565b6001600160a01b031614620001c8576040805162461bcd60e51b815260206004820181905260248201527f4f776e61626c653a2063616c6c6572206973206e6f7420746865206f776e6572604482015290519081900360640190fd5b600180546001600160a01b0319166001600160a01b0392909216919091179055565b60025460035460405160009263098a962d60e01b926200022c928b928b926004926001600160a01b0392831692909116908c908c908c908c9060240162000be2565b604051602081830303815290604052906001600160e01b0319166020820180516001600160e01b038381831617835250505050905060006040516200027190620006bc565b604051809103906000f0801580156200028e573d6000803e3d6000fd5b509050806001600160a01b031663f2fde38b620002aa620006b8565b6040518263ffffffff1660e01b8152600401620002c8919062000b5f565b600060405180830381600087803b158015620002e357600080fd5b505af1158015620002f8573d6000803e3d6000fd5b5050600154604051600093506001600160a01b039091169150839085906200032090620006ca565b6200032e9392919062000b96565b604051809103906000f0801580156200034b573d6000803e3d6000fd5b509050806001600160a01b03811663f2fde38b62000368620006b8565b6040518263ffffffff1660e01b815260040162000386919062000b5f565b600060405180830381600087803b158015620003a157600080fd5b505af1158015620003b6573d6000803e3d6000fd5b505050507f2d8719c61fe70e858668369ad9f3e733112b477977e6a7ee0b503be7e1afda76620003e5620006b8565b8285604051620003f89392919062000b73565b60405180910390a150505050505050505050565b6001546001600160a01b031681565b6004805460408051602060026001851615610100026000190190941693909304601f81018490048402820184019092528181529291830182828015620004a55780601f106200047957610100808354040283529160200191620004a5565b820191906000526020600020905b8154815290600101906020018083116200048757829003601f168201915b505050505081565b6002546001600160a01b031681565b620004c6620006b8565b6001600160a01b0316620004d96200058e565b6001600160a01b03161462000535576040805162461bcd60e51b815260206004820181905260248201527f4f776e61626c653a2063616c6c6572206973206e6f7420746865206f776e6572604482015290519081900360640190fd5b600080546040516001600160a01b03909116907f8be0079c531659141344cd1fd0a4f28419497f9722a3daafe3b4186f6b6457e0908390a3600080546001600160a01b0319169055565b6003546001600160a01b031681565b6000546001600160a01b031690565b620005a7620006b8565b6001600160a01b0316620005ba6200058e565b6001600160a01b03161462000616576040805162461bcd60e51b815260206004820181905260248201527f4f776e61626c653a2063616c6c6572206973206e6f7420746865206f776e6572604482015290519081900360640190fd5b6001600160a01b0381166200065d5760405162461bcd60e51b8152600401808060200182810382526026815260200180620022d66026913960400191505060405180910390fd5b600080546040516001600160a01b03808516939216917f8be0079c531659141344cd1fd0a4f28419497f9722a3daafe3b4186f6b6457e091a3600080546001600160a01b0319166001600160a01b0392909216919091179055565b3390565b6108f88062000d6283390190565b610c7c806200165a83390190565b600082601f830112620006e9578081fd5b8135602062000702620006fc8362000d1d565b62000cf8565b8281528181019085830160408086028801850189101562000721578687fd5b865b868110156200079d5781838b0312156200073b578788fd5b815182810181811067ffffffffffffffff821117156200075757fe5b83528335620007668162000d48565b8152838701356bffffffffffffffffffffffff811681146200078657898afd5b818801528552938501939181019160010162000723565b509198975050505050505050565b600082601f830112620007bc578081fd5b81356020620007cf620006fc8362000d1d565b82815281810190858301855b85811015620008b7578135880185601f19828c03011215620007fb578788fd5b6040805187810167ffffffffffffffff82821081831117156200081a57fe5b9083528389013590808211156200082f578b8cfd5b508084019350508b603f8401126200084557898afd5b8783013562000858620006fc8262000d1d565b81815292840192898101908a830286018b018b018f101562000878578c8dfd5b8c95505b828610156200089e578435825260019590950194938a0193908a01906200087c565b83525050865250509284019290840190600101620007db565b5090979650505050505050565b600082601f830112620008d5578081fd5b813567ffffffffffffffff811115620008ea57fe5b620008ff601f8201601f191660200162000cf8565b81815284602083860101111562000914578283fd5b816020850160208301379081016020019190915292915050565b60006020828403121562000940578081fd5b81356200094d8162000d48565b9392505050565b60008060008060008060c087890312156200096d578182fd5b863567ffffffffffffffff8082111562000985578384fd5b620009938a838b01620008c4565b97506020890135915080821115620009a9578384fd5b620009b78a838b01620008c4565b96506040890135915080821115620009cd578384fd5b620009db8a838b01620006d8565b95506060890135915080821115620009f1578384fd5b5062000a0089828a01620007ab565b9350506080870135915060a087013590509295509295509295565b6001600160a01b03169052565b6000815180845260208085019450808401835b8381101562000a7b57815180516001600160a01b031688528301516bffffffffffffffffffffffff16838801526040909601959082019060010162000a3b565b509495945050505050565b6000815180845260208085018081965082840281019150828601855b8581101562000b02578284038952815151858552805186860181905290860190889060408701905b8083101562000aec578351825292880192600192909201919088019062000aca565b509a87019a955050509084019060010162000aa2565b5091979650505050505050565b600081518084526020825b8281101562000b3757848101820151868201830152810162000b1a565b8281111562000b4857838284880101525b5080601f19601f8401168601019250505092915050565b6001600160a01b0391909116815260200190565b6001600160a01b0393841681529183166020830152909116604082015260600190565b6001600160a01b0384811682528316602082015260606040820181905260009062000bc49083018462000b0f565b95945050505050565b6000602082526200094d602083018462000b0f565b600061012080835262000bf88184018d62000b0f565b905060208382038185015262000c0f828d62000b0f565b91508382036040850152828b54600181166000811462000c38576001811462000c565762000c92565b60028204607f16855260ff1982168486015260408501925062000c92565b6002820480865262000c688f62000d3c565b875b8281101562000c89578154888201880152600190910190860162000c6a565b87018601945050505b505062000ca3606086018c62000a1b565b62000cb2608086018b62000a1b565b84810360a086015262000cc6818a62000a28565b9250505082810360c084015262000cde818762000a86565b60e084019590955250506101000152979650505050505050565b60405181810167ffffffffffffffff8111828210171562000d1557fe5b604052919050565b600067ffffffffffffffff82111562000d3257fe5b5060209081020190565b60009081526020902090565b6001600160a01b038116811462000d5e57600080fd5b5056fe608060405234801561001057600080fd5b50600061001b61006a565b600080546001600160a01b0319166001600160a01b0383169081178255604051929350917f8be0079c531659141344cd1fd0a4f28419497f9722a3daafe3b4186f6b6457e0908290a35061006e565b3390565b61087b8061007d6000396000f3fe60806040526004361061007b5760003560e01c80639623609d1161004e5780639623609d1461013657806399a88ec4146101f5578063f2fde38b14610230578063f3b7dead146102635761007b565b8063204e1c7a14610080578063715018a6146100cf5780637eff275e146100e65780638da5cb5b14610121575b600080fd5b34801561008c57600080fd5b506100b3600480360360208110156100a357600080fd5b50356001600160a01b0316610296565b604080516001600160a01b039092168252519081900360200190f35b3480156100db57600080fd5b506100e4610328565b005b3480156100f257600080fd5b506100e46004803603604081101561010957600080fd5b506001600160a01b03813581169160200135166103d4565b34801561012d57600080fd5b506100b36104a1565b6100e46004803603606081101561014c57600080fd5b6001600160a01b03823581169260208101359091169181019060608101604082013564010000000081111561018057600080fd5b82018360208201111561019257600080fd5b803590602001918460018302840111640100000000831117156101b457600080fd5b91908080601f0160208091040260200160405190810160405280939291908181526020018383808284376000920191909152509295506104b0945050505050565b34801561020157600080fd5b506100e46004803603604081101561021857600080fd5b506001600160a01b03813581169160200135166105e9565b34801561023c57600080fd5b506100e46004803603602081101561025357600080fd5b50356001600160a01b031661069a565b34801561026f57600080fd5b506100b36004803603602081101561028657600080fd5b50356001600160a01b031661079c565b6000806000836001600160a01b03166040518080635c60da1b60e01b8152506004019050600060405180830381855afa9150503d80600081146102f5576040519150601f19603f3d011682016040523d82523d6000602084013e6102fa565b606091505b50915091508161030957600080fd5b80806020019051602081101561031e57600080fd5b5051949350505050565b6103306107fb565b6001600160a01b03166103416104a1565b6001600160a01b03161461038a576040805162461bcd60e51b81526020600482018190526024820152600080516020610826833981519152604482015290519081900360640190fd5b600080546040516001600160a01b03909116907f8be0079c531659141344cd1fd0a4f28419497f9722a3daafe3b4186f6b6457e0908390a3600080546001600160a01b0319169055565b6103dc6107fb565b6001600160a01b03166103ed6104a1565b6001600160a01b031614610436576040805162461bcd60e51b81526020600482018190526024820152600080516020610826833981519152604482015290519081900360640190fd5b816001600160a01b0316638f283970826040518263ffffffff1660e01b815260040180826001600160a01b03168152602001915050600060405180830381600087803b15801561048557600080fd5b505af1158015610499573d6000803e3d6000fd5b505050505050565b6000546001600160a01b031690565b6104b86107fb565b6001600160a01b03166104c96104a1565b6001600160a01b031614610512576040805162461bcd60e51b81526020600482018190526024820152600080516020610826833981519152604482015290519081900360640190fd5b826001600160a01b0316634f1ef2863484846040518463ffffffff1660e01b815260040180836001600160a01b0316815260200180602001828103825283818151815260200191508051906020019080838360005b8381101561057f578181015183820152602001610567565b50505050905090810190601f1680156105ac5780820380516001836020036101000a031916815260200191505b5093505050506000604051808303818588803b1580156105cb57600080fd5b505af11580156105df573d6000803e3d6000fd5b5050505050505050565b6105f16107fb565b6001600160a01b03166106026104a1565b6001600160a01b03161461064b576040805162461bcd60e51b81526020600482018190526024820152600080516020610826833981519152604482015290519081900360640190fd5b816001600160a01b0316633659cfe6826040518263ffffffff1660e01b815260040180826001600160a01b03168152602001915050600060405180830381600087803b15801561048557600080fd5b6106a26107fb565b6001600160a01b03166106b36104a1565b6001600160a01b0316146106fc576040805162461bcd60e51b81526020600482018190526024820152600080516020610826833981519152604482015290519081900360640190fd5b6001600160a01b0381166107415760405162461bcd60e51b81526004018080602001828103825260268152602001806108006026913960400191505060405180910390fd5b600080546040516001600160a01b03808516939216917f8be0079c531659141344cd1fd0a4f28419497f9722a3daafe3b4186f6b6457e091a3600080546001600160a01b0319166001600160a01b0392909216919091179055565b6000806000836001600160a01b031660405180806303e1469160e61b8152506004019050600060405180830381855afa9150503d80600081146102f5576040519150601f19603f3d011682016040523d82523d6000602084013e6102fa565b339056fe4f776e61626c653a206e6577206f776e657220697320746865207a65726f20616464726573734f776e61626c653a2063616c6c6572206973206e6f7420746865206f776e6572a26469706673582212207078fa2178901ca7e932e80d3957887a4ee35891b5415b64c7f8f6120f62a87b64736f6c63430007060033608060405260405162000c7c38038062000c7c833981810160405260608110156200002957600080fd5b815160208301516040808501805191519395929483019291846401000000008211156200005557600080fd5b9083019060208201858111156200006b57600080fd5b82516401000000008111828201881017156200008657600080fd5b82525081516020918201929091019080838360005b83811015620000b55781810151838201526020016200009b565b50505050905090810190601f168015620000e35780820380516001836020036101000a031916815260200191505b5060405250849150829050620000f98262000137565b8051156200011a57620001188282620001ae60201b620003841760201c565b505b50620001239050565b6200012e82620001dd565b505050620003be565b6200014d816200020160201b620003b01760201c565b6200018a5760405162461bcd60e51b815260040180806020018281038252603681526020018062000c206036913960400191505060405180910390fd5b7f360894a13ba1a3210667c828492db98dca3e2076cc3735a920a3ca505d382bbc55565b6060620001d6838360405180606001604052806027815260200162000bf96027913962000207565b9392505050565b7fb53127684a568b3173ae13b9f8a6016e243e63b6e8ee1178d6a717850b5d610355565b3b151590565b6060620002148462000201565b620002515760405162461bcd60e51b815260040180806020018281038252602681526020018062000c566026913960400191505060405180910390fd5b600080856001600160a01b0316856040518082805190602001908083835b60208310620002905780518252601f1990920191602091820191016200026f565b6001836020036101000a038019825116818451168082178552505050505050905001915050600060405180830381855af49150503d8060008114620002f2576040519150601f19603f3d011682016040523d82523d6000602084013e620002f7565b606091505b5090925090506200030a82828662000314565b9695505050505050565b6060831562000325575081620001d6565b825115620003365782518084602001fd5b8160405162461bcd60e51b81526004018080602001828103825283818151815260200191508051906020019080838360005b838110156200038257818101518382015260200162000368565b50505050905090810190601f168015620003b05780820380516001836020036101000a031916815260200191505b509250505060405180910390fd5b61082b80620003ce6000396000f3fe60806040526004361061004e5760003560e01c80633659cfe6146100655780634f1ef286146100985780635c60da1b146101185780638f28397014610149578063f851a4401461017c5761005d565b3661005d5761005b610191565b005b61005b610191565b34801561007157600080fd5b5061005b6004803603602081101561008857600080fd5b50356001600160a01b03166101ab565b61005b600480360360408110156100ae57600080fd5b6001600160a01b0382351691908101906040810160208201356401000000008111156100d957600080fd5b8201836020820111156100eb57600080fd5b8035906020019184600183028401116401000000008311171561010d57600080fd5b5090925090506101e5565b34801561012457600080fd5b5061012d610262565b604080516001600160a01b039092168252519081900360200190f35b34801561015557600080fd5b5061005b6004803603602081101561016c57600080fd5b50356001600160a01b031661029f565b34801561018857600080fd5b5061012d610359565b6101996103b6565b6101a96101a4610416565b61043b565b565b6101b361045f565b6001600160a01b0316336001600160a01b031614156101da576101d581610484565b6101e2565b6101e2610191565b50565b6101ed61045f565b6001600160a01b0316336001600160a01b031614156102555761020f83610484565b61024f8383838080601f01602080910402602001604051908101604052809392919081815260200183838082843760009201919091525061038492505050565b5061025d565b61025d610191565b505050565b600061026c61045f565b6001600160a01b0316336001600160a01b031614156102945761028d610416565b905061029c565b61029c610191565b90565b6102a761045f565b6001600160a01b0316336001600160a01b031614156101da576001600160a01b0381166103055760405162461bcd60e51b815260040180806020018281038252603a8152602001806106f7603a913960400191505060405180910390fd5b7f7e644d79422f17c01e4894b5f4f588d331ebfa28653d42ae832dc59e38c9798f61032e61045f565b604080516001600160a01b03928316815291841660208301528051918290030190a16101d5816104c4565b600061036361045f565b6001600160a01b0316336001600160a01b031614156102945761028d61045f565b60606103a98383604051806060016040528060278152602001610731602791396104e8565b9392505050565b3b151590565b6103be61045f565b6001600160a01b0316336001600160a01b0316141561040e5760405162461bcd60e51b81526004018080602001828103825260428152602001806107b46042913960600191505060405180910390fd5b6101a96101a9565b7f360894a13ba1a3210667c828492db98dca3e2076cc3735a920a3ca505d382bbc5490565b3660008037600080366000845af43d6000803e80801561045a573d6000f35b3d6000fd5b7fb53127684a568b3173ae13b9f8a6016e243e63b6e8ee1178d6a717850b5d61035490565b61048d816105ea565b6040516001600160a01b038216907fbc7cd75a20ee27fd9adebab32041f755214dbc6bffa90cc0225b39da2e5c2d3b90600090a250565b7fb53127684a568b3173ae13b9f8a6016e243e63b6e8ee1178d6a717850b5d610355565b60606104f3846103b0565b61052e5760405162461bcd60e51b815260040180806020018281038252602681526020018061078e6026913960400191505060405180910390fd5b600080856001600160a01b0316856040518082805190602001908083835b6020831061056b5780518252601f19909201916020918201910161054c565b6001836020036101000a038019825116818451168082178552505050505050905001915050600060405180830381855af49150503d80600081146105cb576040519150601f19603f3d011682016040523d82523d6000602084013e6105d0565b606091505b50915091506105e0828286610652565b9695505050505050565b6105f3816103b0565b61062e5760405162461bcd60e51b81526004018080602001828103825260368152602001806107586036913960400191505060405180910390fd5b7f360894a13ba1a3210667c828492db98dca3e2076cc3735a920a3ca505d382bbc55565b606083156106615750816103a9565b8251156106715782518084602001fd5b8160405162461bcd60e51b81526004018080602001828103825283818151815260200191508051906020019080838360005b838110156106bb5781810151838201526020016106a3565b50505050905090810190601f1680156106e85780820380516001836020036101000a031916815260200191505b509250505060405180910390fdfe5472616e73706172656e745570677261646561626c6550726f78793a206e65772061646d696e20697320746865207a65726f2061646472657373416464726573733a206c6f772d6c6576656c2064656c65676174652063616c6c206661696c65645570677261646561626c6550726f78793a206e657720696d706c656d656e746174696f6e206973206e6f74206120636f6e7472616374416464726573733a2064656c65676174652063616c6c20746f206e6f6e2d636f6e74726163745472616e73706172656e745570677261646561626c6550726f78793a2061646d696e2063616e6e6f742066616c6c6261636b20746f2070726f787920746172676574a2646970667358221220beeaaca8fdbef2148bf896c3f9d6f45938be0a5a20923cc516d392c11f27595964736f6c63430007060033416464726573733a206c6f772d6c6576656c2064656c65676174652063616c6c206661696c65645570677261646561626c6550726f78793a206e657720696d706c656d656e746174696f6e206973206e6f74206120636f6e7472616374416464726573733a2064656c65676174652063616c6c20746f206e6f6e2d636f6e74726163744f776e61626c653a206e6577206f776e657220697320746865207a65726f2061646472657373a264697066735822122082ffaeb0c0ef896918ee7c2f26379d942d36041b2b64a6830a3627a2fc3b402464736f6c63430007060033",
  "immutableReferences": {},
  "source": "// SPDX-License-Identifier: MIT\n\npragma solidity ^0.7.0;\npragma abicoder v2;\n\nimport \"./ERC721Gen.sol\";\nimport \"@openzeppelin/contracts/proxy/TransparentUpgradeableProxy.sol\";\nimport \"@openzeppelin/contracts/proxy/ProxyAdmin.sol\";\n\nimport \"@openzeppelin/contracts/access/Ownable.sol\";\n\n/**\n * @dev This contract is for creating proxy to access ERC721Gen token.\n *\n * The beacon should be initialized before call ERC721GenFactory constructor.\n */\ncontract ERC721GenFactory is Ownable, Traits {\n    //implementation of token\n    address public implementation;\n\n    //transferProxy to call transferFrom\n    address public transferProxy;\n\n    //operatorProxy to mint tokens\n    address public operatorProxy;\n\n    //baseURI for collections\n    string public baseURI;\n\n    event CollectionCreated(address owner, address collection, address admin);\n\n    constructor(\n        address _implementation,\n        address _transferProxy,\n        address _operatorProxy,\n        string memory _baseURI\n    ) {\n        implementation = _implementation;\n        transferProxy = _transferProxy;\n        operatorProxy = _operatorProxy;\n        baseURI = _baseURI;\n    }\n\n    function createCollection(\n        string memory _name,\n        string memory _symbol,\n        LibPart.Part[] memory _royalties,\n        Trait[] memory _traits,\n        uint256 _total,\n        uint256 _maxValue\n    ) external {\n        bytes memory data = abi.encodeWithSelector(\n            ERC721Gen(0).__ERC721Gen_init.selector,\n            _name,\n            _symbol,\n            baseURI,\n            transferProxy,\n            operatorProxy,\n            _royalties,\n            _traits,\n            _total,\n            _maxValue\n        );\n        ProxyAdmin admin = new ProxyAdmin();\n        admin.transferOwnership(_msgSender());\n\n        TransparentUpgradeableProxy proxy = new TransparentUpgradeableProxy(implementation, address(admin), data);\n        ERC721Gen token = ERC721Gen(address(proxy));\n        token.transferOwnership(_msgSender());\n\n        emit CollectionCreated(_msgSender(), address(token), address(admin));\n    }\n\n    function changeImplementation(address _implementation) external onlyOwner() {\n      implementation = _implementation;\n    }\n}\n",
  "sourcePath": "/home/quadro/Projects/rarible/generative-art/contracts/ERC721GenFactory.sol",
  "compiler": {
    "name": "solc",
    "version": "0.7.6+commit.7338295f.Emscripten.clang"
  },
  "schemaVersion": "3.4.3",
  "updatedAt": "2021-09-29T11:36:26.526Z",
  "networkType": "ethereum",
  "devdoc": {
    "details": "This contract is for creating proxy to access ERC721Gen token. The beacon should be initialized before call ERC721GenFactory constructor.",
    "kind": "dev",
    "methods": {
      "owner()": {
        "details": "Returns the address of the current owner."
      },
      "renounceOwnership()": {
        "details": "Leaves the contract without owner. It will not be possible to call `onlyOwner` functions anymore. Can only be called by the current owner. NOTE: Renouncing ownership will leave the contract without an owner, thereby removing any functionality that is only available to the owner."
      },
      "transferOwnership(address)": {
        "details": "Transfers ownership of the contract to a new account (`newOwner`). Can only be called by the current owner."
      }
    },
    "version": 1
  },
  "userdoc": {
    "kind": "user",
    "methods": {},
    "version": 1
  }
}