{
  "contractName": "ERC721GenFactory",
  "abi": [
    {
      "inputs": [
        {
          "internalType": "contract IBeacon",
          "name": "_beacon",
          "type": "address"
        },
        {
          "internalType": "address",
          "name": "_transferProxy",
          "type": "address"
        },
        {
          "internalType": "address",
          "name": "_operatorProxy",
          "type": "address"
        },
        {
          "internalType": "string",
          "name": "_baseURI",
          "type": "string"
        }
      ],
      "stateMutability": "nonpayable",
      "type": "constructor"
    },
    {
      "anonymous": false,
      "inputs": [
        {
          "indexed": false,
          "internalType": "address",
          "name": "owner",
          "type": "address"
        },
        {
          "indexed": false,
          "internalType": "address",
          "name": "collection",
          "type": "address"
        }
      ],
      "name": "CollectionCreated",
      "type": "event"
    },
    {
      "anonymous": false,
      "inputs": [
        {
          "indexed": true,
          "internalType": "address",
          "name": "previousOwner",
          "type": "address"
        },
        {
          "indexed": true,
          "internalType": "address",
          "name": "newOwner",
          "type": "address"
        }
      ],
      "name": "OwnershipTransferred",
      "type": "event"
    },
    {
      "inputs": [],
      "name": "baseURI",
      "outputs": [
        {
          "internalType": "string",
          "name": "",
          "type": "string"
        }
      ],
      "stateMutability": "view",
      "type": "function"
    },
    {
      "inputs": [],
      "name": "beacon",
      "outputs": [
        {
          "internalType": "contract IBeacon",
          "name": "",
          "type": "address"
        }
      ],
      "stateMutability": "view",
      "type": "function"
    },
    {
      "inputs": [],
      "name": "operatorProxy",
      "outputs": [
        {
          "internalType": "address",
          "name": "",
          "type": "address"
        }
      ],
      "stateMutability": "view",
      "type": "function"
    },
    {
      "inputs": [],
      "name": "owner",
      "outputs": [
        {
          "internalType": "address",
          "name": "",
          "type": "address"
        }
      ],
      "stateMutability": "view",
      "type": "function"
    },
    {
      "inputs": [],
      "name": "renounceOwnership",
      "outputs": [],
      "stateMutability": "nonpayable",
      "type": "function"
    },
    {
      "inputs": [
        {
          "internalType": "address",
          "name": "newOwner",
          "type": "address"
        }
      ],
      "name": "transferOwnership",
      "outputs": [],
      "stateMutability": "nonpayable",
      "type": "function"
    },
    {
      "inputs": [],
      "name": "transferProxy",
      "outputs": [
        {
          "internalType": "address",
          "name": "",
          "type": "address"
        }
      ],
      "stateMutability": "view",
      "type": "function"
    },
    {
      "inputs": [
        {
          "internalType": "string",
          "name": "_name",
          "type": "string"
        },
        {
          "internalType": "string",
          "name": "_symbol",
          "type": "string"
        },
        {
          "components": [
            {
              "internalType": "address payable",
              "name": "account",
              "type": "address"
            },
            {
              "internalType": "uint96",
              "name": "value",
              "type": "uint96"
            }
          ],
          "internalType": "struct LibPart.Part[]",
          "name": "_royalties",
          "type": "tuple[]"
        },
        {
          "components": [
            {
              "internalType": "string",
              "name": "name",
              "type": "string"
            },
            {
              "internalType": "string[]",
              "name": "keys",
              "type": "string[]"
            },
            {
              "internalType": "uint256[]",
              "name": "rarities",
              "type": "uint256[]"
            }
          ],
          "internalType": "struct Traits.Trait[]",
          "name": "_traits",
          "type": "tuple[]"
        },
        {
          "internalType": "uint256",
          "name": "_total",
          "type": "uint256"
        },
        {
          "internalType": "uint256",
          "name": "_maxValue",
          "type": "uint256"
        }
      ],
      "name": "createCollection",
      "outputs": [],
      "stateMutability": "nonpayable",
      "type": "function"
    }
  ],
  "bytecode": "0x60806040523480156200001157600080fd5b506040516200187738038062001877833981016040819052620000349162000197565b600062000040620000e7565b600080546001600160a01b0319166001600160a01b0383169081178255604051929350917f8be0079c531659141344cd1fd0a4f28419497f9722a3daafe3b4186f6b6457e0908290a350600180546001600160a01b038087166001600160a01b0319928316179092556002805486841690831617905560038054928516929091169190911790558051620000dc906004906020840190620000eb565b5050505050620002b1565b3390565b828054600181600116156101000203166002900490600052602060002090601f0160209004810192826200012357600085556200016e565b82601f106200013e57805160ff19168380011785556200016e565b828001600101855582156200016e579182015b828111156200016e57825182559160200191906001019062000151565b506200017c92915062000180565b5090565b5b808211156200017c576000815560010162000181565b60008060008060808587031215620001ad578384fd5b8451620001ba8162000298565b80945050602080860151620001cf8162000298565b6040870151909450620001e28162000298565b60608701519093506001600160401b0380821115620001ff578384fd5b818801915088601f83011262000213578384fd5b8151818111156200022057fe5b604051601f8201601f19168101850183811182821017156200023e57fe5b60405281815283820185018b101562000255578586fd5b8592505b8183101562000278578383018501518184018601529184019162000259565b818311156200028957858583830101525b979a9699509497505050505050565b6001600160a01b0381168114620002ae57600080fd5b50565b6115b680620002c16000396000f3fe60806040523480156200001157600080fd5b5060043610620000945760003560e01c806377e93776116200006357806377e9377614620000ea5780637c57dfd414620000f45780638da5cb5b146200010b578063f2fde38b14620001155762000094565b806359659e9014620000995780636c0360eb14620000bb5780636e667db314620000d4578063715018a614620000de575b600080fd5b620000a36200012c565b604051620000b2919062000b26565b60405180910390f35b620000c56200013b565b604051620000b2919062000b82565b620000a3620001cd565b620000e8620001dc565b005b620000a36200029f565b620000e86200010536600462000895565b620002ae565b620000a36200042c565b620000e8620001263660046200086f565b6200043b565b6001546001600160a01b031681565b6004805460408051602060026001851615610100026000190190941693909304601f81018490048402820184019092528181529291830182828015620001c55780601f106200019957610100808354040283529160200191620001c5565b820191906000526020600020905b815481529060010190602001808311620001a757829003601f168201915b505050505081565b6002546001600160a01b031681565b620001e662000556565b6001600160a01b0316620001f96200042c565b6001600160a01b03161462000255576040805162461bcd60e51b815260206004820181905260248201527f4f776e61626c653a2063616c6c6572206973206e6f7420746865206f776e6572604482015290519081900360640190fd5b600080546040516001600160a01b03909116907f8be0079c531659141344cd1fd0a4f28419497f9722a3daafe3b4186f6b6457e0908390a3600080546001600160a01b0319169055565b6003546001600160a01b031681565b60025460035460405160009263a9dfbf6760e01b92620002f0928b928b926004926001600160a01b0392831692909116908c908c908c908c9060240162000b97565b60408051601f198184030181529181526020820180516001600160e01b03166001600160e01b03199094169390931790925260015491519092506000916001600160a01b031690839062000344906200055a565b6200035192919062000b54565b604051809103906000f0801580156200036e573d6000803e3d6000fd5b509050806001600160a01b03811663f2fde38b6200038b62000556565b6040518263ffffffff1660e01b8152600401620003a9919062000b26565b600060405180830381600087803b158015620003c457600080fd5b505af1158015620003d9573d6000803e3d6000fd5b505050507f5d0de243db1669e3a7056744cd715c625f0c1c348736c2c2d53d0ddebff1a6c76200040862000556565b826040516200041992919062000b3a565b60405180910390a1505050505050505050565b6000546001600160a01b031690565b6200044562000556565b6001600160a01b0316620004586200042c565b6001600160a01b031614620004b4576040805162461bcd60e51b815260206004820181905260248201527f4f776e61626c653a2063616c6c6572206973206e6f7420746865206f776e6572604482015290519081900360640190fd5b6001600160a01b038116620004fb5760405162461bcd60e51b81526004018080602001828103825260268152602001806200155b6026913960400191505060405180910390fd5b600080546040516001600160a01b03808516939216917f8be0079c531659141344cd1fd0a4f28419497f9722a3daafe3b4186f6b6457e091a3600080546001600160a01b0319166001600160a01b0392909216919091179055565b3390565b6108448062000d1783390190565b600082601f83011262000579578081fd5b81356020620005926200058c8362000cd2565b62000cad565b82815281810190858301855b85811015620005cb57620005b8898684358b010162000805565b845292840192908401906001016200059e565b5090979650505050505050565b600082601f830112620005e9578081fd5b81356020620005fc6200058c8362000cd2565b828152818101908583016040808602880185018910156200061b578687fd5b865b86811015620006975781838b03121562000635578788fd5b815182810181811067ffffffffffffffff821117156200065157fe5b83528335620006608162000cfd565b8152838701356bffffffffffffffffffffffff811681146200068057898afd5b81880152855293850193918101916001016200061d565b509198975050505050505050565b600082601f830112620006b6578081fd5b81356020620006c96200058c8362000cd2565b82815281810190858301855b85811015620005cb5781358801606080601f19838d03011215620006f7578889fd5b6040805182810167ffffffffffffffff82821081831117156200071657fe5b908352848a013590808211156200072b578c8dfd5b6200073b8f8c8489010162000805565b83528386013591508082111562000750578c8dfd5b620007608f8c8489010162000568565b838c015293850135938085111562000776578c8dfd5b5050620007888d8a85870101620007a4565b91810191909152865250509284019290840190600101620006d5565b600082601f830112620007b5578081fd5b81356020620007c86200058c8362000cd2565b8281528181019085830183850287018401881015620007e5578586fd5b855b85811015620005cb57813584529284019290840190600101620007e7565b600082601f83011262000816578081fd5b813567ffffffffffffffff8111156200082b57fe5b62000840601f8201601f191660200162000cad565b81815284602083860101111562000855578283fd5b816020850160208301379081016020019190915292915050565b60006020828403121562000881578081fd5b81356200088e8162000cfd565b9392505050565b60008060008060008060c08789031215620008ae578182fd5b863567ffffffffffffffff80821115620008c6578384fd5b620008d48a838b0162000805565b97506020890135915080821115620008ea578384fd5b620008f88a838b0162000805565b965060408901359150808211156200090e578384fd5b6200091c8a838b01620005d8565b9550606089013591508082111562000932578384fd5b506200094189828a01620006a5565b9350506080870135915060a087013590509295509295509295565b6001600160a01b03169052565b6000815180845260208085019450808401835b83811015620009bc57815180516001600160a01b031688528301516bffffffffffffffffffffffff1683880152604090960195908201906001016200097c565b509495945050505050565b6000815180845260208085018081965082840281019150828601855b8581101562000a9857828403895281516060815181875262000a088288018262000ad6565b83890151888203898b015280518083529193508901915088830190808a0284018a018c5b8281101562000a5e57601f1986830301845262000a4b82865162000ad6565b948c0194938c0193915060010162000a2c565b506040958601518a82038b88015295945062000a7b818762000aa5565b9e8b019e99505050948801945050506001919091019050620009e3565b5091979650505050505050565b6000815180845260208085019450808401835b83811015620009bc5781518752958201959082019060010162000ab8565b600081518084526020825b8281101562000afe57848101820151868201830152810162000ae1565b8281111562000b0f57838284880101525b5080601f19601f8401168601019250505092915050565b6001600160a01b0391909116815260200190565b6001600160a01b0392831681529116602082015260400190565b6001600160a01b038316815260406020820181905260009062000b7a9083018462000ad6565b949350505050565b6000602082526200088e602083018462000ad6565b600061012080835262000bad8184018d62000ad6565b905060208382038185015262000bc4828d62000ad6565b91508382036040850152828b54600181166000811462000bed576001811462000c0b5762000c47565b60028204607f16855260ff1982168486015260408501925062000c47565b6002820480865262000c1d8f62000cf1565b875b8281101562000c3e578154888201880152600190910190860162000c1f565b87018601945050505b505062000c58606086018c6200095c565b62000c67608086018b6200095c565b84810360a086015262000c7b818a62000969565b9250505082810360c084015262000c938187620009c7565b60e084019590955250506101000152979650505050505050565b60405181810167ffffffffffffffff8111828210171562000cca57fe5b604052919050565b600067ffffffffffffffff82111562000ce757fe5b5060209081020190565b60009081526020902090565b6001600160a01b038116811462000d1357600080fd5b5056fe60806040526040516108443803806108448339818101604052604081101561002657600080fd5b81516020830180516040519294929383019291908464010000000082111561004d57600080fd5b90830190602082018581111561006257600080fd5b825164010000000081118282018810171561007c57600080fd5b82525081516020918201929091019080838360005b838110156100a9578181015183820152602001610091565b50505050905090810190601f1680156100d65780820380516001836020036101000a031916815260200191505b50604052506100e3915050565b6100ed82826100f4565b505061047e565b6101078261024960201b6100311760201c565b6101425760405162461bcd60e51b81526004018080602001828103825260258152602001806107c56025913960400191505060405180910390fd5b6101ba826001600160a01b0316635c60da1b6040518163ffffffff1660e01b815260040160206040518083038186803b15801561017e57600080fd5b505afa158015610192573d6000803e3d6000fd5b505050506040513d60208110156101a857600080fd5b5051610249602090811b61003117901c565b6101f55760405162461bcd60e51b81526004018080602001828103825260348152602001806108106034913960400191505060405180910390fd5b6000805160206107848339815191528281558151156102445761024261021961024f565b836040518060600160405280602181526020016107a4602191396102c260201b6100371760201c565b505b505050565b3b151590565b60006102596103c7565b6001600160a01b0316635c60da1b6040518163ffffffff1660e01b815260040160206040518083038186803b15801561029157600080fd5b505afa1580156102a5573d6000803e3d6000fd5b505050506040513d60208110156102bb57600080fd5b5051905090565b60606102cd84610249565b6103085760405162461bcd60e51b81526004018080602001828103825260268152602001806107ea6026913960400191505060405180910390fd5b600080856001600160a01b0316856040518082805190602001908083835b602083106103455780518252601f199092019160209182019101610326565b6001836020036101000a038019825116818451168082178552505050505050905001915050600060405180830381855af49150503d80600081146103a5576040519150601f19603f3d011682016040523d82523d6000602084013e6103aa565b606091505b5090925090506103bb8282866103da565b925050505b9392505050565b6000805160206107848339815191525490565b606083156103e95750816103c0565b8251156103f95782518084602001fd5b8160405162461bcd60e51b81526004018080602001828103825283818151815260200191508051906020019080838360005b8381101561044357818101518382015260200161042b565b50505050905090810190601f1680156104705780820380516001836020036101000a031916815260200191505b509250505060405180910390fd5b6102f78061048d6000396000f3fe60806040523661001357610011610017565b005b6100115b61001f61002f565b61002f61002a61013b565b6101ae565b565b3b151590565b606061004284610031565b61007d5760405162461bcd60e51b815260040180806020018281038252602681526020018061029c6026913960400191505060405180910390fd5b600080856001600160a01b0316856040518082805190602001908083835b602083106100ba5780518252601f19909201916020918201910161009b565b6001836020036101000a038019825116818451168082178552505050505050905001915050600060405180830381855af49150503d806000811461011a576040519150601f19603f3d011682016040523d82523d6000602084013e61011f565b606091505b509150915061012f8282866101d2565b925050505b9392505050565b6000610145610276565b6001600160a01b0316635c60da1b6040518163ffffffff1660e01b815260040160206040518083038186803b15801561017d57600080fd5b505afa158015610191573d6000803e3d6000fd5b505050506040513d60208110156101a757600080fd5b5051905090565b3660008037600080366000845af43d6000803e8080156101cd573d6000f35b3d6000fd5b606083156101e1575081610134565b8251156101f15782518084602001fd5b8160405162461bcd60e51b81526004018080602001828103825283818151815260200191508051906020019080838360005b8381101561023b578181015183820152602001610223565b50505050905090810190601f1680156102685780820380516001836020036101000a031916815260200191505b509250505060405180910390fd5b7fa3f0ad74e5423aebfd80d3ef4346578335a9a72aeaee59ff6cb3582b35133d50549056fe416464726573733a2064656c65676174652063616c6c20746f206e6f6e2d636f6e7472616374a26469706673582212208d876f4df9e95fb28cbac2f32a1bbbb4e7f39f9d7bb110fc7b5628d98879c2ba64736f6c63430007060033a3f0ad74e5423aebfd80d3ef4346578335a9a72aeaee59ff6cb3582b35133d50426561636f6e50726f78793a2066756e6374696f6e2063616c6c206661696c6564426561636f6e50726f78793a20626561636f6e206973206e6f74206120636f6e7472616374416464726573733a2064656c65676174652063616c6c20746f206e6f6e2d636f6e7472616374426561636f6e50726f78793a20626561636f6e20696d706c656d656e746174696f6e206973206e6f74206120636f6e74726163744f776e61626c653a206e6577206f776e657220697320746865207a65726f2061646472657373a2646970667358221220e2122a4b24a020be61e430343c84c936d988d6f783b98cc73206b59d05f3451564736f6c63430007060033",
  "immutableReferences": {},
  "source": "// SPDX-License-Identifier: MIT\n\npragma solidity ^0.7.0;\npragma abicoder v2;\n\nimport \"./ERC721Gen.sol\";\nimport \"@openzeppelin/contracts/proxy/IBeacon.sol\";\nimport \"@openzeppelin/contracts/proxy/BeaconProxy.sol\";\nimport \"@openzeppelin/contracts/access/Ownable.sol\";\n\n/**\n * @dev This contract is for creating proxy to access ERC721Gen token.\n *\n * The beacon should be initialized before call ERC721GenFactory constructor.\n */\ncontract ERC721GenFactory is Ownable, Traits {\n    //beacon of ERC721 address\n    IBeacon public beacon;\n\n    //transferProxy to call transferFrom\n    address public transferProxy;\n\n    //operatorProxy to mint tokens\n    address public operatorProxy;\n\n    //baseURI for collections\n    string public baseURI;\n\n    event CollectionCreated(address owner, address collection);\n\n    constructor(\n        IBeacon _beacon,\n        address _transferProxy,\n        address _operatorProxy,\n        string memory _baseURI\n    ) {\n        beacon = _beacon;\n        transferProxy = _transferProxy;\n        operatorProxy = _operatorProxy;\n        baseURI = _baseURI;\n    }\n\n    function createCollection(\n        string memory _name,\n        string memory _symbol,\n        LibPart.Part[] memory _royalties,\n        Trait[] memory _traits,\n        uint256 _total,\n        uint256 _maxValue\n    ) external {\n        bytes memory data = abi.encodeWithSelector(\n            ERC721Gen(0).__ERC721Gen_init.selector,\n            _name,\n            _symbol,\n            baseURI,\n            transferProxy,\n            operatorProxy,\n            _royalties,\n            _traits,\n            _total,\n            _maxValue\n        );\n        BeaconProxy beaconProxy = new BeaconProxy(address(beacon), data);\n        ERC721Gen token = ERC721Gen(address(beaconProxy));\n\n        token.transferOwnership(_msgSender());\n\n        emit CollectionCreated(_msgSender(), address(token));\n    }\n}\n",
  "sourcePath": "/home/quadro/Projects/rarible/generative-art/contracts/ERC721GenFactory.sol",
  "compiler": {
    "name": "solc",
    "version": "0.7.6+commit.7338295f.Emscripten.clang"
  },
  "schemaVersion": "3.4.3",
  "updatedAt": "2021-09-21T14:11:52.426Z",
  "devdoc": {
    "details": "This contract is for creating proxy to access ERC721Gen token. The beacon should be initialized before call ERC721GenFactory constructor.",
    "kind": "dev",
    "methods": {
      "owner()": {
        "details": "Returns the address of the current owner."
      },
      "renounceOwnership()": {
        "details": "Leaves the contract without owner. It will not be possible to call `onlyOwner` functions anymore. Can only be called by the current owner. NOTE: Renouncing ownership will leave the contract without an owner, thereby removing any functionality that is only available to the owner."
      },
      "transferOwnership(address)": {
        "details": "Transfers ownership of the contract to a new account (`newOwner`). Can only be called by the current owner."
      }
    },
    "version": 1
  },
  "userdoc": {
    "kind": "user",
    "methods": {},
    "version": 1
  }
}