{
  "contractName": "ERC721Gen",
  "abi": [
    {
      "anonymous": false,
      "inputs": [
        {
          "indexed": true,
          "internalType": "address",
          "name": "owner",
          "type": "address"
        },
        {
          "indexed": true,
          "internalType": "address",
          "name": "approved",
          "type": "address"
        },
        {
          "indexed": true,
          "internalType": "uint256",
          "name": "tokenId",
          "type": "uint256"
        }
      ],
      "name": "Approval",
      "type": "event"
    },
    {
      "anonymous": false,
      "inputs": [
        {
          "indexed": true,
          "internalType": "address",
          "name": "owner",
          "type": "address"
        },
        {
          "indexed": true,
          "internalType": "address",
          "name": "operator",
          "type": "address"
        },
        {
          "indexed": false,
          "internalType": "bool",
          "name": "approved",
          "type": "bool"
        }
      ],
      "name": "ApprovalForAll",
      "type": "event"
    },
    {
      "anonymous": false,
      "inputs": [
        {
          "indexed": true,
          "internalType": "address",
          "name": "operator",
          "type": "address"
        },
        {
          "indexed": false,
          "internalType": "bool",
          "name": "hasApproval",
          "type": "bool"
        }
      ],
      "name": "DefaultApproval",
      "type": "event"
    },
    {
      "anonymous": false,
      "inputs": [
        {
          "indexed": false,
          "internalType": "uint256",
          "name": "tokenId",
          "type": "uint256"
        }
      ],
      "name": "GenArtMint",
      "type": "event"
    },
    {
      "anonymous": false,
      "inputs": [
        {
          "indexed": false,
          "internalType": "uint256",
          "name": "total",
          "type": "uint256"
        }
      ],
      "name": "GenArtTotal",
      "type": "event"
    },
    {
      "anonymous": false,
      "inputs": [
        {
          "indexed": true,
          "internalType": "address",
          "name": "previousOwner",
          "type": "address"
        },
        {
          "indexed": true,
          "internalType": "address",
          "name": "newOwner",
          "type": "address"
        }
      ],
      "name": "OwnershipTransferred",
      "type": "event"
    },
    {
      "anonymous": false,
      "inputs": [
        {
          "indexed": false,
          "internalType": "uint256",
          "name": "tokenId",
          "type": "uint256"
        },
        {
          "components": [
            {
              "internalType": "address payable",
              "name": "account",
              "type": "address"
            },
            {
              "internalType": "uint96",
              "name": "value",
              "type": "uint96"
            }
          ],
          "indexed": false,
          "internalType": "struct LibPart.Part[]",
          "name": "royalties",
          "type": "tuple[]"
        }
      ],
      "name": "RoyaltiesSet",
      "type": "event"
    },
    {
      "anonymous": false,
      "inputs": [
        {
          "components": [
            {
              "internalType": "string",
              "name": "name",
              "type": "string"
            },
            {
              "internalType": "string[]",
              "name": "keys",
              "type": "string[]"
            },
            {
              "internalType": "uint256[]",
              "name": "rarities",
              "type": "uint256[]"
            }
          ],
          "indexed": false,
          "internalType": "struct Traits.Trait[]",
          "name": "traits",
          "type": "tuple[]"
        }
      ],
      "name": "TraitsSet",
      "type": "event"
    },
    {
      "anonymous": false,
      "inputs": [
        {
          "indexed": true,
          "internalType": "address",
          "name": "from",
          "type": "address"
        },
        {
          "indexed": true,
          "internalType": "address",
          "name": "to",
          "type": "address"
        },
        {
          "indexed": true,
          "internalType": "uint256",
          "name": "tokenId",
          "type": "uint256"
        }
      ],
      "name": "Transfer",
      "type": "event"
    },
    {
      "inputs": [
        {
          "internalType": "address",
          "name": "operator",
          "type": "address"
        }
      ],
      "name": "__ERC721GenOperatorRole_init",
      "outputs": [],
      "stateMutability": "nonpayable",
      "type": "function"
    },
    {
      "inputs": [
        {
          "internalType": "address",
          "name": "to",
          "type": "address"
        },
        {
          "internalType": "uint256",
          "name": "tokenId",
          "type": "uint256"
        }
      ],
      "name": "approve",
      "outputs": [],
      "stateMutability": "nonpayable",
      "type": "function"
    },
    {
      "inputs": [
        {
          "internalType": "address",
          "name": "owner",
          "type": "address"
        }
      ],
      "name": "balanceOf",
      "outputs": [
        {
          "internalType": "uint256",
          "name": "",
          "type": "uint256"
        }
      ],
      "stateMutability": "view",
      "type": "function"
    },
    {
      "inputs": [],
      "name": "baseURI",
      "outputs": [
        {
          "internalType": "string",
          "name": "",
          "type": "string"
        }
      ],
      "stateMutability": "view",
      "type": "function"
    },
    {
      "inputs": [
        {
          "internalType": "uint256",
          "name": "tokenId",
          "type": "uint256"
        }
      ],
      "name": "getApproved",
      "outputs": [
        {
          "internalType": "address",
          "name": "",
          "type": "address"
        }
      ],
      "stateMutability": "view",
      "type": "function"
    },
    {
      "inputs": [],
      "name": "getPossibleTraits",
      "outputs": [
        {
          "components": [
            {
              "internalType": "string",
              "name": "name",
              "type": "string"
            },
            {
              "internalType": "string[]",
              "name": "keys",
              "type": "string[]"
            },
            {
              "internalType": "uint256[]",
              "name": "rarities",
              "type": "uint256[]"
            }
          ],
          "internalType": "struct Traits.Trait[]",
          "name": "",
          "type": "tuple[]"
        }
      ],
      "stateMutability": "view",
      "type": "function"
    },
    {
      "inputs": [
        {
          "internalType": "uint256",
          "name": "",
          "type": "uint256"
        }
      ],
      "name": "getRoyalties",
      "outputs": [
        {
          "components": [
            {
              "internalType": "address payable",
              "name": "account",
              "type": "address"
            },
            {
              "internalType": "uint96",
              "name": "value",
              "type": "uint96"
            }
          ],
          "internalType": "struct LibPart.Part[]",
          "name": "",
          "type": "tuple[]"
        }
      ],
      "stateMutability": "view",
      "type": "function"
    },
    {
      "inputs": [
        {
          "internalType": "address",
          "name": "owner",
          "type": "address"
        },
        {
          "internalType": "address",
          "name": "operator",
          "type": "address"
        }
      ],
      "name": "isApprovedForAll",
      "outputs": [
        {
          "internalType": "bool",
          "name": "",
          "type": "bool"
        }
      ],
      "stateMutability": "view",
      "type": "function"
    },
    {
      "inputs": [],
      "name": "maxValue",
      "outputs": [
        {
          "internalType": "uint256",
          "name": "",
          "type": "uint256"
        }
      ],
      "stateMutability": "view",
      "type": "function"
    },
    {
      "inputs": [],
      "name": "name",
      "outputs": [
        {
          "internalType": "string",
          "name": "",
          "type": "string"
        }
      ],
      "stateMutability": "view",
      "type": "function"
    },
    {
      "inputs": [],
      "name": "owner",
      "outputs": [
        {
          "internalType": "address",
          "name": "",
          "type": "address"
        }
      ],
      "stateMutability": "view",
      "type": "function"
    },
    {
      "inputs": [
        {
          "internalType": "uint256",
          "name": "tokenId",
          "type": "uint256"
        }
      ],
      "name": "ownerOf",
      "outputs": [
        {
          "internalType": "address",
          "name": "",
          "type": "address"
        }
      ],
      "stateMutability": "view",
      "type": "function"
    },
    {
      "inputs": [],
      "name": "renounceOwnership",
      "outputs": [],
      "stateMutability": "nonpayable",
      "type": "function"
    },
    {
      "inputs": [
        {
          "internalType": "address",
          "name": "from",
          "type": "address"
        },
        {
          "internalType": "address",
          "name": "to",
          "type": "address"
        },
        {
          "internalType": "uint256",
          "name": "tokenId",
          "type": "uint256"
        }
      ],
      "name": "safeTransferFrom",
      "outputs": [],
      "stateMutability": "nonpayable",
      "type": "function"
    },
    {
      "inputs": [
        {
          "internalType": "address",
          "name": "from",
          "type": "address"
        },
        {
          "internalType": "address",
          "name": "to",
          "type": "address"
        },
        {
          "internalType": "uint256",
          "name": "tokenId",
          "type": "uint256"
        },
        {
          "internalType": "bytes",
          "name": "_data",
          "type": "bytes"
        }
      ],
      "name": "safeTransferFrom",
      "outputs": [],
      "stateMutability": "nonpayable",
      "type": "function"
    },
    {
      "inputs": [
        {
          "internalType": "address",
          "name": "operator",
          "type": "address"
        },
        {
          "internalType": "bool",
          "name": "approved",
          "type": "bool"
        }
      ],
      "name": "setApprovalForAll",
      "outputs": [],
      "stateMutability": "nonpayable",
      "type": "function"
    },
    {
      "inputs": [
        {
          "internalType": "bytes4",
          "name": "interfaceId",
          "type": "bytes4"
        }
      ],
      "name": "supportsInterface",
      "outputs": [
        {
          "internalType": "bool",
          "name": "",
          "type": "bool"
        }
      ],
      "stateMutability": "view",
      "type": "function"
    },
    {
      "inputs": [],
      "name": "symbol",
      "outputs": [
        {
          "internalType": "string",
          "name": "",
          "type": "string"
        }
      ],
      "stateMutability": "view",
      "type": "function"
    },
    {
      "inputs": [
        {
          "internalType": "uint256",
          "name": "index",
          "type": "uint256"
        }
      ],
      "name": "tokenByIndex",
      "outputs": [
        {
          "internalType": "uint256",
          "name": "",
          "type": "uint256"
        }
      ],
      "stateMutability": "view",
      "type": "function"
    },
    {
      "inputs": [
        {
          "internalType": "address",
          "name": "owner",
          "type": "address"
        },
        {
          "internalType": "uint256",
          "name": "index",
          "type": "uint256"
        }
      ],
      "name": "tokenOfOwnerByIndex",
      "outputs": [
        {
          "internalType": "uint256",
          "name": "",
          "type": "uint256"
        }
      ],
      "stateMutability": "view",
      "type": "function"
    },
    {
      "inputs": [],
      "name": "total",
      "outputs": [
        {
          "internalType": "uint256",
          "name": "",
          "type": "uint256"
        }
      ],
      "stateMutability": "view",
      "type": "function"
    },
    {
      "inputs": [
        {
          "internalType": "address",
          "name": "from",
          "type": "address"
        },
        {
          "internalType": "address",
          "name": "to",
          "type": "address"
        },
        {
          "internalType": "uint256",
          "name": "tokenId",
          "type": "uint256"
        }
      ],
      "name": "transferFrom",
      "outputs": [],
      "stateMutability": "nonpayable",
      "type": "function"
    },
    {
      "inputs": [
        {
          "internalType": "address",
          "name": "newOwner",
          "type": "address"
        }
      ],
      "name": "transferOwnership",
      "outputs": [],
      "stateMutability": "nonpayable",
      "type": "function"
    },
    {
      "inputs": [
        {
          "internalType": "string",
          "name": "_name",
          "type": "string"
        },
        {
          "internalType": "string",
          "name": "_symbol",
          "type": "string"
        },
        {
          "internalType": "string",
          "name": "_baseURI",
          "type": "string"
        },
        {
          "internalType": "address",
          "name": "_transferProxy",
          "type": "address"
        },
        {
          "internalType": "address",
          "name": "_operatorProxy",
          "type": "address"
        },
        {
          "components": [
            {
              "internalType": "address payable",
              "name": "account",
              "type": "address"
            },
            {
              "internalType": "uint96",
              "name": "value",
              "type": "uint96"
            }
          ],
          "internalType": "struct LibPart.Part[]",
          "name": "_royalties",
          "type": "tuple[]"
        },
        {
          "components": [
            {
              "internalType": "string",
              "name": "name",
              "type": "string"
            },
            {
              "internalType": "string[]",
              "name": "keys",
              "type": "string[]"
            },
            {
              "internalType": "uint256[]",
              "name": "rarities",
              "type": "uint256[]"
            }
          ],
          "internalType": "struct Traits.Trait[]",
          "name": "_traits",
          "type": "tuple[]"
        },
        {
          "internalType": "uint256",
          "name": "_total",
          "type": "uint256"
        },
        {
          "internalType": "uint256",
          "name": "_maxValue",
          "type": "uint256"
        }
      ],
      "name": "__ERC721Gen_init",
      "outputs": [],
      "stateMutability": "nonpayable",
      "type": "function"
    },
    {
      "inputs": [
        {
          "internalType": "address",
          "name": "artist",
          "type": "address"
        },
        {
          "internalType": "address",
          "name": "to",
          "type": "address"
        },
        {
          "internalType": "uint256",
          "name": "value",
          "type": "uint256"
        }
      ],
      "name": "mint",
      "outputs": [],
      "stateMutability": "nonpayable",
      "type": "function"
    },
    {
      "inputs": [
        {
          "internalType": "uint256",
          "name": "",
          "type": "uint256"
        }
      ],
      "name": "tokenURI",
      "outputs": [
        {
          "internalType": "string",
          "name": "",
          "type": "string"
        }
      ],
      "stateMutability": "view",
      "type": "function"
    },
    {
      "inputs": [
        {
          "internalType": "uint256",
          "name": "tokenId",
          "type": "uint256"
        }
      ],
      "name": "getTokenTraits",
      "outputs": [
        {
          "internalType": "uint256[]",
          "name": "",
          "type": "uint256[]"
        }
      ],
      "stateMutability": "view",
      "type": "function"
    },
    {
      "inputs": [],
      "name": "totalSupply",
      "outputs": [
        {
          "internalType": "uint256",
          "name": "",
          "type": "uint256"
        }
      ],
      "stateMutability": "pure",
      "type": "function"
    }
  ],
  "bytecode": "0x608060405234801561001057600080fd5b50613bee806100206000396000f3fe608060405234801561001057600080fd5b50600436106101c45760003560e01c8063715018a6116100f9578063b88d4fde11610097578063c87b56dd11610071578063c87b56dd14610392578063d94dea89146103a5578063e985e9c5146103ba578063f2fde38b146103cd576101c4565b8063b88d4fde1461034c578063bb3bafd61461035f578063c6c3bbe61461037f576101c4565b806394e56847116100d357806394e56847146102fe57806395d89b411461031e578063a22cb46514610326578063a9dfbf6714610339576101c4565b8063715018a6146102e65780638da5cb5b146102ee57806394a5c2e4146102f6576101c4565b80632ddbd13a116101665780634f6ccce7116101405780634f6ccce7146102a55780636352211e146102b85780636c0360eb146102cb57806370a08231146102d3576101c4565b80632ddbd13a146102775780632f745c591461027f57806342842e0e14610292576101c4565b8063095ea7b3116101a2578063095ea7b31461022757806316cc2df81461023c57806318160ddd1461024f57806323b872dd14610264576101c4565b806301ffc9a7146101c957806306fdde03146101f2578063081812fc14610207575b600080fd5b6101dc6101d7366004613369565b6103e0565b6040516101e991906136e8565b60405180910390f35b6101fa610403565b6040516101e9919061370c565b61021a610215366004613492565b610499565b6040516101e991906135d1565b61023a61023536600461333e565b6104fb565b005b61023a61024a3660046131fc565b6105d6565b610257610692565b6040516101e991906138b8565b61023a610272366004613250565b610697565b6102576106ee565b61025761028d36600461333e565b6106f5565b61023a6102a0366004613250565b610720565b6102576102b3366004613492565b61073b565b61021a6102c6366004613492565b610751565b6101fa610779565b6102576102e13660046131fc565b6107da565b61023a610842565b61021a610900565b61025761090f565b61031161030c366004613492565b610916565b6040516101e991906136d5565b6101fa610bc6565b61023a61033436600461330d565b610c27565b61023a610347366004613391565b610d2c565b61023a61035a366004613290565b610e41565b61037261036d366004613492565b610e9f565b6040516101e991906135e5565b61023a61038d366004613250565b610f1d565b6101fa6103a0366004613492565b611043565b6103ad611073565b6040516101e991906135f8565b6101dc6103c8366004613218565b611292565b61023a6103db3660046131fc565b6112be565b6001600160e01b0319811660009081526033602052604090205460ff165b919050565b606a8054604080516020601f600260001961010060018816150201909516949094049384018190048102820181019092528281526060939092909183018282801561048f5780601f106104645761010080835404028352916020019161048f565b820191906000526020600020905b81548152906001019060200180831161047257829003601f168201915b5050505050905090565b60006104a4826113d3565b6104df5760405162461bcd60e51b815260040180806020018281038252602c815260200180613aea602c913960400191505060405180910390fd5b506000908152606860205260409020546001600160a01b031690565b600061050682610751565b9050806001600160a01b0316836001600160a01b031614156105595760405162461bcd60e51b8152600401808060200182810382526021815260200180613b676021913960400191505060405180910390fd5b806001600160a01b031661056b6113e0565b6001600160a01b0316148061058c575061058c816105876113e0565b6113e4565b6105c75760405162461bcd60e51b8152600401808060200182810382526038815260200180613a0f6038913960400191505060405180910390fd5b6105d18383611412565b505050565b600054610100900460ff16806105ef57506105ef611480565b806105fd575060005460ff16155b6106385760405162461bcd60e51b815260040180806020018281038252602e815260200180613a9a602e913960400191505060405180910390fd5b600054610100900460ff16158015610663576000805460ff1961ff0019909116610100171660011790555b61066b611491565b610673611533565b61067c8261162c565b801561068e576000805461ff00191690555b5050565b600090565b6106a86106a26113e0565b826116f2565b6106e35760405162461bcd60e51b8152600401808060200182810382526031815260200180613b886031913960400191505060405180910390fd5b6105d183838361171e565b6101c75481565b6001600160a01b0382166000908152606560205260408120610717908361186a565b90505b92915050565b6105d183838360405180602001604052806000815250610e41565b600080610749606684611876565b509392505050565b600061071a82604051806060016040528060298152602001613a716029913960669190611892565b606d8054604080516020601f600260001961010060018816150201909516949094049384018190048102820181019092528281526060939092909183018282801561048f5780601f106104645761010080835404028352916020019161048f565b60006001600160a01b0382166108215760405162461bcd60e51b815260040180806020018281038252602a815260200180613a47602a913960400191505060405180910390fd5b6001600160a01b038216600090815260656020526040902061071a906118a9565b61084a6113e0565b6001600160a01b031661085b610900565b6001600160a01b0316146108b6576040805162461bcd60e51b815260206004820181905260248201527f4f776e61626c653a2063616c6c6572206973206e6f7420746865206f776e6572604482015290519081900360640190fd5b6097546040516000916001600160a01b0316907f8be0079c531659141344cd1fd0a4f28419497f9722a3daafe3b4186f6b6457e0908390a3609780546001600160a01b0319169055565b6097546001600160a01b031690565b6101c85481565b61012f5460609060009067ffffffffffffffff8111801561093657600080fd5b50604051908082528060200260200182016040528015610960578160200160208202803683370190505b50905060005b61012f54811015610bbf5760008482604051602001610986929190613584565b6040516020818303038152906040528051906020012060001c9050610b9f61012f83815481106109b257fe5b600091825260209182902060408051600393909302909101805460026001821615610100026000190190911604601f8101859004909402830160809081019092526060830184815292939092849290918491840182828015610a555780601f10610a2a57610100808354040283529160200191610a55565b820191906000526020600020905b815481529060010190602001808311610a3857829003601f168201915b5050505050815260200160018201805480602002602001604051908101604052809291908181526020016000905b82821015610b2e5760008481526020908190208301805460408051601f6002600019610100600187161502019094169390930492830185900485028101850190915281815292830182828015610b1a5780601f10610aef57610100808354040283529160200191610b1a565b820191906000526020600020905b815481529060010190602001808311610afd57829003601f168201915b505050505081526020019060010190610a83565b50505050815260200160028201805480602002602001604051908101604052809291908181526020018280548015610b8557602002820191906000526020600020905b815481526020019060010190808311610b71575b5050505050815250506127108381610b9957fe5b066118b4565b838381518110610bab57fe5b602090810291909101015250600101610966565b5092915050565b606b8054604080516020601f600260001961010060018816150201909516949094049384018190048102820181019092528281526060939092909183018282801561048f5780601f106104645761010080835404028352916020019161048f565b610c2f6113e0565b6001600160a01b0316826001600160a01b03161415610c95576040805162461bcd60e51b815260206004820152601960248201527f4552433732313a20617070726f766520746f2063616c6c657200000000000000604482015290519081900360640190fd5b8060696000610ca26113e0565b6001600160a01b03908116825260208083019390935260409182016000908120918716808252919093529120805460ff191692151592909217909155610ce66113e0565b6001600160a01b03167f17307eab39ab6107e8899845ad3d59bd9653f200f220920489ca2b5937696c318360405180821515815260200191505060405180910390a35050565b600054610100900460ff1680610d455750610d45611480565b80610d53575060005460ff16155b610d8e5760405162461bcd60e51b815260040180806020018281038252602e815260200180613a9a602e913960400191505060405180910390fd5b600054610100900460ff16158015610db9576000805460ff1961ff0019909116610100171660011790555b610dcb610dc68930611914565b6119f1565b610dd3611a04565b610ddc85611aa1565b610de4611491565b610dec611b37565b610df4611533565b610dfe8a8a611bd4565b610e0784611ccf565b610e1087611ee6565b610e198661162c565b610e238383611fe6565b8015610e35576000805461ff00191690555b50505050505050505050565b610e52610e4c6113e0565b836116f2565b610e8d5760405162461bcd60e51b8152600401808060200182810382526031815260200180613b886031913960400191505060405180910390fd5b610e99848484846120cd565b50505050565b606060fc805480602002602001604051908101604052809291908181526020016000905b82821015610f1257600084815260209081902060408051808201909152908401546001600160a01b0381168252600160a01b90046001600160601b031681830152825260019092019101610ec3565b505050509050919050565b6101946000610f2a6113e0565b6001600160a01b0316815260208101919091526040016000205460ff16610f825760405162461bcd60e51b8152600401808060200182810382526028815260200180613b166028913960400191505060405180910390fd5b600081118015610f9557506101c8548111155b610fba5760405162461bcd60e51b8152600401610fb1906137ba565b60405180910390fd5b610fc2610900565b6001600160a01b0316836001600160a01b031614610ff25760405162461bcd60e51b8152600401610fb1906137fb565b6101c7546110088261100261211f565b90612130565b11156110265760405162461bcd60e51b8152600401610fb19061371f565b60005b81811015610e995761103b838261218a565b600101611029565b606061104d610779565b60405160200161105d919061355c565b6040516020818303038152906040529050919050565b606061012f805480602002602001604051908101604052809291908181526020016000905b828210156112895760008481526020908190206040805160038602909201805460026001821615610100026000190190911604601f81018590049094028301608090810190925260608301848152929390928492909184918401828280156111415780601f1061111657610100808354040283529160200191611141565b820191906000526020600020905b81548152906001019060200180831161112457829003601f168201915b5050505050815260200160018201805480602002602001604051908101604052809291908181526020016000905b8282101561121a5760008481526020908190208301805460408051601f60026000196101006001871615020190941693909304928301859004850281018501909152818152928301828280156112065780601f106111db57610100808354040283529160200191611206565b820191906000526020600020905b8154815290600101906020018083116111e957829003601f168201915b50505050508152602001906001019061116f565b5050505081526020016002820180548060200260200160405190810160405280929190818152602001828054801561127157602002820191906000526020600020905b81548152602001906001019080831161125d575b50505050508152505081526020019060010190611098565b50505050905090565b6001600160a01b038116600090815260c9602052604081205460ff1680610717575061071783836113e4565b6112c66113e0565b6001600160a01b03166112d7610900565b6001600160a01b031614611332576040805162461bcd60e51b815260206004820181905260248201527f4f776e61626c653a2063616c6c6572206973206e6f7420746865206f776e6572604482015290519081900360640190fd5b6001600160a01b0381166113775760405162461bcd60e51b81526004018080602001828103825260268152602001806139996026913960400191505060405180910390fd5b6097546040516001600160a01b038084169216907f8be0079c531659141344cd1fd0a4f28419497f9722a3daafe3b4186f6b6457e090600090a3609780546001600160a01b0319166001600160a01b0392909216919091179055565b600061071a6066836121e6565b3390565b6001600160a01b03918216600090815260696020908152604080832093909416825291909152205460ff1690565b600081815260686020526040902080546001600160a01b0319166001600160a01b038416908117909155819061144782610751565b6001600160a01b03167f8c5be1e5ebec7d5bd14f71427d1e84f3dd0314c0f7b2291e5b200ac8c7c3b92560405160405180910390a45050565b600061148b306121f2565b15905090565b600054610100900460ff16806114aa57506114aa611480565b806114b8575060005460ff16155b6114f35760405162461bcd60e51b815260040180806020018281038252602e815260200180613a9a602e913960400191505060405180910390fd5b600054610100900460ff1615801561151e576000805460ff1961ff0019909116610100171660011790555b8015611530576000805461ff00191690555b50565b600054610100900460ff168061154c575061154c611480565b8061155a575060005460ff16155b6115955760405162461bcd60e51b815260040180806020018281038252602e815260200180613a9a602e913960400191505060405180910390fd5b600054610100900460ff161580156115c0576000805460ff1961ff0019909116610100171660011790555b60006115ca6113e0565b609780546001600160a01b0319166001600160a01b038316908117909155604051919250906000907f8be0079c531659141344cd1fd0a4f28419497f9722a3daafe3b4186f6b6457e0908290a3508015611530576000805461ff001916905550565b600054610100900460ff16806116455750611645611480565b80611653575060005460ff16155b61168e5760405162461bcd60e51b815260040180806020018281038252602e815260200180613a9a602e913960400191505060405180910390fd5b600054610100900460ff161580156116b9576000805460ff1961ff0019909116610100171660011790555b6001600160a01b038216600090815261019460205260409020805460ff19166001179055801561068e576000805461ff00191690555050565b6001600160a01b038216600090815260c9602052604081205460ff1680610717575061071783836121f8565b826001600160a01b031661173182610751565b6001600160a01b0316146117765760405162461bcd60e51b8152600401808060200182810382526029815260200180613b3e6029913960400191505060405180910390fd5b6001600160a01b0382166117bb5760405162461bcd60e51b81526004018080602001828103825260248152602001806139bf6024913960400191505060405180910390fd5b6117c68383836105d1565b6117d1600082611412565b6001600160a01b03831660009081526065602052604090206117f3908261229c565b506001600160a01b038216600090815260656020526040902061181690826122a8565b50611823606682846122b4565b5080826001600160a01b0316846001600160a01b03167fddf252ad1be2c89b69c2b068fc378daa952ba7f163c4a11628f55a4df523b3ef60405160405180910390a4505050565b600061071783836122ca565b6000808080611885868661232e565b9097909650945050505050565b600061189f8484846123a9565b90505b9392505050565b600061071a82612473565b600080805b8460400151518110156118fb57846040015181815181106118d657fe5b602002602001015182019150818410156118f357915061071a9050565b6001016118b9565b5060405162461bcd60e51b8152600401610fb190613862565b60608261192083612477565b6040516020018083805190602001908083835b602083106119525780518252601f199092019160209182019101611933565b51815160209384036101000a600019018019909216911617905261060f60f31b919093019081528451600290910192850191508083835b602083106119a85780518252601f199092019160209182019101611989565b6001836020036101000a03801982511681845116808217855250505050505090500180602f60f81b81525060010192505050604051602081830303815290604052905092915050565b805161068e90606d906020840190612d80565b600054610100900460ff1680611a1d5750611a1d611480565b80611a2b575060005460ff16155b611a665760405162461bcd60e51b815260040180806020018281038252602e815260200180613a9a602e913960400191505060405180910390fd5b600054610100900460ff16158015611a91576000805460ff1961ff0019909116610100171660011790555b61151e631131d2f360e21b612565565b600054610100900460ff1680611aba5750611aba611480565b80611ac8575060005460ff16155b611b035760405162461bcd60e51b815260040180806020018281038252602e815260200180613a9a602e913960400191505060405180910390fd5b600054610100900460ff16158015611b2e576000805460ff1961ff0019909116610100171660011790555b61067c826125e9565b600054610100900460ff1680611b505750611b50611480565b80611b5e575060005460ff16155b611b995760405162461bcd60e51b815260040180806020018281038252602e815260200180613a9a602e913960400191505060405180910390fd5b600054610100900460ff16158015611bc4576000805460ff1961ff0019909116610100171660011790555b61151e6301ffc9a760e01b612565565b600054610100900460ff1680611bed5750611bed611480565b80611bfb575060005460ff16155b611c365760405162461bcd60e51b815260040180806020018281038252602e815260200180613a9a602e913960400191505060405180910390fd5b600054610100900460ff16158015611c61576000805460ff1961ff0019909116610100171660011790555b8251611c7490606a906020860190612d80565b508151611c8890606b906020850190612d80565b50611c996380ac58cd60e01b612565565b611ca9635b5e139f60e01b612565565b611cb963780e9d6360e01b612565565b80156105d1576000805461ff0019169055505050565b600054610100900460ff1680611ce85750611ce8611480565b80611cf6575060005460ff16155b611d315760405162461bcd60e51b815260040180806020018281038252602e815260200180613a9a602e913960400191505060405180910390fd5b600054610100900460ff16158015611d5c576000805460ff1961ff0019909116610100171660011790555b60005b8251811015611e99576000838281518110611d7657fe5b60209081029190910181015161012f805460018101825560009190915281518051929450849360039092027f232da9e50dad2971456a78fb5cd6ff6b75019984d6e918139ce990999420f9790192611dd19284920190612d80565b506020828101518051611dea9260018501920190612e0c565b5060408201518051611e06916002840191602090910190612e65565b505050600081604001515182602001515114611e345760405162461bcd60e51b8152600401610fb190613778565b60005b826040015151811015611e6d5782604001518181518110611e5457fe5b6020026020010151820191508080600101915050611e37565b508061271014611e8f5760405162461bcd60e51b8152600401610fb19061382b565b5050600101611d5f565b507f09c84115ae3001cd610bc97a54ec58233044031d842e7b875830870b1a1d888382604051611ec991906135f8565b60405180910390a1801561068e576000805461ff00191690555050565b600054610100900460ff1680611eff5750611eff611480565b80611f0d575060005460ff16155b611f485760405162461bcd60e51b815260040180806020018281038252602e815260200180613a9a602e913960400191505060405180910390fd5b600054610100900460ff16158015611f73576000805460ff1961ff0019909116610100171660011790555b6001600160a01b038216600081815260c96020908152604091829020805460ff19166001908117909155825181815292519093927f270dbb8ba4292910ae92862466486be25c355c837270a3d8824b36a8bc7c653b92908290030190a250801561068e576000805461ff00191690555050565b600054610100900460ff1680611fff5750611fff611480565b8061200d575060005460ff16155b6120485760405162461bcd60e51b815260040180806020018281038252602e815260200180613a9a602e913960400191505060405180910390fd5b600054610100900460ff16158015612073576000805460ff1961ff0019909116610100171660011790555b6101c88290556101c78390556040517fea649c7d539c2dc5f4bba029cd2bb737d28e5ddc740ef5a3779365e9c85bc495906120af9085906138b8565b60405180910390a180156105d1576000805461ff0019169055505050565b6120d884848461171e565b6120e4848484846126f5565b610e995760405162461bcd60e51b81526004018080602001828103825260328152602001806139676032913960400191505060405180910390fd5b600061212b60666118a9565b905090565b600082820183811015610717576040805162461bcd60e51b815260206004820152601b60248201527f536166654d6174683a206164646974696f6e206f766572666c6f770000000000604482015290519081900360640190fd5b600061219e8261219861211f565b8561285d565b90506121aa838261289a565b7f8d3aae9c05226dccdfc3b5a6adf19d15da201e24f67769c60c4585f5baf1ada0816040516121d991906138b8565b60405180910390a1505050565b600061071783836129c8565b3b151590565b6000612203826113d3565b61223e5760405162461bcd60e51b815260040180806020018281038252602c8152602001806139e3602c913960400191505060405180910390fd5b600061224983610751565b9050806001600160a01b0316846001600160a01b031614806122845750836001600160a01b031661227984610499565b6001600160a01b0316145b80612294575061229481856113e4565b949350505050565b600061071783836129e0565b60006107178383612aa6565b600061189f84846001600160a01b038516612af0565b8154600090821061230c5760405162461bcd60e51b81526004018080602001828103825260228152602001806139456022913960400191505060405180910390fd5b82600001828154811061231b57fe5b9060005260206000200154905092915050565b8154600090819083106123725760405162461bcd60e51b8152600401808060200182810382526022815260200180613ac86022913960400191505060405180910390fd5b600084600001848154811061238357fe5b906000526020600020906002020190508060000154816001015492509250509250929050565b600082815260018401602052604081205482816124445760405162461bcd60e51b81526004018080602001828103825283818151815260200191508051906020019080838360005b838110156124095781810151838201526020016123f1565b50505050905090810190601f1680156124365780820380516001836020036101000a031916815260200191505b509250505060405180910390fd5b5084600001600182038154811061245757fe5b9060005260206000209060020201600101549150509392505050565b5490565b60408051602880825260608281019093526000919060208201818036833701905050905060005b6014811015610bbf5760008160130360080260020a856001600160a01b0316816124c457fe5b0460f81b9050600060108260f81c60ff16816124dc57fe5b0460f81b905060008160f81c6010028360f81c0360f81b90506124fe82612b87565b85856002028151811061250d57fe5b60200101906001600160f81b031916908160001a90535061252d81612b87565b85856002026001018151811061253f57fe5b60200101906001600160f81b031916908160001a905350506001909201915061249e9050565b6001600160e01b031980821614156125c4576040805162461bcd60e51b815260206004820152601c60248201527f4552433136353a20696e76616c696420696e7465726661636520696400000000604482015290519081900360640190fd5b6001600160e01b0319166000908152603360205260409020805460ff19166001179055565b60005b81518110156126eb5760006001600160a01b031682828151811061260c57fe5b6020026020010151600001516001600160a01b0316141561263f5760405162461bcd60e51b8152600401610fb190613881565b81818151811061264b57fe5b6020026020010151602001516001600160601b0316600014156126805760405162461bcd60e51b8152600401610fb190613743565b60fc82828151811061268e57fe5b60209081029190910181015182546001818101855560009485529383902082519101805492909301516001600160601b0316600160a01b026001600160a01b039182166001600160a01b03199093169290921716179055016125ec565b5061153081612bb8565b6000612709846001600160a01b03166121f2565b61271557506001612294565b6000612823630a85bd0160e11b61272a6113e0565b88878760405160240180856001600160a01b03168152602001846001600160a01b0316815260200183815260200180602001828103825283818151815260200191508051906020019080838360005b83811015612791578181015183820152602001612779565b50505050905090810190601f1680156127be5780820380516001836020036101000a031916815260200191505b5095505050505050604051602081830303815290604052906001600160e01b0319166020820180516001600160e01b038381831617835250505050604051806060016040528060328152602001613967603291396001600160a01b0388169190612bf5565b9050600081806020019051602081101561283c57600080fd5b50516001600160e01b031916630a85bd0160e11b1492505050949350505050565b600083424344868660405160200161287a96959493929190613592565b60408051601f198184030181529190528051602090910120949350505050565b6001600160a01b0382166128f5576040805162461bcd60e51b815260206004820181905260248201527f4552433732313a206d696e7420746f20746865207a65726f2061646472657373604482015290519081900360640190fd5b6128fe816113d3565b15612950576040805162461bcd60e51b815260206004820152601c60248201527f4552433732313a20746f6b656e20616c7265616479206d696e74656400000000604482015290519081900360640190fd5b61295c600083836105d1565b6001600160a01b038216600090815260656020526040902061297e90826122a8565b5061298b606682846122b4565b5060405181906001600160a01b038416906000907fddf252ad1be2c89b69c2b068fc378daa952ba7f163c4a11628f55a4df523b3ef908290a45050565b60009081526001919091016020526040902054151590565b60008181526001830160205260408120548015612a9c5783546000198083019190810190600090879083908110612a1357fe5b9060005260206000200154905080876000018481548110612a3057fe5b600091825260208083209091019290925582815260018981019092526040902090840190558654879080612a6057fe5b6001900381819060005260206000200160009055905586600101600087815260200190815260200160002060009055600194505050505061071a565b600091505061071a565b6000612ab283836129c8565b612ae85750815460018181018455600084815260208082209093018490558454848252828601909352604090209190915561071a565b50600061071a565b600082815260018401602052604081205480612b555750506040805180820182528381526020808201848152865460018181018955600089815284812095516002909302909501918255915190820155865486845281880190925292909120556118a2565b82856000016001830381548110612b6857fe5b90600052602060002090600202016001018190555060009150506118a2565b6000600a60f883901c1015612ba7578160f81c60300160f81b90506103fe565b8160f81c60570160f81b90506103fe565b7f3fa96d7b6bcbfe71ef171666d84db3cf52fa2d1c8afdb1cc8e486177f208b7df600082604051612bea9291906136f3565b60405180910390a150565b606061189f848460008585612c09856121f2565b612c5a576040805162461bcd60e51b815260206004820152601d60248201527f416464726573733a2063616c6c20746f206e6f6e2d636f6e7472616374000000604482015290519081900360640190fd5b600080866001600160a01b031685876040518082805190602001908083835b60208310612c985780518252601f199092019160209182019101612c79565b6001836020036101000a03801982511681845116808217855250505050505090500191505060006040518083038185875af1925050503d8060008114612cfa576040519150601f19603f3d011682016040523d82523d6000602084013e612cff565b606091505b5091509150612d0f828286612d1a565b979650505050505050565b60608315612d295750816118a2565b825115612d395782518084602001fd5b60405162461bcd60e51b81526020600482018181528451602484015284518593919283926044019190850190808383600083156124095781810151838201526020016123f1565b828054600181600116156101000203166002900490600052602060002090601f016020900481019282612db65760008555612dfc565b82601f10612dcf57805160ff1916838001178555612dfc565b82800160010185558215612dfc579182015b82811115612dfc578251825591602001919060010190612de1565b50612e08929150612e9f565b5090565b828054828255906000526020600020908101928215612e59579160200282015b82811115612e595782518051612e49918491602090910190612d80565b5091602001919060010190612e2c565b50612e08929150612eb4565b828054828255906000526020600020908101928215612dfc5791602002820182811115612dfc578251825591602001919060010190612de1565b5b80821115612e085760008155600101612ea0565b80821115612e08576000612ec88282612ed1565b50600101612eb4565b50805460018160011615610100020316600290046000825580601f10612ef75750611530565b601f0160209004906000526020600020908101906115309190612e9f565b600067ffffffffffffffff831115612f2957fe5b612f3c601f8401601f19166020016138c1565b9050828152838383011115612f5057600080fd5b828260208301376000602084830101529392505050565b80356103fe8161392f565b600082601f830112612f82578081fd5b81356020612f97612f92836138e5565b6138c1565b82815281810190858301855b85811015612fcc57612fba898684358b01016131dd565b84529284019290840190600101612fa3565b5090979650505050505050565b600082601f830112612fe9578081fd5b81356020612ff9612f92836138e5565b82815281810190858301604080860288018501891015613017578687fd5b865b868110156130875781838b03121561302f578788fd5b815182810181811067ffffffffffffffff8211171561304a57fe5b835283356130578161392f565b8152838701356001600160601b038116811461307157898afd5b8188015285529385019391810191600101613019565b509198975050505050505050565b600082601f8301126130a5578081fd5b813560206130b5612f92836138e5565b82815281810190858301855b85811015612fcc5781358801606080601f19838d030112156130e1578889fd5b6040805182810167ffffffffffffffff82821081831117156130ff57fe5b908352848a01359080821115613113578c8dfd5b6131218f8c848901016131dd565b835283860135915080821115613135578c8dfd5b6131438f8c84890101612f72565b838c0152938501359380851115613158578c8dfd5b50506131688d8a85870101613183565b918101919091528652505092840192908401906001016130c1565b600082601f830112613193578081fd5b813560206131a3612f92836138e5565b82815281810190858301838502870184018810156131bf578586fd5b855b85811015612fcc578135845292840192908401906001016131c1565b600082601f8301126131ed578081fd5b61071783833560208501612f15565b60006020828403121561320d578081fd5b81356107178161392f565b6000806040838503121561322a578081fd5b82356132358161392f565b915060208301356132458161392f565b809150509250929050565b600080600060608486031215613264578081fd5b833561326f8161392f565b9250602084013561327f8161392f565b929592945050506040919091013590565b600080600080608085870312156132a5578182fd5b84356132b08161392f565b935060208501356132c08161392f565b925060408501359150606085013567ffffffffffffffff8111156132e2578182fd5b8501601f810187136132f2578182fd5b61330187823560208401612f15565b91505092959194509250565b6000806040838503121561331f578182fd5b823561332a8161392f565b915060208301358015158114613245578182fd5b60008060408385031215613350578182fd5b823561335b8161392f565b946020939093013593505050565b60006020828403121561337a578081fd5b81356001600160e01b031981168114610717578182fd5b60008060008060008060008060006101208a8c0312156133af578687fd5b893567ffffffffffffffff808211156133c6578889fd5b6133d28d838e016131dd565b9a5060208c01359150808211156133e7578889fd5b6133f38d838e016131dd565b995060408c0135915080821115613408578889fd5b6134148d838e016131dd565b985061342260608d01612f67565b975061343060808d01612f67565b965060a08c0135915080821115613445578586fd5b6134518d838e01612fd9565b955060c08c0135915080821115613466578485fd5b506134738c828d01613095565b93505060e08a013591506101008a013590509295985092959850929598565b6000602082840312156134a3578081fd5b5035919050565b6000815180845260208085019450808401835b838110156134f657815180516001600160a01b031688528301516001600160601b031683880152604090960195908201906001016134bd565b509495945050505050565b6000815180845260208085019450808401835b838110156134f657815187529582019590820190600101613514565b60008151808452613548816020860160208601613903565b601f01601f19169290920160200192915050565b6000825161356e818460208701613903565b637b69647d60e01b920191825250600401919050565b918252602082015260400190565b9586526020860194909452604085019290925260608085019190915260808401919091521b6bffffffffffffffffffffffff191660a082015260b40190565b6001600160a01b0391909116815260200190565b60006020825261071760208301846134aa565b60208082528251828201819052600091906040908185019080840286018301878501865b838110156136c757603f1989840301855281516060815181865261364282870182613530565b838b0151878203888d015280518083529193508b0191508a830190808c0284018c018d5b8281101561369457601f19868303018452613682828651613530565b948e0194938e01939150600101613666565b50948b0151888603898d0152946136ab8187613501565b9a8d019a98505050948a0194505050600191909101905061361c565b509098975050505050505050565b6000602082526107176020830184613501565b901515815260200190565b60008382526040602083015261189f60408301846134aa565b6000602082526107176020830184613530565b6020808252600a9082015269185b1b081b5a5b9d195960b21b604082015260600190565b6020808252818101527f526f79616c74792076616c75652073686f756c6420626520706f736974697665604082015260600190565b60208082526022908201527f6b65797320616e64207261726974696573206c656e677468206e6f7420657175604082015261185b60f21b606082015260800190565b60208082526021908201527f696e636f72726563742076616c7565206f6620746f6b656e7320746f206d696e6040820152601d60fa1b606082015260800190565b60208082526016908201527530b93a34b9ba1034b9903737ba1030b71037bbb732b960511b604082015260600190565b6020808252601f908201527f73756d206f72207261726974696573206e6f7420657175616c20313030303000604082015260600190565b6020808252600590820152643732bb32b960d91b604082015260600190565b6020808252601b908201527f526563697069656e742073686f756c642062652070726573656e740000000000604082015260600190565b90815260200190565b60405181810167ffffffffffffffff811182821017156138dd57fe5b604052919050565b600067ffffffffffffffff8211156138f957fe5b5060209081020190565b60005b8381101561391e578181015183820152602001613906565b83811115610e995750506000910152565b6001600160a01b038116811461153057600080fdfe456e756d657261626c655365743a20696e646578206f7574206f6620626f756e64734552433732313a207472616e7366657220746f206e6f6e20455243373231526563656976657220696d706c656d656e7465724f776e61626c653a206e6577206f776e657220697320746865207a65726f20616464726573734552433732313a207472616e7366657220746f20746865207a65726f20616464726573734552433732313a206f70657261746f7220717565727920666f72206e6f6e6578697374656e7420746f6b656e4552433732313a20617070726f76652063616c6c6572206973206e6f74206f776e6572206e6f7220617070726f76656420666f7220616c6c4552433732313a2062616c616e636520717565727920666f7220746865207a65726f20616464726573734552433732313a206f776e657220717565727920666f72206e6f6e6578697374656e7420746f6b656e496e697469616c697a61626c653a20636f6e747261637420697320616c726561647920696e697469616c697a6564456e756d657261626c654d61703a20696e646578206f7574206f6620626f756e64734552433732313a20617070726f76656420717565727920666f72206e6f6e6578697374656e7420746f6b656e4f70657261746f72526f6c653a2063616c6c6572206973206e6f7420746865206f70657261746f724552433732313a207472616e73666572206f6620746f6b656e2074686174206973206e6f74206f776e4552433732313a20617070726f76616c20746f2063757272656e74206f776e65724552433732313a207472616e736665722063616c6c6572206973206e6f74206f776e6572206e6f7220617070726f766564a264697066735822122088d00d5ca8b7d699c5fa3ac7c23efca1ec82fe20861465d9b9d0e7b331217bbe64736f6c63430007060033",
  "immutableReferences": {},
  "source": "// SPDX-License-Identifier: MIT\n\npragma solidity ^0.7.0;\npragma abicoder v2;\n\nimport \"@openzeppelin/contracts-upgradeable/access/OwnableUpgradeable.sol\";\nimport \"@openzeppelin/contracts-upgradeable/math/SafeMathUpgradeable.sol\";\n\nimport \"./interfaces/IERC721GenMint.sol\";\nimport \"./royalties/RoyaltiesV2GenImpl.sol\";\nimport \"./tokens/ERC721GenDefaultApproval.sol\";\nimport \"./tokens/ERC721GenOperatorRole.sol\";\nimport \"./traits/TraitsManager.sol\";\nimport \"./utils/AddAddrToURI.sol\";\n\ncontract ERC721Gen is OwnableUpgradeable, ERC721GenDefaultApproval, RoyaltiesV2GenImpl, TraitsManager, AddAddrToURI, ERC721GenOperatorRole, IERC721GenMint {\n    using SafeMathUpgradeable for uint;\n\n    event GenArtTotal(uint total);\n    event GenArtMint(uint tokenId);\n\n    //max amount of tokens in existance\n    uint public total;\n\n    //max amount of tokens to be minted in one transaction\n    uint public maxValue;\n\n    function __ERC721Gen_init(\n        string memory _name,\n        string memory _symbol,\n        string memory _baseURI,\n        address _transferProxy,\n        address _operatorProxy,\n        LibPart.Part[] memory _royalties,\n        Trait[] memory _traits,\n        uint _total,\n        uint _maxValue\n    ) external initializer {\n        _setBaseURI(addTokenAddrToBaseURI(_baseURI, address(this)));\n        __RoyaltiesV2Upgradeable_init_unchained();\n        __RoyaltiesV2GenImpl_init_unchained(_royalties);\n        __Context_init_unchained();\n        __ERC165_init_unchained();\n        __Ownable_init_unchained();\n        __ERC721_init_unchained(_name, _symbol);\n        __TraitsManager_init_unchained(_traits);\n        __ERC721GenDefaultApproval_init_unchained(_transferProxy);\n        __ERC721GenOperatorRole_init_unchained(_operatorProxy);\n        __ERC721Gen_init_unchained(_total, _maxValue);\n    }\n\n    function __ERC721Gen_init_unchained(uint _total, uint _maxValue) internal initializer {\n        maxValue = _maxValue;\n        total = _total;\n        emit GenArtTotal(total);\n    }\n\n    //mint \"value\" amount of tokens and transfer them to \"to\" address\n    function mint(address artist, address to, uint value) onlyOperator() override public {\n        require(value > 0 && value <= maxValue, \"incorrect value of tokens to mint\");\n        require(artist == owner(), \"artist is not an owner\");\n        require(super.totalSupply().add(value) <= total, \"all minted\");\n\n        for (uint i = 0; i < value; i ++) {\n            mintSingleToken(to, i);\n        }\n    }\n\n    //mint one token\n    function mintSingleToken(address to, uint seed) internal{\n        uint tokenId = random(seed, super.totalSupply(), to);\n        _mint(to, tokenId);\n        emit GenArtMint(tokenId);\n    }\n\n    function tokenURI(uint256) public view virtual override returns (string memory) {\n        return string(abi.encodePacked(baseURI(), \"{id}\"));\n    }\n\n    function getTokenTraits(uint tokenId) public view returns (uint[] memory) {\n        uint[] memory result = new uint[](traits.length);\n        for (uint i = 0; i < traits.length; i++) {\n            uint256 rnd = uint(keccak256(abi.encodePacked(tokenId, i)));\n            result[i] = getTraitValue(traits[i], rnd % 10000);\n        }\n        return result;\n    }\n\n    //close totalSupply() to external user\n    function totalSupply() public pure override returns (uint256) {\n        return 0;\n    }\n\n    uint256[50] private __gap;\n}\n",
  "sourcePath": "/home/quadro/Projects/rarible/generative-art/contracts/ERC721Gen.sol",
  "compiler": {
    "name": "solc",
    "version": "0.7.6+commit.7338295f.Emscripten.clang"
  },
  "schemaVersion": "3.4.3",
  "updatedAt": "2021-09-21T14:11:52.418Z",
  "devdoc": {
    "kind": "dev",
    "methods": {
      "approve(address,uint256)": {
        "details": "See {IERC721-approve}."
      },
      "balanceOf(address)": {
        "details": "See {IERC721-balanceOf}."
      },
      "baseURI()": {
        "details": "Returns the base URI set via {_setBaseURI}. This will be automatically added as a prefix in {tokenURI} to each token's URI, or to the token ID if no specific URI is set for that token ID."
      },
      "getApproved(uint256)": {
        "details": "See {IERC721-getApproved}."
      },
      "isApprovedForAll(address,address)": {
        "details": "See {IERC721-isApprovedForAll}."
      },
      "name()": {
        "details": "See {IERC721Metadata-name}."
      },
      "owner()": {
        "details": "Returns the address of the current owner."
      },
      "ownerOf(uint256)": {
        "details": "See {IERC721-ownerOf}."
      },
      "renounceOwnership()": {
        "details": "Leaves the contract without owner. It will not be possible to call `onlyOwner` functions anymore. Can only be called by the current owner. NOTE: Renouncing ownership will leave the contract without an owner, thereby removing any functionality that is only available to the owner."
      },
      "safeTransferFrom(address,address,uint256)": {
        "details": "See {IERC721-safeTransferFrom}."
      },
      "safeTransferFrom(address,address,uint256,bytes)": {
        "details": "See {IERC721-safeTransferFrom}."
      },
      "setApprovalForAll(address,bool)": {
        "details": "See {IERC721-setApprovalForAll}."
      },
      "supportsInterface(bytes4)": {
        "details": "See {IERC165-supportsInterface}. Time complexity O(1), guaranteed to always use less than 30 000 gas."
      },
      "symbol()": {
        "details": "See {IERC721Metadata-symbol}."
      },
      "tokenByIndex(uint256)": {
        "details": "See {IERC721Enumerable-tokenByIndex}."
      },
      "tokenOfOwnerByIndex(address,uint256)": {
        "details": "See {IERC721Enumerable-tokenOfOwnerByIndex}."
      },
      "totalSupply()": {
        "details": "See {IERC721Enumerable-totalSupply}."
      },
      "transferFrom(address,address,uint256)": {
        "details": "See {IERC721-transferFrom}."
      },
      "transferOwnership(address)": {
        "details": "Transfers ownership of the contract to a new account (`newOwner`). Can only be called by the current owner."
      }
    },
    "version": 1
  },
  "userdoc": {
    "kind": "user",
    "methods": {},
    "version": 1
  }
}