{
  "contractName": "ERC721Gen",
  "abi": [
    {
      "anonymous": false,
      "inputs": [
        {
          "indexed": true,
          "internalType": "address",
          "name": "owner",
          "type": "address"
        },
        {
          "indexed": true,
          "internalType": "address",
          "name": "approved",
          "type": "address"
        },
        {
          "indexed": true,
          "internalType": "uint256",
          "name": "tokenId",
          "type": "uint256"
        }
      ],
      "name": "Approval",
      "type": "event"
    },
    {
      "anonymous": false,
      "inputs": [
        {
          "indexed": true,
          "internalType": "address",
          "name": "owner",
          "type": "address"
        },
        {
          "indexed": true,
          "internalType": "address",
          "name": "operator",
          "type": "address"
        },
        {
          "indexed": false,
          "internalType": "bool",
          "name": "approved",
          "type": "bool"
        }
      ],
      "name": "ApprovalForAll",
      "type": "event"
    },
    {
      "anonymous": false,
      "inputs": [
        {
          "indexed": true,
          "internalType": "address",
          "name": "operator",
          "type": "address"
        },
        {
          "indexed": false,
          "internalType": "bool",
          "name": "hasApproval",
          "type": "bool"
        }
      ],
      "name": "DefaultApproval",
      "type": "event"
    },
    {
      "anonymous": false,
      "inputs": [
        {
          "indexed": false,
          "internalType": "uint256",
          "name": "tokenId",
          "type": "uint256"
        }
      ],
      "name": "GenArtMint",
      "type": "event"
    },
    {
      "anonymous": false,
      "inputs": [
        {
          "indexed": false,
          "internalType": "uint256",
          "name": "total",
          "type": "uint256"
        }
      ],
      "name": "GenArtTotal",
      "type": "event"
    },
    {
      "anonymous": false,
      "inputs": [
        {
          "indexed": true,
          "internalType": "address",
          "name": "previousOwner",
          "type": "address"
        },
        {
          "indexed": true,
          "internalType": "address",
          "name": "newOwner",
          "type": "address"
        }
      ],
      "name": "OwnershipTransferred",
      "type": "event"
    },
    {
      "anonymous": false,
      "inputs": [
        {
          "indexed": false,
          "internalType": "uint256",
          "name": "tokenId",
          "type": "uint256"
        },
        {
          "components": [
            {
              "internalType": "address payable",
              "name": "account",
              "type": "address"
            },
            {
              "internalType": "uint96",
              "name": "value",
              "type": "uint96"
            }
          ],
          "indexed": false,
          "internalType": "struct LibPart.Part[]",
          "name": "royalties",
          "type": "tuple[]"
        }
      ],
      "name": "RoyaltiesSet",
      "type": "event"
    },
    {
      "anonymous": false,
      "inputs": [
        {
          "components": [
            {
              "internalType": "uint256[]",
              "name": "rarities",
              "type": "uint256[]"
            }
          ],
          "indexed": false,
          "internalType": "struct Traits.Trait[]",
          "name": "traits",
          "type": "tuple[]"
        }
      ],
      "name": "TraitsSet",
      "type": "event"
    },
    {
      "anonymous": false,
      "inputs": [
        {
          "indexed": true,
          "internalType": "address",
          "name": "from",
          "type": "address"
        },
        {
          "indexed": true,
          "internalType": "address",
          "name": "to",
          "type": "address"
        },
        {
          "indexed": true,
          "internalType": "uint256",
          "name": "tokenId",
          "type": "uint256"
        }
      ],
      "name": "Transfer",
      "type": "event"
    },
    {
      "inputs": [
        {
          "internalType": "address",
          "name": "operator",
          "type": "address"
        }
      ],
      "name": "__ERC721GenOperatorRole_init",
      "outputs": [],
      "stateMutability": "nonpayable",
      "type": "function"
    },
    {
      "inputs": [
        {
          "internalType": "address",
          "name": "to",
          "type": "address"
        },
        {
          "internalType": "uint256",
          "name": "tokenId",
          "type": "uint256"
        }
      ],
      "name": "approve",
      "outputs": [],
      "stateMutability": "nonpayable",
      "type": "function"
    },
    {
      "inputs": [
        {
          "internalType": "address",
          "name": "owner",
          "type": "address"
        }
      ],
      "name": "balanceOf",
      "outputs": [
        {
          "internalType": "uint256",
          "name": "",
          "type": "uint256"
        }
      ],
      "stateMutability": "view",
      "type": "function",
      "constant": true
    },
    {
      "inputs": [],
      "name": "contractURI",
      "outputs": [
        {
          "internalType": "string",
          "name": "",
          "type": "string"
        }
      ],
      "stateMutability": "view",
      "type": "function",
      "constant": true
    },
    {
      "inputs": [
        {
          "internalType": "uint256",
          "name": "tokenId",
          "type": "uint256"
        }
      ],
      "name": "getApproved",
      "outputs": [
        {
          "internalType": "address",
          "name": "",
          "type": "address"
        }
      ],
      "stateMutability": "view",
      "type": "function",
      "constant": true
    },
    {
      "inputs": [],
      "name": "getPossibleTraits",
      "outputs": [
        {
          "components": [
            {
              "internalType": "uint256[]",
              "name": "rarities",
              "type": "uint256[]"
            }
          ],
          "internalType": "struct Traits.Trait[]",
          "name": "",
          "type": "tuple[]"
        }
      ],
      "stateMutability": "view",
      "type": "function",
      "constant": true
    },
    {
      "inputs": [
        {
          "internalType": "uint256",
          "name": "",
          "type": "uint256"
        }
      ],
      "name": "getRaribleV2Royalties",
      "outputs": [
        {
          "components": [
            {
              "internalType": "address payable",
              "name": "account",
              "type": "address"
            },
            {
              "internalType": "uint96",
              "name": "value",
              "type": "uint96"
            }
          ],
          "internalType": "struct LibPart.Part[]",
          "name": "",
          "type": "tuple[]"
        }
      ],
      "stateMutability": "view",
      "type": "function",
      "constant": true
    },
    {
      "inputs": [
        {
          "internalType": "address",
          "name": "owner",
          "type": "address"
        },
        {
          "internalType": "address",
          "name": "operator",
          "type": "address"
        }
      ],
      "name": "isApprovedForAll",
      "outputs": [
        {
          "internalType": "bool",
          "name": "",
          "type": "bool"
        }
      ],
      "stateMutability": "view",
      "type": "function",
      "constant": true
    },
    {
      "inputs": [],
      "name": "maxValue",
      "outputs": [
        {
          "internalType": "uint256",
          "name": "",
          "type": "uint256"
        }
      ],
      "stateMutability": "view",
      "type": "function",
      "constant": true
    },
    {
      "inputs": [],
      "name": "name",
      "outputs": [
        {
          "internalType": "string",
          "name": "",
          "type": "string"
        }
      ],
      "stateMutability": "view",
      "type": "function",
      "constant": true
    },
    {
      "inputs": [],
      "name": "owner",
      "outputs": [
        {
          "internalType": "address",
          "name": "",
          "type": "address"
        }
      ],
      "stateMutability": "view",
      "type": "function",
      "constant": true
    },
    {
      "inputs": [
        {
          "internalType": "uint256",
          "name": "tokenId",
          "type": "uint256"
        }
      ],
      "name": "ownerOf",
      "outputs": [
        {
          "internalType": "address",
          "name": "",
          "type": "address"
        }
      ],
      "stateMutability": "view",
      "type": "function",
      "constant": true
    },
    {
      "inputs": [],
      "name": "renounceOwnership",
      "outputs": [],
      "stateMutability": "nonpayable",
      "type": "function"
    },
    {
      "inputs": [
        {
          "internalType": "address",
          "name": "from",
          "type": "address"
        },
        {
          "internalType": "address",
          "name": "to",
          "type": "address"
        },
        {
          "internalType": "uint256",
          "name": "tokenId",
          "type": "uint256"
        }
      ],
      "name": "safeTransferFrom",
      "outputs": [],
      "stateMutability": "nonpayable",
      "type": "function"
    },
    {
      "inputs": [
        {
          "internalType": "address",
          "name": "from",
          "type": "address"
        },
        {
          "internalType": "address",
          "name": "to",
          "type": "address"
        },
        {
          "internalType": "uint256",
          "name": "tokenId",
          "type": "uint256"
        },
        {
          "internalType": "bytes",
          "name": "_data",
          "type": "bytes"
        }
      ],
      "name": "safeTransferFrom",
      "outputs": [],
      "stateMutability": "nonpayable",
      "type": "function"
    },
    {
      "inputs": [
        {
          "internalType": "address",
          "name": "operator",
          "type": "address"
        },
        {
          "internalType": "bool",
          "name": "approved",
          "type": "bool"
        }
      ],
      "name": "setApprovalForAll",
      "outputs": [],
      "stateMutability": "nonpayable",
      "type": "function"
    },
    {
      "inputs": [
        {
          "internalType": "bytes4",
          "name": "interfaceId",
          "type": "bytes4"
        }
      ],
      "name": "supportsInterface",
      "outputs": [
        {
          "internalType": "bool",
          "name": "",
          "type": "bool"
        }
      ],
      "stateMutability": "view",
      "type": "function",
      "constant": true
    },
    {
      "inputs": [],
      "name": "symbol",
      "outputs": [
        {
          "internalType": "string",
          "name": "",
          "type": "string"
        }
      ],
      "stateMutability": "view",
      "type": "function",
      "constant": true
    },
    {
      "inputs": [],
      "name": "total",
      "outputs": [
        {
          "internalType": "uint256",
          "name": "",
          "type": "uint256"
        }
      ],
      "stateMutability": "view",
      "type": "function",
      "constant": true
    },
    {
      "inputs": [
        {
          "internalType": "address",
          "name": "from",
          "type": "address"
        },
        {
          "internalType": "address",
          "name": "to",
          "type": "address"
        },
        {
          "internalType": "uint256",
          "name": "tokenId",
          "type": "uint256"
        }
      ],
      "name": "transferFrom",
      "outputs": [],
      "stateMutability": "nonpayable",
      "type": "function"
    },
    {
      "inputs": [
        {
          "internalType": "address",
          "name": "newOwner",
          "type": "address"
        }
      ],
      "name": "transferOwnership",
      "outputs": [],
      "stateMutability": "nonpayable",
      "type": "function"
    },
    {
      "inputs": [
        {
          "internalType": "string",
          "name": "_name",
          "type": "string"
        },
        {
          "internalType": "string",
          "name": "_symbol",
          "type": "string"
        },
        {
          "internalType": "string",
          "name": "_baseURI",
          "type": "string"
        },
        {
          "internalType": "address",
          "name": "_transferProxy",
          "type": "address"
        },
        {
          "internalType": "address",
          "name": "_operatorProxy",
          "type": "address"
        },
        {
          "components": [
            {
              "internalType": "address payable",
              "name": "account",
              "type": "address"
            },
            {
              "internalType": "uint96",
              "name": "value",
              "type": "uint96"
            }
          ],
          "internalType": "struct LibPart.Part[]",
          "name": "_royalties",
          "type": "tuple[]"
        },
        {
          "components": [
            {
              "internalType": "uint256[]",
              "name": "rarities",
              "type": "uint256[]"
            }
          ],
          "internalType": "struct Traits.Trait[]",
          "name": "_traits",
          "type": "tuple[]"
        },
        {
          "internalType": "uint256",
          "name": "_total",
          "type": "uint256"
        },
        {
          "internalType": "uint256",
          "name": "_maxValue",
          "type": "uint256"
        }
      ],
      "name": "__ERC721Gen_init",
      "outputs": [],
      "stateMutability": "nonpayable",
      "type": "function"
    },
    {
      "inputs": [
        {
          "internalType": "address",
          "name": "artist",
          "type": "address"
        },
        {
          "internalType": "address",
          "name": "to",
          "type": "address"
        },
        {
          "internalType": "uint256",
          "name": "value",
          "type": "uint256"
        }
      ],
      "name": "mint",
      "outputs": [],
      "stateMutability": "nonpayable",
      "type": "function"
    },
    {
      "inputs": [
        {
          "internalType": "uint256",
          "name": "tokenId",
          "type": "uint256"
        }
      ],
      "name": "tokenURI",
      "outputs": [
        {
          "internalType": "string",
          "name": "",
          "type": "string"
        }
      ],
      "stateMutability": "view",
      "type": "function",
      "constant": true
    },
    {
      "inputs": [
        {
          "internalType": "uint256",
          "name": "tokenId",
          "type": "uint256"
        }
      ],
      "name": "getTokenTraits",
      "outputs": [
        {
          "internalType": "uint256[]",
          "name": "",
          "type": "uint256[]"
        }
      ],
      "stateMutability": "view",
      "type": "function",
      "constant": true
    }
  ],
  "bytecode": "0x608060405234801561001057600080fd5b506131da806100206000396000f3fe608060405234801561001057600080fd5b50600436106101735760003560e01c80638da5cb5b116100de578063c6c3bbe611610097578063d94dea8911610071578063d94dea891461031e578063e8a3d48514610333578063e985e9c51461033b578063f2fde38b1461034e57610173565b8063c6c3bbe6146102d8578063c87b56dd146102eb578063cad96cca146102fe57610173565b80638da5cb5b1461027a57806394a5c2e41461028257806394e568471461028a57806395d89b41146102aa578063a22cb465146102b2578063b88d4fde146102c557610173565b806323b872dd1161013057806323b872dd146102115780632ddbd13a1461022457806342842e0e146102395780636352211e1461024c57806370a082311461025f578063715018a61461027257610173565b806301ffc9a71461017857806306fdde03146101a1578063081812fc146101b6578063095ea7b3146101d6578063098a962d146101eb57806316cc2df8146101fe575b600080fd5b61018b610186366004612a0c565b610361565b6040516101989190612d46565b60405180910390f35b6101a9610384565b6040516101989190612d6a565b6101c96101c4366004612b35565b61041a565b6040516101989190612ca4565b6101e96101e43660046129e1565b61047c565b005b6101e96101f9366004612a34565b610552565b6101e961020c36600461289f565b61065e565b6101e961021f3660046128f3565b61071a565b61022c610771565b6040516101989190612f14565b6101e96102473660046128f3565b610778565b6101c961025a366004612b35565b610793565b61022c61026d36600461289f565b6107ed565b6101e9610850565b6101c961090e565b61022c61091d565b61029d610298366004612b35565b610924565b6040516101989190612d33565b6101a9610a32565b6101e96102c03660046129b0565b610a93565b6101e96102d3366004612933565b610b98565b6101e96102e63660046128f3565b610bf6565b6101a96102f9366004612b35565b610d30565b61031161030c366004612b35565b610d5b565b6040516101989190612cb8565b610326610dda565b6040516101989190612ccb565b6101a9610e84565b61018b6103493660046128bb565b610f13565b6101e961035c36600461289f565b610f46565b6001600160e01b0319811660009081526065602052604090205460ff165b919050565b60978054604080516020601f60026000196101006001881615020190951694909404938401819004810282018101909252828152606093909290918301828280156104105780601f106103e557610100808354040283529160200191610410565b820191906000526020600020905b8154815290600101906020018083116103f357829003601f168201915b5050505050905090565b60006104258261105b565b6104605760405162461bcd60e51b815260040180806020018281038252602c8152602001806130d6602c913960400191505060405180910390fd5b506000908152609b60205260409020546001600160a01b031690565b600061048782610793565b9050806001600160a01b0316836001600160a01b031614156104da5760405162461bcd60e51b81526004018080602001828103825260218152602001806131536021913960400191505060405180910390fd5b806001600160a01b03166104ec611078565b6001600160a01b03161480610508575061050881610349611078565b6105435760405162461bcd60e51b815260040180806020018281038252603881526020018061301d6038913960400191505060405180910390fd5b61054d838361107c565b505050565b600054610100900460ff168061056b575061056b6110ea565b80610579575060005460ff16155b6105b45760405162461bcd60e51b815260040180806020018281038252602e8152602001806130a8602e913960400191505060405180910390fd5b600054610100900460ff161580156105df576000805460ff1961ff0019909116610100171660011790555b6105e8886110fb565b6105f0611276565b6105f985611328565b6106016113be565b61060961145e565b6106116114fb565b61061b8a8a6115f4565b610624846116df565b61062d8761188f565b6106368661198f565b6106408383611a55565b8015610652576000805461ff00191690555b50505050505050505050565b600054610100900460ff168061067757506106776110ea565b80610685575060005460ff16155b6106c05760405162461bcd60e51b815260040180806020018281038252602e8152602001806130a8602e913960400191505060405180910390fd5b600054610100900460ff161580156106eb576000805460ff1961ff0019909116610100171660011790555b6106f36113be565b6106fb6114fb565b6107048261198f565b8015610716576000805461ff00191690555b5050565b61072b610725611078565b82611b3c565b6107665760405162461bcd60e51b81526004018080602001828103825260318152602001806131746031913960400191505060405180910390fd5b61054d838383611b68565b6101fa5481565b61054d83838360405180602001604052806000815250610b98565b6000818152609960205260408120546001600160a01b0316806107e75760405162461bcd60e51b815260040180806020018281038252602981526020018061307f6029913960400191505060405180910390fd5b92915050565b60006001600160a01b0382166108345760405162461bcd60e51b815260040180806020018281038252602a815260200180613055602a913960400191505060405180910390fd5b506001600160a01b03166000908152609a602052604090205490565b610858611078565b6001600160a01b031661086961090e565b6001600160a01b0316146108c4576040805162461bcd60e51b815260206004820181905260248201527f4f776e61626c653a2063616c6c6572206973206e6f7420746865206f776e6572604482015290519081900360640190fd5b6033546040516000916001600160a01b0316907f8be0079c531659141344cd1fd0a4f28419497f9722a3daafe3b4186f6b6457e0908390a3603380546001600160a01b0319169055565b6033546001600160a01b031690565b6101fb5481565b6101945460609060009067ffffffffffffffff8111801561094457600080fd5b5060405190808252806020026020018201604052801561096e578160200160208202803683370190505b50905060005b61019454811015610a2b57610a0c610194828154811061099057fe5b90600052602060002001604051806020016040529081600082018054806020026020016040519081016040528092919081815260200182805480156109f457602002820191906000526020600020905b8154815260200190600101908083116109e0575b505050505081525050610a078684611c98565b611cd8565b828281518110610a1857fe5b6020908102919091010152600101610974565b5092915050565b60988054604080516020601f60026000196101006001881615020190951694909404938401819004810282018101909252828152606093909290918301828280156104105780601f106103e557610100808354040283529160200191610410565b610a9b611078565b6001600160a01b0316826001600160a01b03161415610b01576040805162461bcd60e51b815260206004820152601960248201527f4552433732313a20617070726f766520746f2063616c6c657200000000000000604482015290519081900360640190fd5b80609c6000610b0e611078565b6001600160a01b03908116825260208083019390935260409182016000908120918716808252919093529120805460ff191692151592909217909155610b52611078565b6001600160a01b03167f17307eab39ab6107e8899845ad3d59bd9653f200f220920489ca2b5937696c318360405180821515815260200191505060405180910390a35050565b610ba9610ba3611078565b83611b3c565b610be45760405162461bcd60e51b81526004018080602001828103825260318152602001806131746031913960400191505060405180910390fd5b610bf084848484611d33565b50505050565b6101c76000610c03611078565b6001600160a01b0316815260208101919091526040016000205460ff16610c5b5760405162461bcd60e51b81526004018080602001828103825260288152602001806131026028913960400191505060405180910390fd5b600081118015610c6e57506101fb548111155b610c935760405162461bcd60e51b8152600401610c8a90612e16565b60405180910390fd5b610c9b61090e565b6001600160a01b0316836001600160a01b031614610ccb5760405162461bcd60e51b8152600401610c8a90612e57565b6101fc546101fa54610cdd8284611d85565b1115610cfb5760405162461bcd60e51b8152600401610c8a90612dbd565b60005b82811015610d1b57610d138182840186611ddf565b600101610cfe565b50610d268183611d85565b6101fc5550505050565b606061012e604051602001610d459190612bd3565b6040516020818303038152906040529050919050565b6060610161805480602002602001604051908101604052809291908181526020016000905b82821015610dcf57600084815260209081902060408051808201909152908401546001600160a01b0381168252600160a01b90046001600160601b031681830152825260019092019101610d80565b505050509050919050565b6060610194805480602002602001604051908101604052809291908181526020016000905b82821015610e7b57600084815260209081902060408051918501805480850284018301835293830184815292939092849290918491840182828015610e6357602002820191906000526020600020905b815481526020019060010190808311610e4f575b50505050508152505081526020019060010190610dff565b50505050905090565b61012e805460408051602060026001851615610100026000190190941693909304601f81018490048402820184019092528181529291830182828015610f0b5780601f10610ee057610100808354040283529160200191610f0b565b820191906000526020600020905b815481529060010190602001808311610eee57829003601f168201915b505050505081565b6001600160a01b038116600090815260c9602052604081205460ff1680610f3f5750610f3f8383611e35565b9392505050565b610f4e611078565b6001600160a01b0316610f5f61090e565b6001600160a01b031614610fba576040805162461bcd60e51b815260206004820181905260248201527f4f776e61626c653a2063616c6c6572206973206e6f7420746865206f776e6572604482015290519081900360640190fd5b6001600160a01b038116610fff5760405162461bcd60e51b8152600401808060200182810382526026815260200180612fa76026913960400191505060405180910390fd5b6033546040516001600160a01b038084169216907f8be0079c531659141344cd1fd0a4f28419497f9722a3daafe3b4186f6b6457e090600090a3603380546001600160a01b0319166001600160a01b0392909216919091179055565b6000908152609960205260409020546001600160a01b0316151590565b3390565b6000818152609b6020526040902080546001600160a01b0319166001600160a01b03841690811790915581906110b182610793565b6001600160a01b03167f8c5be1e5ebec7d5bd14f71427d1e84f3dd0314c0f7b2291e5b200ac8c7c3b92560405160405180910390a45050565b60006110f530611e63565b15905090565b600054610100900460ff168061111457506111146110ea565b80611122575060005460ff16155b61115d5760405162461bcd60e51b815260040180806020018281038252602e8152602001806130a8602e913960400191505060405180910390fd5b600054610100900460ff16158015611188576000805460ff1961ff0019909116610100171660011790555b8161119230611e69565b6040516020018083805190602001908083835b602083106111c45780518252601f1990920191602091820191016111a5565b51815160209384036101000a600019018019909216911617905261060f60f31b919093019081528451600290910192850191508083835b6020831061121a5780518252601f1990920191602091820191016111fb565b6001836020036101000a0380198251168184511680821785525050505050509050019250505060405160208183030381529060405261012e9080519060200190611265929190612580565b5061070463e8a3d48560e01b611f57565b600054610100900460ff168061128f575061128f6110ea565b8061129d575060005460ff16155b6112d85760405162461bcd60e51b815260040180806020018281038252602e8152602001806130a8602e913960400191505060405180910390fd5b600054610100900460ff16158015611303576000805460ff1961ff0019909116610100171660011790555b61131363656cb66560e11b611f57565b8015611325576000805461ff00191690555b50565b600054610100900460ff168061134157506113416110ea565b8061134f575060005460ff16155b61138a5760405162461bcd60e51b815260040180806020018281038252602e8152602001806130a8602e913960400191505060405180910390fd5b600054610100900460ff161580156113b5576000805460ff1961ff0019909116610100171660011790555b61070482611fdb565b600054610100900460ff16806113d757506113d76110ea565b806113e5575060005460ff16155b6114205760405162461bcd60e51b815260040180806020018281038252602e8152602001806130a8602e913960400191505060405180910390fd5b600054610100900460ff16158015611313576000805460ff1961ff0019909116610100171660011790558015611325576000805461ff001916905550565b600054610100900460ff168061147757506114776110ea565b80611485575060005460ff16155b6114c05760405162461bcd60e51b815260040180806020018281038252602e8152602001806130a8602e913960400191505060405180910390fd5b600054610100900460ff161580156114eb576000805460ff1961ff0019909116610100171660011790555b6113136301ffc9a760e01b611f57565b600054610100900460ff168061151457506115146110ea565b80611522575060005460ff16155b61155d5760405162461bcd60e51b815260040180806020018281038252602e8152602001806130a8602e913960400191505060405180910390fd5b600054610100900460ff16158015611588576000805460ff1961ff0019909116610100171660011790555b6000611592611078565b603380546001600160a01b0319166001600160a01b038316908117909155604051919250906000907f8be0079c531659141344cd1fd0a4f28419497f9722a3daafe3b4186f6b6457e0908290a3508015611325576000805461ff001916905550565b600054610100900460ff168061160d575061160d6110ea565b8061161b575060005460ff16155b6116565760405162461bcd60e51b815260040180806020018281038252602e8152602001806130a8602e913960400191505060405180910390fd5b600054610100900460ff16158015611681576000805460ff1961ff0019909116610100171660011790555b8251611694906097906020860190612580565b5081516116a8906098906020850190612580565b506116b96380ac58cd60e01b611f57565b6116c9635b5e139f60e01b611f57565b801561054d576000805461ff0019169055505050565b600054610100900460ff16806116f857506116f86110ea565b80611706575060005460ff16155b6117415760405162461bcd60e51b815260040180806020018281038252602e8152602001806130a8602e913960400191505060405180910390fd5b600054610100900460ff1615801561176c576000805460ff1961ff0019909116610100171660011790555b60005b825181101561184257600083828151811061178657fe5b60209081029190910181015161019480546001810182556000919091528151805192945084937fa6f1ac7ad7b125ba5a5e1c96b00ad6914f90a503b1ac3d85a9dadbb4c639df92909201926117de928492019061260c565b5050506000805b8251518110156118165782518051829081106117fd57fe5b60200260200101518201915080806001019150506117e5565b5080612710146118385760405162461bcd60e51b8152600401610c8a90612e87565b505060010161176f565b507f5bb6fad75e08c8309577a2c72a1b01faaf1fc90e28009a893d6fe67d5935a016826040516118729190612ccb565b60405180910390a18015610716576000805461ff00191690555050565b600054610100900460ff16806118a857506118a86110ea565b806118b6575060005460ff16155b6118f15760405162461bcd60e51b815260040180806020018281038252602e8152602001806130a8602e913960400191505060405180910390fd5b600054610100900460ff1615801561191c576000805460ff1961ff0019909116610100171660011790555b6001600160a01b038216600081815260c96020908152604091829020805460ff19166001908117909155825181815292519093927f270dbb8ba4292910ae92862466486be25c355c837270a3d8824b36a8bc7c653b92908290030190a2508015610716576000805461ff00191690555050565b600054610100900460ff16806119a857506119a86110ea565b806119b6575060005460ff16155b6119f15760405162461bcd60e51b815260040180806020018281038252602e8152602001806130a8602e913960400191505060405180910390fd5b600054610100900460ff16158015611a1c576000805460ff1961ff0019909116610100171660011790555b6001600160a01b03821660009081526101c760205260409020805460ff191660011790558015610716576000805461ff00191690555050565b600054610100900460ff1680611a6e5750611a6e6110ea565b80611a7c575060005460ff16155b611ab75760405162461bcd60e51b815260040180806020018281038252602e8152602001806130a8602e913960400191505060405180910390fd5b600054610100900460ff16158015611ae2576000805460ff1961ff0019909116610100171660011790555b6101fb8290556101fa8390556040517fea649c7d539c2dc5f4bba029cd2bb737d28e5ddc740ef5a3779365e9c85bc49590611b1e908590612f14565b60405180910390a1801561054d576000805461ff0019169055505050565b6001600160a01b038216600090815260c9602052604081205460ff1680610f3f5750610f3f83836120e8565b826001600160a01b0316611b7b82610793565b6001600160a01b031614611bc05760405162461bcd60e51b815260040180806020018281038252602981526020018061312a6029913960400191505060405180910390fd5b6001600160a01b038216611c055760405162461bcd60e51b8152600401808060200182810382526024815260200180612fcd6024913960400191505060405180910390fd5b611c1083838361054d565b611c1b60008261107c565b6001600160a01b038084166000818152609a60209081526040808320805460001901905593861680835284832080546001019055858352609990915283822080546001600160a01b031916821790559251849392917fddf252ad1be2c89b69c2b068fc378daa952ba7f163c4a11628f55a4df523b3ef91a4505050565b60006127108383604051602001611cb0929190612c57565b6040516020818303038152906040528051906020012060001c81611cd057fe5b069392505050565b600080805b845151811015611d1a578451805182908110611cf557fe5b60200260200101518201915081841015611d125791506107e79050565b600101611cdd565b5060405162461bcd60e51b8152600401610c8a90612ebe565b611d3e848484611b68565b611d4a8484848461218c565b610bf05760405162461bcd60e51b8152600401808060200182810382526032815260200180612f756032913960400191505060405180910390fd5b600082820183811015610f3f576040805162461bcd60e51b815260206004820152601b60248201527f536166654d6174683a206164646974696f6e206f766572666c6f770000000000604482015290519081900360640190fd5b6000611dec848484612341565b9050611df8828261237e565b7f8d3aae9c05226dccdfc3b5a6adf19d15da201e24f67769c60c4585f5baf1ada081604051611e279190612f14565b60405180910390a150505050565b6001600160a01b039182166000908152609c6020908152604080832093909416825291909152205460ff1690565b3b151590565b60408051602880825260608281019093526000919060208201818036833701905050905060005b6014811015610a2b5760008160130360080260020a856001600160a01b031681611eb657fe5b0460f81b9050600060108260f81c60ff1681611ece57fe5b0460f81b905060008160f81c6010028360f81c0360f81b9050611ef082612487565b858560020281518110611eff57fe5b60200101906001600160f81b031916908160001a905350611f1f81612487565b858560020260010181518110611f3157fe5b60200101906001600160f81b031916908160001a9053505060019092019150611e909050565b6001600160e01b03198082161415611fb6576040805162461bcd60e51b815260206004820152601c60248201527f4552433136353a20696e76616c696420696e7465726661636520696400000000604482015290519081900360640190fd5b6001600160e01b0319166000908152606560205260409020805460ff19166001179055565b60005b81518110156120de5760006001600160a01b0316828281518110611ffe57fe5b6020026020010151600001516001600160a01b031614156120315760405162461bcd60e51b8152600401610c8a90612edd565b81818151811061203d57fe5b6020026020010151602001516001600160601b0316600014156120725760405162461bcd60e51b8152600401610c8a90612de1565b61016182828151811061208157fe5b60209081029190910181015182546001818101855560009485529383902082519101805492909301516001600160601b0316600160a01b026001600160a01b039182166001600160a01b0319909316929092171617905501611fde565b50611325816124b8565b60006120f38261105b565b61212e5760405162461bcd60e51b815260040180806020018281038252602c815260200180612ff1602c913960400191505060405180910390fd5b600061213983610793565b9050806001600160a01b0316846001600160a01b031614806121745750836001600160a01b03166121698461041a565b6001600160a01b0316145b8061218457506121848185610f13565b949350505050565b60006121a0846001600160a01b0316611e63565b1561233657836001600160a01b031663150b7a026121bc611078565b8786866040518563ffffffff1660e01b815260040180856001600160a01b03168152602001846001600160a01b0316815260200183815260200180602001828103825283818151815260200191508051906020019080838360005b8381101561222f578181015183820152602001612217565b50505050905090810190601f16801561225c5780820380516001836020036101000a031916815260200191505b5095505050505050602060405180830381600087803b15801561227e57600080fd5b505af19250505080156122a357506040513d602081101561229e57600080fd5b505160015b61231c573d8080156122d1576040519150601f19603f3d011682016040523d82523d6000602084013e6122d6565b606091505b5080516123145760405162461bcd60e51b8152600401808060200182810382526032815260200180612f756032913960400191505060405180910390fd5b805181602001fd5b6001600160e01b031916630a85bd0160e11b149050612184565b506001949350505050565b600083424344868660405160200161235e96959493929190612c65565b60408051601f198184030181529190528051602090910120949350505050565b6001600160a01b0382166123d9576040805162461bcd60e51b815260206004820181905260248201527f4552433732313a206d696e7420746f20746865207a65726f2061646472657373604482015290519081900360640190fd5b6123e28161105b565b15612434576040805162461bcd60e51b815260206004820152601c60248201527f4552433732313a20746f6b656e20616c7265616479206d696e74656400000000604482015290519081900360640190fd5b6124406000838361054d565b6001600160a01b0382166000818152609a60209081526040808320805460010190558483526099909152902080546001600160a01b031916909117905561071682826124f5565b6000600a60f883901c10156124a7578160f81c60300160f81b905061037f565b8160f81c60570160f81b905061037f565b7f3fa96d7b6bcbfe71ef171666d84db3cf52fa2d1c8afdb1cc8e486177f208b7df6000826040516124ea929190612d51565b60405180910390a150565b60006124ff61090e565b60405190915082906001600160a01b038316906000907fddf252ad1be2c89b69c2b068fc378daa952ba7f163c4a11628f55a4df523b3ef908290a481836001600160a01b0316826001600160a01b03167fddf252ad1be2c89b69c2b068fc378daa952ba7f163c4a11628f55a4df523b3ef60405160405180910390a4505050565b828054600181600116156101000203166002900490600052602060002090601f0160209004810192826125b657600085556125fc565b82601f106125cf57805160ff19168380011785556125fc565b828001600101855582156125fc579182015b828111156125fc5782518255916020019190600101906125e1565b50612608929150612646565b5090565b8280548282559060005260206000209081019282156125fc57916020028201828111156125fc5782518255916020019190600101906125e1565b5b808211156126085760008155600101612647565b600067ffffffffffffffff83111561266f57fe5b612682601f8401601f1916602001612f1d565b905082815283838301111561269657600080fd5b828260208301376000602084830101529392505050565b803561037f81612f5f565b600082601f8301126126c8578081fd5b813560206126dd6126d883612f41565b612f1d565b828152818101908583016040808602880185018910156126fb578687fd5b865b8681101561276b5781838b031215612713578788fd5b815182810181811067ffffffffffffffff8211171561272e57fe5b8352833561273b81612f5f565b8152838701356001600160601b038116811461275557898afd5b81880152855293850193918101916001016126fd565b509198975050505050505050565b600082601f830112612789578081fd5b813560206127996126d883612f41565b82815281810190858301855b85811015612873578135880185601f19828c030112156127c3578788fd5b6040805187810167ffffffffffffffff82821081831117156127e157fe5b9083528389013590808211156127f5578b8cfd5b508084019350508b603f84011261280a57898afd5b8783013561281a6126d882612f41565b808282528a820191508486018f868d86028901011115612838578d8efd5b8d96505b8387101561285a578035835260019690960195918b01918b0161283c565b50835250508652505092840192908401906001016127a5565b5090979650505050505050565b600082601f830112612890578081fd5b610f3f8383356020850161265b565b6000602082840312156128b0578081fd5b8135610f3f81612f5f565b600080604083850312156128cd578081fd5b82356128d881612f5f565b915060208301356128e881612f5f565b809150509250929050565b600080600060608486031215612907578081fd5b833561291281612f5f565b9250602084013561292281612f5f565b929592945050506040919091013590565b60008060008060808587031215612948578081fd5b843561295381612f5f565b9350602085013561296381612f5f565b925060408501359150606085013567ffffffffffffffff811115612985578182fd5b8501601f81018713612995578182fd5b6129a48782356020840161265b565b91505092959194509250565b600080604083850312156129c2578182fd5b82356129cd81612f5f565b9150602083013580151581146128e8578182fd5b600080604083850312156129f3578182fd5b82356129fe81612f5f565b946020939093013593505050565b600060208284031215612a1d578081fd5b81356001600160e01b031981168114610f3f578182fd5b60008060008060008060008060006101208a8c031215612a52578687fd5b893567ffffffffffffffff80821115612a69578889fd5b612a758d838e01612880565b9a5060208c0135915080821115612a8a578889fd5b612a968d838e01612880565b995060408c0135915080821115612aab578889fd5b612ab78d838e01612880565b9850612ac560608d016126ad565b9750612ad360808d016126ad565b965060a08c0135915080821115612ae8578586fd5b612af48d838e016126b8565b955060c08c0135915080821115612b09578485fd5b50612b168c828d01612779565b93505060e08a013591506101008a013590509295985092959850929598565b600060208284031215612b46578081fd5b5035919050565b6000815180845260208085019450808401835b83811015612b9957815180516001600160a01b031688528301516001600160601b03168388015260409096019590820190600101612b60565b509495945050505050565b6000815180845260208085019450808401835b83811015612b9957815187529582019590820190600101612bb7565b6000808354600180821660008114612bf25760018114612c0957612c38565b60ff198316865260028304607f1686019350612c38565b600283048786526020808720875b83811015612c305781548a820152908501908201612c17565b505050860193505b50602f60f81b8352637b69647d60e01b90830152506005019392505050565b918252602082015260400190565b9586526020860194909452604085019290925260608085019190915260808401919091521b6bffffffffffffffffffffffff191660a082015260b40190565b6001600160a01b0391909116815260200190565b600060208252610f3f6020830184612b4d565b6000602080830181845280855180835260408601915060408482028701019250838701855b82811015612d2657878503603f19018452815151868652612d1387870182612ba4565b9550509285019290850190600101612cf0565b5092979650505050505050565b600060208252610f3f6020830184612ba4565b901515815260200190565b6000838252604060208301526121846040830184612b4d565b6000602080835283518082850152825b81811015612d9657858101830151858201604001528201612d7a565b81811115612da75783604083870101525b50601f01601f1916929092016040019392505050565b6020808252600a9082015269185b1b081b5a5b9d195960b21b604082015260600190565b6020808252818101527f526f79616c74792076616c75652073686f756c6420626520706f736974697665604082015260600190565b60208082526021908201527f696e636f72726563742076616c7565206f6620746f6b656e7320746f206d696e6040820152601d60fa1b606082015260800190565b60208082526016908201527530b93a34b9ba1034b9903737ba1030b71037bbb732b960511b604082015260600190565b6020808252601f908201527f73756d206f72207261726974696573206e6f7420657175616c20313030303000604082015260600190565b6020808252600590820152643732bb32b960d91b604082015260600190565b6020808252601b908201527f526563697069656e742073686f756c642062652070726573656e740000000000604082015260600190565b90815260200190565b60405181810167ffffffffffffffff81118282101715612f3957fe5b604052919050565b600067ffffffffffffffff821115612f5557fe5b5060209081020190565b6001600160a01b038116811461132557600080fdfe4552433732313a207472616e7366657220746f206e6f6e20455243373231526563656976657220696d706c656d656e7465724f776e61626c653a206e6577206f776e657220697320746865207a65726f20616464726573734552433732313a207472616e7366657220746f20746865207a65726f20616464726573734552433732313a206f70657261746f7220717565727920666f72206e6f6e6578697374656e7420746f6b656e4552433732313a20617070726f76652063616c6c6572206973206e6f74206f776e6572206e6f7220617070726f76656420666f7220616c6c4552433732313a2062616c616e636520717565727920666f7220746865207a65726f20616464726573734552433732313a206f776e657220717565727920666f72206e6f6e6578697374656e7420746f6b656e496e697469616c697a61626c653a20636f6e747261637420697320616c726561647920696e697469616c697a65644552433732313a20617070726f76656420717565727920666f72206e6f6e6578697374656e7420746f6b656e4f70657261746f72526f6c653a2063616c6c6572206973206e6f7420746865206f70657261746f724552433732313a207472616e73666572206f6620746f6b656e2074686174206973206e6f74206f776e4552433732313a20617070726f76616c20746f2063757272656e74206f776e65724552433732313a207472616e736665722063616c6c6572206973206e6f74206f776e6572206e6f7220617070726f766564a26469706673582212209a7dabb6b39e4665a45dfd12ff32178c7c5f2e2da338fc75d0d7d12f5745b0de64736f6c63430007060033",
  "immutableReferences": {},
  "source": "// SPDX-License-Identifier: MIT\n\npragma solidity ^0.7.0;\npragma abicoder v2;\n\nimport \"@openzeppelin/contracts-upgradeable/access/OwnableUpgradeable.sol\";\nimport \"@openzeppelin/contracts-upgradeable/math/SafeMathUpgradeable.sol\";\n\nimport \"./interfaces/IERC721GenMint.sol\";\nimport \"./royalties/RoyaltiesV2GenImpl.sol\";\nimport \"./tokens/ERC721GenDefaultApproval.sol\";\nimport \"./tokens/ERC721GenOperatorRole.sol\";\nimport \"./tokens/HasContractURI.sol\";\n\nimport \"./traits/TraitsManager.sol\";\n\ncontract ERC721Gen is OwnableUpgradeable, ERC721GenDefaultApproval, HasContractURI, RoyaltiesV2GenImpl, TraitsManager, ERC721GenOperatorRole {\n    using SafeMathUpgradeable for uint;\n\n    event GenArtTotal(uint total);\n    event GenArtMint(uint tokenId);\n\n    //max amount of tokens in existance\n    uint public total;\n\n    //max amount of tokens to be minted in one transaction\n    uint public maxValue;\n\n    //amount of minted tokens\n    uint minted;\n\n    function __ERC721Gen_init(\n        string memory _name,\n        string memory _symbol,\n        string memory _baseURI,\n        address _transferProxy,\n        address _operatorProxy,\n        LibPart.Part[] memory _royalties,\n        Trait[] memory _traits,\n        uint _total,\n        uint _maxValue\n    ) external initializer {\n        __HasContractURI_init_unchained(_baseURI);\n        __RoyaltiesV2Upgradeable_init_unchained();\n        __RoyaltiesV2GenImpl_init_unchained(_royalties);\n        __Context_init_unchained();\n        __ERC165_init_unchained();\n        __Ownable_init_unchained();\n        __ERC721_init_unchained(_name, _symbol);\n        __TraitsManager_init_unchained(_traits);\n        __ERC721GenDefaultApproval_init_unchained(_transferProxy);\n        __ERC721GenOperatorRole_init_unchained(_operatorProxy);\n        __ERC721Gen_init_unchained(_total, _maxValue);\n    }\n\n    function __ERC721Gen_init_unchained(uint _total, uint _maxValue) internal initializer {\n        maxValue = _maxValue;\n        total = _total;\n        emit GenArtTotal(total);\n    }\n\n    //mint \"value\" amount of tokens and transfer them to \"to\" address\n    function mint(address artist, address to, uint value) onlyOperator() public {\n        require(value > 0 && value <= maxValue, \"incorrect value of tokens to mint\");\n        require(artist == owner(), \"artist is not an owner\");\n\n        uint totalSupply = minted;\n        require(totalSupply.add(value) <= total, \"all minted\");\n\n        for (uint i = 0; i < value; i ++) {\n            mintSingleToken(i, totalSupply + i, to);\n        }\n        minted = totalSupply.add(value);\n    }\n\n    //mint one token\n    function mintSingleToken(uint seed, uint totalSupply, address to) internal {\n        uint tokenId = random(seed, totalSupply, to);\n        _mint(to, tokenId);\n        emit GenArtMint(tokenId);\n    }\n\n    function _emitMintEvent(address to, uint tokenId) internal virtual override {\n        address _owner = owner();\n        emit Transfer(address(0), _owner, tokenId);\n        emit Transfer(_owner, to, tokenId);\n    }\n\n    function tokenURI(uint256 tokenId) public view virtual override returns (string memory) {\n        return string(abi.encodePacked(contractURI, \"/\", \"{id}\"));\n    }\n\n    function getTokenTraits(uint tokenId) public view returns (uint[] memory) {\n        uint[] memory result = new uint[](traits.length);\n        for (uint i = 0; i < traits.length; i++) {\n            result[i] = getTraitValue(traits[i], getRandom(tokenId, i));\n        }\n        return result;\n    }\n\n    uint256[50] private __gap;\n}\n",
  "sourcePath": "/home/quadro/Projects/rarible/generative-art/contracts/ERC721Gen.sol",
  "compiler": {
    "name": "solc",
    "version": "0.7.6+commit.7338295f.Emscripten.clang"
  },
  "schemaVersion": "3.4.3",
  "updatedAt": "2021-09-29T11:36:26.504Z",
  "networkType": "ethereum",
  "devdoc": {
    "kind": "dev",
    "methods": {
      "approve(address,uint256)": {
        "details": "See {IERC721-approve}."
      },
      "balanceOf(address)": {
        "details": "See {IERC721-balanceOf}."
      },
      "getApproved(uint256)": {
        "details": "See {IERC721-getApproved}."
      },
      "isApprovedForAll(address,address)": {
        "details": "See {IERC721-isApprovedForAll}."
      },
      "name()": {
        "details": "See {IERC721Metadata-name}."
      },
      "owner()": {
        "details": "Returns the address of the current owner."
      },
      "ownerOf(uint256)": {
        "details": "See {IERC721-ownerOf}."
      },
      "renounceOwnership()": {
        "details": "Leaves the contract without owner. It will not be possible to call `onlyOwner` functions anymore. Can only be called by the current owner. NOTE: Renouncing ownership will leave the contract without an owner, thereby removing any functionality that is only available to the owner."
      },
      "safeTransferFrom(address,address,uint256)": {
        "details": "See {IERC721-safeTransferFrom}."
      },
      "safeTransferFrom(address,address,uint256,bytes)": {
        "details": "See {IERC721-safeTransferFrom}."
      },
      "setApprovalForAll(address,bool)": {
        "details": "See {IERC721-setApprovalForAll}."
      },
      "supportsInterface(bytes4)": {
        "details": "See {IERC165-supportsInterface}. Time complexity O(1), guaranteed to always use less than 30 000 gas."
      },
      "symbol()": {
        "details": "See {IERC721Metadata-symbol}."
      },
      "tokenURI(uint256)": {
        "details": "See {IERC721Metadata-tokenURI}."
      },
      "transferFrom(address,address,uint256)": {
        "details": "See {IERC721-transferFrom}."
      },
      "transferOwnership(address)": {
        "details": "Transfers ownership of the contract to a new account (`newOwner`). Can only be called by the current owner."
      }
    },
    "version": 1
  },
  "userdoc": {
    "kind": "user",
    "methods": {},
    "version": 1
  }
}