{
  "contractName": "ERC721Gen",
  "abi": [
    {
      "anonymous": false,
      "inputs": [
        {
          "indexed": true,
          "internalType": "address",
          "name": "owner",
          "type": "address"
        },
        {
          "indexed": true,
          "internalType": "address",
          "name": "approved",
          "type": "address"
        },
        {
          "indexed": true,
          "internalType": "uint256",
          "name": "tokenId",
          "type": "uint256"
        }
      ],
      "name": "Approval",
      "type": "event"
    },
    {
      "anonymous": false,
      "inputs": [
        {
          "indexed": true,
          "internalType": "address",
          "name": "owner",
          "type": "address"
        },
        {
          "indexed": true,
          "internalType": "address",
          "name": "operator",
          "type": "address"
        },
        {
          "indexed": false,
          "internalType": "bool",
          "name": "approved",
          "type": "bool"
        }
      ],
      "name": "ApprovalForAll",
      "type": "event"
    },
    {
      "anonymous": false,
      "inputs": [
        {
          "indexed": true,
          "internalType": "address",
          "name": "operator",
          "type": "address"
        },
        {
          "indexed": false,
          "internalType": "bool",
          "name": "hasApproval",
          "type": "bool"
        }
      ],
      "name": "DefaultApproval",
      "type": "event"
    },
    {
      "anonymous": false,
      "inputs": [
        {
          "indexed": false,
          "internalType": "uint256",
          "name": "tokenId",
          "type": "uint256"
        }
      ],
      "name": "GenArtMint",
      "type": "event"
    },
    {
      "anonymous": false,
      "inputs": [
        {
          "indexed": false,
          "internalType": "uint256",
          "name": "total",
          "type": "uint256"
        }
      ],
      "name": "GenArtTotal",
      "type": "event"
    },
    {
      "anonymous": false,
      "inputs": [
        {
          "indexed": true,
          "internalType": "address",
          "name": "previousOwner",
          "type": "address"
        },
        {
          "indexed": true,
          "internalType": "address",
          "name": "newOwner",
          "type": "address"
        }
      ],
      "name": "OwnershipTransferred",
      "type": "event"
    },
    {
      "anonymous": false,
      "inputs": [
        {
          "indexed": false,
          "internalType": "uint256",
          "name": "tokenId",
          "type": "uint256"
        },
        {
          "components": [
            {
              "internalType": "address payable",
              "name": "account",
              "type": "address"
            },
            {
              "internalType": "uint96",
              "name": "value",
              "type": "uint96"
            }
          ],
          "indexed": false,
          "internalType": "struct LibPart.Part[]",
          "name": "royalties",
          "type": "tuple[]"
        }
      ],
      "name": "RoyaltiesSet",
      "type": "event"
    },
    {
      "anonymous": false,
      "inputs": [
        {
          "components": [
            {
              "internalType": "string",
              "name": "name",
              "type": "string"
            },
            {
              "internalType": "string[]",
              "name": "keys",
              "type": "string[]"
            },
            {
              "internalType": "uint256[]",
              "name": "rarities",
              "type": "uint256[]"
            }
          ],
          "indexed": false,
          "internalType": "struct Traits.Trait[]",
          "name": "traits",
          "type": "tuple[]"
        }
      ],
      "name": "TraitsSet",
      "type": "event"
    },
    {
      "anonymous": false,
      "inputs": [
        {
          "indexed": true,
          "internalType": "address",
          "name": "from",
          "type": "address"
        },
        {
          "indexed": true,
          "internalType": "address",
          "name": "to",
          "type": "address"
        },
        {
          "indexed": true,
          "internalType": "uint256",
          "name": "tokenId",
          "type": "uint256"
        }
      ],
      "name": "Transfer",
      "type": "event"
    },
    {
      "inputs": [
        {
          "internalType": "address",
          "name": "operator",
          "type": "address"
        }
      ],
      "name": "__ERC721GenOperatorRole_init",
      "outputs": [],
      "stateMutability": "nonpayable",
      "type": "function"
    },
    {
      "inputs": [
        {
          "internalType": "address",
          "name": "to",
          "type": "address"
        },
        {
          "internalType": "uint256",
          "name": "tokenId",
          "type": "uint256"
        }
      ],
      "name": "approve",
      "outputs": [],
      "stateMutability": "nonpayable",
      "type": "function"
    },
    {
      "inputs": [
        {
          "internalType": "address",
          "name": "owner",
          "type": "address"
        }
      ],
      "name": "balanceOf",
      "outputs": [
        {
          "internalType": "uint256",
          "name": "",
          "type": "uint256"
        }
      ],
      "stateMutability": "view",
      "type": "function",
      "constant": true
    },
    {
      "inputs": [],
      "name": "baseURI",
      "outputs": [
        {
          "internalType": "string",
          "name": "",
          "type": "string"
        }
      ],
      "stateMutability": "view",
      "type": "function",
      "constant": true
    },
    {
      "inputs": [
        {
          "internalType": "uint256",
          "name": "tokenId",
          "type": "uint256"
        }
      ],
      "name": "getApproved",
      "outputs": [
        {
          "internalType": "address",
          "name": "",
          "type": "address"
        }
      ],
      "stateMutability": "view",
      "type": "function",
      "constant": true
    },
    {
      "inputs": [],
      "name": "getPossibleTraits",
      "outputs": [
        {
          "components": [
            {
              "internalType": "string",
              "name": "name",
              "type": "string"
            },
            {
              "internalType": "string[]",
              "name": "keys",
              "type": "string[]"
            },
            {
              "internalType": "uint256[]",
              "name": "rarities",
              "type": "uint256[]"
            }
          ],
          "internalType": "struct Traits.Trait[]",
          "name": "",
          "type": "tuple[]"
        }
      ],
      "stateMutability": "view",
      "type": "function",
      "constant": true
    },
    {
      "inputs": [
        {
          "internalType": "uint256",
          "name": "",
          "type": "uint256"
        }
      ],
      "name": "getRaribleV2Royalties",
      "outputs": [
        {
          "components": [
            {
              "internalType": "address payable",
              "name": "account",
              "type": "address"
            },
            {
              "internalType": "uint96",
              "name": "value",
              "type": "uint96"
            }
          ],
          "internalType": "struct LibPart.Part[]",
          "name": "",
          "type": "tuple[]"
        }
      ],
      "stateMutability": "view",
      "type": "function",
      "constant": true
    },
    {
      "inputs": [
        {
          "internalType": "address",
          "name": "owner",
          "type": "address"
        },
        {
          "internalType": "address",
          "name": "operator",
          "type": "address"
        }
      ],
      "name": "isApprovedForAll",
      "outputs": [
        {
          "internalType": "bool",
          "name": "",
          "type": "bool"
        }
      ],
      "stateMutability": "view",
      "type": "function",
      "constant": true
    },
    {
      "inputs": [],
      "name": "maxValue",
      "outputs": [
        {
          "internalType": "uint256",
          "name": "",
          "type": "uint256"
        }
      ],
      "stateMutability": "view",
      "type": "function",
      "constant": true
    },
    {
      "inputs": [],
      "name": "name",
      "outputs": [
        {
          "internalType": "string",
          "name": "",
          "type": "string"
        }
      ],
      "stateMutability": "view",
      "type": "function",
      "constant": true
    },
    {
      "inputs": [],
      "name": "owner",
      "outputs": [
        {
          "internalType": "address",
          "name": "",
          "type": "address"
        }
      ],
      "stateMutability": "view",
      "type": "function",
      "constant": true
    },
    {
      "inputs": [
        {
          "internalType": "uint256",
          "name": "tokenId",
          "type": "uint256"
        }
      ],
      "name": "ownerOf",
      "outputs": [
        {
          "internalType": "address",
          "name": "",
          "type": "address"
        }
      ],
      "stateMutability": "view",
      "type": "function",
      "constant": true
    },
    {
      "inputs": [],
      "name": "renounceOwnership",
      "outputs": [],
      "stateMutability": "nonpayable",
      "type": "function"
    },
    {
      "inputs": [
        {
          "internalType": "address",
          "name": "from",
          "type": "address"
        },
        {
          "internalType": "address",
          "name": "to",
          "type": "address"
        },
        {
          "internalType": "uint256",
          "name": "tokenId",
          "type": "uint256"
        }
      ],
      "name": "safeTransferFrom",
      "outputs": [],
      "stateMutability": "nonpayable",
      "type": "function"
    },
    {
      "inputs": [
        {
          "internalType": "address",
          "name": "from",
          "type": "address"
        },
        {
          "internalType": "address",
          "name": "to",
          "type": "address"
        },
        {
          "internalType": "uint256",
          "name": "tokenId",
          "type": "uint256"
        },
        {
          "internalType": "bytes",
          "name": "_data",
          "type": "bytes"
        }
      ],
      "name": "safeTransferFrom",
      "outputs": [],
      "stateMutability": "nonpayable",
      "type": "function"
    },
    {
      "inputs": [
        {
          "internalType": "address",
          "name": "operator",
          "type": "address"
        },
        {
          "internalType": "bool",
          "name": "approved",
          "type": "bool"
        }
      ],
      "name": "setApprovalForAll",
      "outputs": [],
      "stateMutability": "nonpayable",
      "type": "function"
    },
    {
      "inputs": [
        {
          "internalType": "bytes4",
          "name": "interfaceId",
          "type": "bytes4"
        }
      ],
      "name": "supportsInterface",
      "outputs": [
        {
          "internalType": "bool",
          "name": "",
          "type": "bool"
        }
      ],
      "stateMutability": "view",
      "type": "function",
      "constant": true
    },
    {
      "inputs": [],
      "name": "symbol",
      "outputs": [
        {
          "internalType": "string",
          "name": "",
          "type": "string"
        }
      ],
      "stateMutability": "view",
      "type": "function",
      "constant": true
    },
    {
      "inputs": [],
      "name": "total",
      "outputs": [
        {
          "internalType": "uint256",
          "name": "",
          "type": "uint256"
        }
      ],
      "stateMutability": "view",
      "type": "function",
      "constant": true
    },
    {
      "inputs": [
        {
          "internalType": "address",
          "name": "from",
          "type": "address"
        },
        {
          "internalType": "address",
          "name": "to",
          "type": "address"
        },
        {
          "internalType": "uint256",
          "name": "tokenId",
          "type": "uint256"
        }
      ],
      "name": "transferFrom",
      "outputs": [],
      "stateMutability": "nonpayable",
      "type": "function"
    },
    {
      "inputs": [
        {
          "internalType": "address",
          "name": "newOwner",
          "type": "address"
        }
      ],
      "name": "transferOwnership",
      "outputs": [],
      "stateMutability": "nonpayable",
      "type": "function"
    },
    {
      "inputs": [
        {
          "internalType": "string",
          "name": "_name",
          "type": "string"
        },
        {
          "internalType": "string",
          "name": "_symbol",
          "type": "string"
        },
        {
          "internalType": "string",
          "name": "_baseURI",
          "type": "string"
        },
        {
          "internalType": "address",
          "name": "_transferProxy",
          "type": "address"
        },
        {
          "internalType": "address",
          "name": "_operatorProxy",
          "type": "address"
        },
        {
          "components": [
            {
              "internalType": "address payable",
              "name": "account",
              "type": "address"
            },
            {
              "internalType": "uint96",
              "name": "value",
              "type": "uint96"
            }
          ],
          "internalType": "struct LibPart.Part[]",
          "name": "_royalties",
          "type": "tuple[]"
        },
        {
          "components": [
            {
              "internalType": "string",
              "name": "name",
              "type": "string"
            },
            {
              "internalType": "string[]",
              "name": "keys",
              "type": "string[]"
            },
            {
              "internalType": "uint256[]",
              "name": "rarities",
              "type": "uint256[]"
            }
          ],
          "internalType": "struct Traits.Trait[]",
          "name": "_traits",
          "type": "tuple[]"
        },
        {
          "internalType": "uint256",
          "name": "_total",
          "type": "uint256"
        },
        {
          "internalType": "uint256",
          "name": "_maxValue",
          "type": "uint256"
        }
      ],
      "name": "__ERC721Gen_init",
      "outputs": [],
      "stateMutability": "nonpayable",
      "type": "function"
    },
    {
      "inputs": [
        {
          "internalType": "address",
          "name": "artist",
          "type": "address"
        },
        {
          "internalType": "address",
          "name": "to",
          "type": "address"
        },
        {
          "internalType": "uint256",
          "name": "value",
          "type": "uint256"
        }
      ],
      "name": "mint",
      "outputs": [],
      "stateMutability": "nonpayable",
      "type": "function"
    },
    {
      "inputs": [
        {
          "internalType": "uint256",
          "name": "tokenId",
          "type": "uint256"
        }
      ],
      "name": "tokenURI",
      "outputs": [
        {
          "internalType": "string",
          "name": "",
          "type": "string"
        }
      ],
      "stateMutability": "view",
      "type": "function",
      "constant": true
    },
    {
      "inputs": [
        {
          "internalType": "uint256",
          "name": "tokenId",
          "type": "uint256"
        }
      ],
      "name": "getTokenTraits",
      "outputs": [
        {
          "internalType": "uint256[]",
          "name": "",
          "type": "uint256[]"
        }
      ],
      "stateMutability": "view",
      "type": "function",
      "constant": true
    }
  ],
  "bytecode": "0x608060405234801561001057600080fd5b506136df806100206000396000f3fe608060405234801561001057600080fd5b50600436106101735760003560e01c80638da5cb5b116100de578063b88d4fde11610097578063cad96cca11610071578063cad96cca14610306578063d94dea8914610326578063e985e9c51461033b578063f2fde38b1461034e57610173565b8063b88d4fde146102cd578063c6c3bbe6146102e0578063c87b56dd146102f357610173565b80638da5cb5b1461026f57806394a5c2e41461027757806394e568471461027f57806395d89b411461029f578063a22cb465146102a7578063a9dfbf67146102ba57610173565b80632ddbd13a116101305780632ddbd13a1461021157806342842e0e146102265780636352211e146102395780636c0360eb1461024c57806370a0823114610254578063715018a61461026757610173565b806301ffc9a71461017857806306fdde03146101a1578063081812fc146101b6578063095ea7b3146101d657806316cc2df8146101eb57806323b872dd146101fe575b600080fd5b61018b610186366004612e9e565b610361565b604051610198919061321d565b60405180910390f35b6101a9610384565b6040516101989190613241565b6101c96101c4366004612fc7565b61041a565b6040516101989190613106565b6101e96101e4366004612e73565b61047c565b005b6101e96101f9366004612d31565b610552565b6101e961020c366004612d85565b61060e565b610219610665565b60405161019891906133ed565b6101e9610234366004612d85565b61066c565b6101c9610247366004612fc7565b610687565b6101a96106e1565b610219610262366004612d31565b610742565b6101e96107a5565b6101c9610863565b610219610872565b61029261028d366004612fc7565b610879565b604051610198919061320a565b6101a9610af6565b6101e96102b5366004612e42565b610b57565b6101e96102c8366004612ec6565b610c5c565b6101e96102db366004612dc5565b610d71565b6101e96102ee366004612d85565b610dcf565b6101a9610301366004612fc7565b610f09565b610319610314366004612fc7565b610f39565b604051610198919061311a565b61032e610fb8565b604051610198919061312d565b61018b610349366004612d4d565b6111d7565b6101e961035c366004612d31565b61120a565b6001600160e01b0319811660009081526033602052604090205460ff165b919050565b60658054604080516020601f60026000196101006001881615020190951694909404938401819004810282018101909252828152606093909290918301828280156104105780601f106103e557610100808354040283529160200191610410565b820191906000526020600020905b8154815290600101906020018083116103f357829003601f168201915b5050505050905090565b60006104258261131f565b6104605760405162461bcd60e51b815260040180806020018281038252602c8152602001806135db602c913960400191505060405180910390fd5b506000908152606960205260409020546001600160a01b031690565b600061048782610687565b9050806001600160a01b0316836001600160a01b031614156104da5760405162461bcd60e51b81526004018080602001828103825260218152602001806136586021913960400191505060405180910390fd5b806001600160a01b03166104ec61133c565b6001600160a01b0316148061050857506105088161034961133c565b6105435760405162461bcd60e51b81526004018080602001828103825260388152602001806135226038913960400191505060405180910390fd5b61054d8383611340565b505050565b600054610100900460ff168061056b575061056b6113ae565b80610579575060005460ff16155b6105b45760405162461bcd60e51b815260040180806020018281038252602e8152602001806135ad602e913960400191505060405180910390fd5b600054610100900460ff161580156105df576000805460ff1961ff0019909116610100171660011790555b6105e76113bf565b6105ef611461565b6105f88261155a565b801561060a576000805461ff00191690555b5050565b61061f61061961133c565b82611620565b61065a5760405162461bcd60e51b81526004018080602001828103825260318152602001806136796031913960400191505060405180910390fd5b61054d83838361164c565b6101fa5481565b61054d83838360405180602001604052806000815250610d71565b6000818152606760205260408120546001600160a01b0316806106db5760405162461bcd60e51b81526004018080602001828103825260298152602001806135846029913960400191505060405180910390fd5b92915050565b60fc8054604080516020601f60026000196101006001881615020190951694909404938401819004810282018101909252828152606093909290918301828280156104105780601f106103e557610100808354040283529160200191610410565b60006001600160a01b0382166107895760405162461bcd60e51b815260040180806020018281038252602a81526020018061355a602a913960400191505060405180910390fd5b506001600160a01b031660009081526068602052604090205490565b6107ad61133c565b6001600160a01b03166107be610863565b6001600160a01b031614610819576040805162461bcd60e51b815260206004820181905260248201527f4f776e61626c653a2063616c6c6572206973206e6f7420746865206f776e6572604482015290519081900360640190fd5b6097546040516000916001600160a01b0316907f8be0079c531659141344cd1fd0a4f28419497f9722a3daafe3b4186f6b6457e0908390a3609780546001600160a01b0319169055565b6097546001600160a01b031690565b6101fb5481565b6101625460609060009067ffffffffffffffff8111801561089957600080fd5b506040519080825280602002602001820160405280156108c3578160200160208202803683370190505b50905060005b61016254811015610aef57610ad061016282815481106108e557fe5b600091825260209182902060408051600393909302909101805460026001821615610100026000190190911604601f81018590049094028301608090810190925260608301848152929390928492909184918401828280156109885780601f1061095d57610100808354040283529160200191610988565b820191906000526020600020905b81548152906001019060200180831161096b57829003601f168201915b5050505050815260200160018201805480602002602001604051908101604052809291908181526020016000905b82821015610a615760008481526020908190208301805460408051601f6002600019610100600187161502019094169390930492830185900485028101850190915281815292830182828015610a4d5780601f10610a2257610100808354040283529160200191610a4d565b820191906000526020600020905b815481529060010190602001808311610a3057829003601f168201915b5050505050815260200190600101906109b6565b50505050815260200160028201805480602002602001604051908101604052809291908181526020018280548015610ab857602002820191906000526020600020905b815481526020019060010190808311610aa4575b505050505081525050610acb868461177c565b6117bc565b828281518110610adc57fe5b60209081029190910101526001016108c9565b5092915050565b60668054604080516020601f60026000196101006001881615020190951694909404938401819004810282018101909252828152606093909290918301828280156104105780601f106103e557610100808354040283529160200191610410565b610b5f61133c565b6001600160a01b0316826001600160a01b03161415610bc5576040805162461bcd60e51b815260206004820152601960248201527f4552433732313a20617070726f766520746f2063616c6c657200000000000000604482015290519081900360640190fd5b80606a6000610bd261133c565b6001600160a01b03908116825260208083019390935260409182016000908120918716808252919093529120805460ff191692151592909217909155610c1661133c565b6001600160a01b03167f17307eab39ab6107e8899845ad3d59bd9653f200f220920489ca2b5937696c318360405180821515815260200191505060405180910390a35050565b600054610100900460ff1680610c755750610c756113ae565b80610c83575060005460ff16155b610cbe5760405162461bcd60e51b815260040180806020018281038252602e8152602001806135ad602e913960400191505060405180910390fd5b600054610100900460ff16158015610ce9576000805460ff1961ff0019909116610100171660011790555b610cfb610cf6893061181c565b6118f9565b610d036119af565b610d0c85611a4c565b610d146113bf565b610d1c611ae2565b610d24611461565b610d2e8a8a611b7f565b610d3784611c6a565b610d4087611e81565b610d498661155a565b610d538383611f81565b8015610d65576000805461ff00191690555b50505050505050505050565b610d82610d7c61133c565b83611620565b610dbd5760405162461bcd60e51b81526004018080602001828103825260318152602001806136796031913960400191505060405180910390fd5b610dc984848484612068565b50505050565b6101c76000610ddc61133c565b6001600160a01b0316815260208101919091526040016000205460ff16610e345760405162461bcd60e51b81526004018080602001828103825260288152602001806136076028913960400191505060405180910390fd5b600081118015610e4757506101fb548111155b610e6c5760405162461bcd60e51b8152600401610e63906132ef565b60405180910390fd5b610e74610863565b6001600160a01b0316836001600160a01b031614610ea45760405162461bcd60e51b8152600401610e6390613330565b6101fc546101fa54610eb682846120ba565b1115610ed45760405162461bcd60e51b8152600401610e6390613254565b60005b82811015610ef457610eec8182840186612114565b600101610ed7565b50610eff81836120ba565b6101fc5550505050565b6060610f136106e1565b604051602001610f239190613091565b6040516020818303038152906040529050919050565b606061012f805480602002602001604051908101604052809291908181526020016000905b82821015610fad57600084815260209081902060408051808201909152908401546001600160a01b0381168252600160a01b90046001600160601b031681830152825260019092019101610f5e565b505050509050919050565b6060610162805480602002602001604051908101604052809291908181526020016000905b828210156111ce5760008481526020908190206040805160038602909201805460026001821615610100026000190190911604601f81018590049094028301608090810190925260608301848152929390928492909184918401828280156110865780601f1061105b57610100808354040283529160200191611086565b820191906000526020600020905b81548152906001019060200180831161106957829003601f168201915b5050505050815260200160018201805480602002602001604051908101604052809291908181526020016000905b8282101561115f5760008481526020908190208301805460408051601f600260001961010060018716150201909416939093049283018590048502810185019091528181529283018282801561114b5780601f106111205761010080835404028352916020019161114b565b820191906000526020600020905b81548152906001019060200180831161112e57829003601f168201915b5050505050815260200190600101906110b4565b505050508152602001600282018054806020026020016040519081016040528092919081815260200182805480156111b657602002820191906000526020600020905b8154815260200190600101908083116111a2575b50505050508152505081526020019060010190610fdd565b50505050905090565b6001600160a01b038116600090815260c9602052604081205460ff16806112035750611203838361216a565b9392505050565b61121261133c565b6001600160a01b0316611223610863565b6001600160a01b03161461127e576040805162461bcd60e51b815260206004820181905260248201527f4f776e61626c653a2063616c6c6572206973206e6f7420746865206f776e6572604482015290519081900360640190fd5b6001600160a01b0381166112c35760405162461bcd60e51b81526004018080602001828103825260268152602001806134ac6026913960400191505060405180910390fd5b6097546040516001600160a01b038084169216907f8be0079c531659141344cd1fd0a4f28419497f9722a3daafe3b4186f6b6457e090600090a3609780546001600160a01b0319166001600160a01b0392909216919091179055565b6000908152606760205260409020546001600160a01b0316151590565b3390565b600081815260696020526040902080546001600160a01b0319166001600160a01b038416908117909155819061137582610687565b6001600160a01b03167f8c5be1e5ebec7d5bd14f71427d1e84f3dd0314c0f7b2291e5b200ac8c7c3b92560405160405180910390a45050565b60006113b930612198565b15905090565b600054610100900460ff16806113d857506113d86113ae565b806113e6575060005460ff16155b6114215760405162461bcd60e51b815260040180806020018281038252602e8152602001806135ad602e913960400191505060405180910390fd5b600054610100900460ff1615801561144c576000805460ff1961ff0019909116610100171660011790555b801561145e576000805461ff00191690555b50565b600054610100900460ff168061147a575061147a6113ae565b80611488575060005460ff16155b6114c35760405162461bcd60e51b815260040180806020018281038252602e8152602001806135ad602e913960400191505060405180910390fd5b600054610100900460ff161580156114ee576000805460ff1961ff0019909116610100171660011790555b60006114f861133c565b609780546001600160a01b0319166001600160a01b038316908117909155604051919250906000907f8be0079c531659141344cd1fd0a4f28419497f9722a3daafe3b4186f6b6457e0908290a350801561145e576000805461ff001916905550565b600054610100900460ff168061157357506115736113ae565b80611581575060005460ff16155b6115bc5760405162461bcd60e51b815260040180806020018281038252602e8152602001806135ad602e913960400191505060405180910390fd5b600054610100900460ff161580156115e7576000805460ff1961ff0019909116610100171660011790555b6001600160a01b03821660009081526101c760205260409020805460ff19166001179055801561060a576000805461ff00191690555050565b6001600160a01b038216600090815260c9602052604081205460ff16806112035750611203838361219e565b826001600160a01b031661165f82610687565b6001600160a01b0316146116a45760405162461bcd60e51b815260040180806020018281038252602981526020018061362f6029913960400191505060405180910390fd5b6001600160a01b0382166116e95760405162461bcd60e51b81526004018080602001828103825260248152602001806134d26024913960400191505060405180910390fd5b6116f483838361054d565b6116ff600082611340565b6001600160a01b038084166000818152606860209081526040808320805460001901905593861680835284832080546001019055858352606790915283822080546001600160a01b031916821790559251849392917fddf252ad1be2c89b69c2b068fc378daa952ba7f163c4a11628f55a4df523b3ef91a4505050565b600061271083836040516020016117949291906130b9565b6040516020818303038152906040528051906020012060001c816117b457fe5b069392505050565b600080805b84604001515181101561180357846040015181815181106117de57fe5b602002602001015182019150818410156117fb5791506106db9050565b6001016117c1565b5060405162461bcd60e51b8152600401610e6390613397565b60608261182883612242565b6040516020018083805190602001908083835b6020831061185a5780518252601f19909201916020918201910161183b565b51815160209384036101000a600019018019909216911617905261060f60f31b919093019081528451600290910192850191508083835b602083106118b05780518252601f199092019160209182019101611891565b6001836020036101000a03801982511681845116808217855250505050505090500180602f60f81b81525060010192505050604051602081830303815290604052905092915050565b600054610100900460ff168061191257506119126113ae565b80611920575060005460ff16155b61195b5760405162461bcd60e51b815260040180806020018281038252602e8152602001806135ad602e913960400191505060405180910390fd5b600054610100900460ff16158015611986576000805460ff1961ff0019909116610100171660011790555b81516119999060fc9060208501906128b5565b50801561060a576000805461ff00191690555050565b600054610100900460ff16806119c857506119c86113ae565b806119d6575060005460ff16155b611a115760405162461bcd60e51b815260040180806020018281038252602e8152602001806135ad602e913960400191505060405180910390fd5b600054610100900460ff16158015611a3c576000805460ff1961ff0019909116610100171660011790555b61144c63656cb66560e11b612330565b600054610100900460ff1680611a655750611a656113ae565b80611a73575060005460ff16155b611aae5760405162461bcd60e51b815260040180806020018281038252602e8152602001806135ad602e913960400191505060405180910390fd5b600054610100900460ff16158015611ad9576000805460ff1961ff0019909116610100171660011790555b6105f8826123b4565b600054610100900460ff1680611afb5750611afb6113ae565b80611b09575060005460ff16155b611b445760405162461bcd60e51b815260040180806020018281038252602e8152602001806135ad602e913960400191505060405180910390fd5b600054610100900460ff16158015611b6f576000805460ff1961ff0019909116610100171660011790555b61144c6301ffc9a760e01b612330565b600054610100900460ff1680611b985750611b986113ae565b80611ba6575060005460ff16155b611be15760405162461bcd60e51b815260040180806020018281038252602e8152602001806135ad602e913960400191505060405180910390fd5b600054610100900460ff16158015611c0c576000805460ff1961ff0019909116610100171660011790555b8251611c1f9060659060208601906128b5565b508151611c339060669060208501906128b5565b50611c446380ac58cd60e01b612330565b611c54635b5e139f60e01b612330565b801561054d576000805461ff0019169055505050565b600054610100900460ff1680611c835750611c836113ae565b80611c91575060005460ff16155b611ccc5760405162461bcd60e51b815260040180806020018281038252602e8152602001806135ad602e913960400191505060405180910390fd5b600054610100900460ff16158015611cf7576000805460ff1961ff0019909116610100171660011790555b60005b8251811015611e34576000838281518110611d1157fe5b602090810291909101810151610162805460018101825560009190915281518051929450849360039092027f29af0939a5988989bfee913a9ad10b9335cb63ebc9fd2b69e5f877d0455ac9190192611d6c92849201906128b5565b506020828101518051611d859260018501920190612941565b5060408201518051611da191600284019160209091019061299a565b505050600081604001515182602001515114611dcf5760405162461bcd60e51b8152600401610e63906132ad565b60005b826040015151811015611e085782604001518181518110611def57fe5b6020026020010151820191508080600101915050611dd2565b508061271014611e2a5760405162461bcd60e51b8152600401610e6390613360565b5050600101611cfa565b507f09c84115ae3001cd610bc97a54ec58233044031d842e7b875830870b1a1d888382604051611e64919061312d565b60405180910390a1801561060a576000805461ff00191690555050565b600054610100900460ff1680611e9a5750611e9a6113ae565b80611ea8575060005460ff16155b611ee35760405162461bcd60e51b815260040180806020018281038252602e8152602001806135ad602e913960400191505060405180910390fd5b600054610100900460ff16158015611f0e576000805460ff1961ff0019909116610100171660011790555b6001600160a01b038216600081815260c96020908152604091829020805460ff19166001908117909155825181815292519093927f270dbb8ba4292910ae92862466486be25c355c837270a3d8824b36a8bc7c653b92908290030190a250801561060a576000805461ff00191690555050565b600054610100900460ff1680611f9a5750611f9a6113ae565b80611fa8575060005460ff16155b611fe35760405162461bcd60e51b815260040180806020018281038252602e8152602001806135ad602e913960400191505060405180910390fd5b600054610100900460ff1615801561200e576000805460ff1961ff0019909116610100171660011790555b6101fb8290556101fa8390556040517fea649c7d539c2dc5f4bba029cd2bb737d28e5ddc740ef5a3779365e9c85bc4959061204a9085906133ed565b60405180910390a1801561054d576000805461ff0019169055505050565b61207384848461164c565b61207f848484846124c1565b610dc95760405162461bcd60e51b815260040180806020018281038252603281526020018061347a6032913960400191505060405180910390fd5b600082820183811015611203576040805162461bcd60e51b815260206004820152601b60248201527f536166654d6174683a206164646974696f6e206f766572666c6f770000000000604482015290519081900360640190fd5b6000612121848484612676565b905061212d82826126b3565b7f8d3aae9c05226dccdfc3b5a6adf19d15da201e24f67769c60c4585f5baf1ada08160405161215c91906133ed565b60405180910390a150505050565b6001600160a01b039182166000908152606a6020908152604080832093909416825291909152205460ff1690565b3b151590565b60006121a98261131f565b6121e45760405162461bcd60e51b815260040180806020018281038252602c8152602001806134f6602c913960400191505060405180910390fd5b60006121ef83610687565b9050806001600160a01b0316846001600160a01b0316148061222a5750836001600160a01b031661221f8461041a565b6001600160a01b0316145b8061223a575061223a81856111d7565b949350505050565b60408051602880825260608281019093526000919060208201818036833701905050905060005b6014811015610aef5760008160130360080260020a856001600160a01b03168161228f57fe5b0460f81b9050600060108260f81c60ff16816122a757fe5b0460f81b905060008160f81c6010028360f81c0360f81b90506122c9826127bc565b8585600202815181106122d857fe5b60200101906001600160f81b031916908160001a9053506122f8816127bc565b85856002026001018151811061230a57fe5b60200101906001600160f81b031916908160001a90535050600190920191506122699050565b6001600160e01b0319808216141561238f576040805162461bcd60e51b815260206004820152601c60248201527f4552433136353a20696e76616c696420696e7465726661636520696400000000604482015290519081900360640190fd5b6001600160e01b0319166000908152603360205260409020805460ff19166001179055565b60005b81518110156124b75760006001600160a01b03168282815181106123d757fe5b6020026020010151600001516001600160a01b0316141561240a5760405162461bcd60e51b8152600401610e63906133b6565b81818151811061241657fe5b6020026020010151602001516001600160601b03166000141561244b5760405162461bcd60e51b8152600401610e6390613278565b61012f82828151811061245a57fe5b60209081029190910181015182546001818101855560009485529383902082519101805492909301516001600160601b0316600160a01b026001600160a01b039182166001600160a01b03199093169290921716179055016123b7565b5061145e816127ed565b60006124d5846001600160a01b0316612198565b1561266b57836001600160a01b031663150b7a026124f161133c565b8786866040518563ffffffff1660e01b815260040180856001600160a01b03168152602001846001600160a01b0316815260200183815260200180602001828103825283818151815260200191508051906020019080838360005b8381101561256457818101518382015260200161254c565b50505050905090810190601f1680156125915780820380516001836020036101000a031916815260200191505b5095505050505050602060405180830381600087803b1580156125b357600080fd5b505af19250505080156125d857506040513d60208110156125d357600080fd5b505160015b612651573d808015612606576040519150601f19603f3d011682016040523d82523d6000602084013e61260b565b606091505b5080516126495760405162461bcd60e51b815260040180806020018281038252603281526020018061347a6032913960400191505060405180910390fd5b805181602001fd5b6001600160e01b031916630a85bd0160e11b14905061223a565b506001949350505050565b6000834243448686604051602001612693969594939291906130c7565b60408051601f198184030181529190528051602090910120949350505050565b6001600160a01b03821661270e576040805162461bcd60e51b815260206004820181905260248201527f4552433732313a206d696e7420746f20746865207a65726f2061646472657373604482015290519081900360640190fd5b6127178161131f565b15612769576040805162461bcd60e51b815260206004820152601c60248201527f4552433732313a20746f6b656e20616c7265616479206d696e74656400000000604482015290519081900360640190fd5b6127756000838361054d565b6001600160a01b0382166000818152606860209081526040808320805460010190558483526067909152902080546001600160a01b031916909117905561060a828261282a565b6000600a60f883901c10156127dc578160f81c60300160f81b905061037f565b8160f81c60570160f81b905061037f565b7f3fa96d7b6bcbfe71ef171666d84db3cf52fa2d1c8afdb1cc8e486177f208b7df60008260405161281f929190613228565b60405180910390a150565b6000612834610863565b60405190915082906001600160a01b038316906000907fddf252ad1be2c89b69c2b068fc378daa952ba7f163c4a11628f55a4df523b3ef908290a481836001600160a01b0316826001600160a01b03167fddf252ad1be2c89b69c2b068fc378daa952ba7f163c4a11628f55a4df523b3ef60405160405180910390a4505050565b828054600181600116156101000203166002900490600052602060002090601f0160209004810192826128eb5760008555612931565b82601f1061290457805160ff1916838001178555612931565b82800160010185558215612931579182015b82811115612931578251825591602001919060010190612916565b5061293d9291506129d4565b5090565b82805482825590600052602060002090810192821561298e579160200282015b8281111561298e578251805161297e9184916020909101906128b5565b5091602001919060010190612961565b5061293d9291506129e9565b8280548282559060005260206000209081019282156129315791602002820182811115612931578251825591602001919060010190612916565b5b8082111561293d57600081556001016129d5565b8082111561293d5760006129fd8282612a06565b506001016129e9565b50805460018160011615610100020316600290046000825580601f10612a2c575061145e565b601f01602090049060005260206000209081019061145e91906129d4565b600067ffffffffffffffff831115612a5e57fe5b612a71601f8401601f19166020016133f6565b9050828152838383011115612a8557600080fd5b828260208301376000602084830101529392505050565b803561037f81613464565b600082601f830112612ab7578081fd5b81356020612acc612ac78361341a565b6133f6565b82815281810190858301855b85811015612b0157612aef898684358b0101612d12565b84529284019290840190600101612ad8565b5090979650505050505050565b600082601f830112612b1e578081fd5b81356020612b2e612ac78361341a565b82815281810190858301604080860288018501891015612b4c578687fd5b865b86811015612bbc5781838b031215612b64578788fd5b815182810181811067ffffffffffffffff82111715612b7f57fe5b83528335612b8c81613464565b8152838701356001600160601b0381168114612ba657898afd5b8188015285529385019391810191600101612b4e565b509198975050505050505050565b600082601f830112612bda578081fd5b81356020612bea612ac78361341a565b82815281810190858301855b85811015612b015781358801606080601f19838d03011215612c16578889fd5b6040805182810167ffffffffffffffff8282108183111715612c3457fe5b908352848a01359080821115612c48578c8dfd5b612c568f8c84890101612d12565b835283860135915080821115612c6a578c8dfd5b612c788f8c84890101612aa7565b838c0152938501359380851115612c8d578c8dfd5b5050612c9d8d8a85870101612cb8565b91810191909152865250509284019290840190600101612bf6565b600082601f830112612cc8578081fd5b81356020612cd8612ac78361341a565b8281528181019085830183850287018401881015612cf4578586fd5b855b85811015612b0157813584529284019290840190600101612cf6565b600082601f830112612d22578081fd5b61120383833560208501612a4a565b600060208284031215612d42578081fd5b813561120381613464565b60008060408385031215612d5f578081fd5b8235612d6a81613464565b91506020830135612d7a81613464565b809150509250929050565b600080600060608486031215612d99578081fd5b8335612da481613464565b92506020840135612db481613464565b929592945050506040919091013590565b60008060008060808587031215612dda578182fd5b8435612de581613464565b93506020850135612df581613464565b925060408501359150606085013567ffffffffffffffff811115612e17578182fd5b8501601f81018713612e27578182fd5b612e3687823560208401612a4a565b91505092959194509250565b60008060408385031215612e54578182fd5b8235612e5f81613464565b915060208301358015158114612d7a578182fd5b60008060408385031215612e85578182fd5b8235612e9081613464565b946020939093013593505050565b600060208284031215612eaf578081fd5b81356001600160e01b031981168114611203578182fd5b60008060008060008060008060006101208a8c031215612ee4578687fd5b893567ffffffffffffffff80821115612efb578889fd5b612f078d838e01612d12565b9a5060208c0135915080821115612f1c578889fd5b612f288d838e01612d12565b995060408c0135915080821115612f3d578889fd5b612f498d838e01612d12565b9850612f5760608d01612a9c565b9750612f6560808d01612a9c565b965060a08c0135915080821115612f7a578586fd5b612f868d838e01612b0e565b955060c08c0135915080821115612f9b578485fd5b50612fa88c828d01612bca565b93505060e08a013591506101008a013590509295985092959850929598565b600060208284031215612fd8578081fd5b5035919050565b6000815180845260208085019450808401835b8381101561302b57815180516001600160a01b031688528301516001600160601b03168388015260409096019590820190600101612ff2565b509495945050505050565b6000815180845260208085019450808401835b8381101561302b57815187529582019590820190600101613049565b6000815180845261307d816020860160208601613438565b601f01601f19169290920160200192915050565b600082516130a3818460208701613438565b637b69647d60e01b920191825250600401919050565b918252602082015260400190565b9586526020860194909452604085019290925260608085019190915260808401919091521b6bffffffffffffffffffffffff191660a082015260b40190565b6001600160a01b0391909116815260200190565b6000602082526112036020830184612fdf565b60208082528251828201819052600091906040908185019080840286018301878501865b838110156131fc57603f1989840301855281516060815181865261317782870182613065565b838b0151878203888d015280518083529193508b0191508a830190808c0284018c018d5b828110156131c957601f198683030184526131b7828651613065565b948e0194938e0193915060010161319b565b50948b0151888603898d0152946131e08187613036565b9a8d019a98505050948a01945050506001919091019050613151565b509098975050505050505050565b6000602082526112036020830184613036565b901515815260200190565b60008382526040602083015261223a6040830184612fdf565b6000602082526112036020830184613065565b6020808252600a9082015269185b1b081b5a5b9d195960b21b604082015260600190565b6020808252818101527f526f79616c74792076616c75652073686f756c6420626520706f736974697665604082015260600190565b60208082526022908201527f6b65797320616e64207261726974696573206c656e677468206e6f7420657175604082015261185b60f21b606082015260800190565b60208082526021908201527f696e636f72726563742076616c7565206f6620746f6b656e7320746f206d696e6040820152601d60fa1b606082015260800190565b60208082526016908201527530b93a34b9ba1034b9903737ba1030b71037bbb732b960511b604082015260600190565b6020808252601f908201527f73756d206f72207261726974696573206e6f7420657175616c20313030303000604082015260600190565b6020808252600590820152643732bb32b960d91b604082015260600190565b6020808252601b908201527f526563697069656e742073686f756c642062652070726573656e740000000000604082015260600190565b90815260200190565b60405181810167ffffffffffffffff8111828210171561341257fe5b604052919050565b600067ffffffffffffffff82111561342e57fe5b5060209081020190565b60005b8381101561345357818101518382015260200161343b565b83811115610dc95750506000910152565b6001600160a01b038116811461145e57600080fdfe4552433732313a207472616e7366657220746f206e6f6e20455243373231526563656976657220696d706c656d656e7465724f776e61626c653a206e6577206f776e657220697320746865207a65726f20616464726573734552433732313a207472616e7366657220746f20746865207a65726f20616464726573734552433732313a206f70657261746f7220717565727920666f72206e6f6e6578697374656e7420746f6b656e4552433732313a20617070726f76652063616c6c6572206973206e6f74206f776e6572206e6f7220617070726f76656420666f7220616c6c4552433732313a2062616c616e636520717565727920666f7220746865207a65726f20616464726573734552433732313a206f776e657220717565727920666f72206e6f6e6578697374656e7420746f6b656e496e697469616c697a61626c653a20636f6e747261637420697320616c726561647920696e697469616c697a65644552433732313a20617070726f76656420717565727920666f72206e6f6e6578697374656e7420746f6b656e4f70657261746f72526f6c653a2063616c6c6572206973206e6f7420746865206f70657261746f724552433732313a207472616e73666572206f6620746f6b656e2074686174206973206e6f74206f776e4552433732313a20617070726f76616c20746f2063757272656e74206f776e65724552433732313a207472616e736665722063616c6c6572206973206e6f74206f776e6572206e6f7220617070726f766564a2646970667358221220cd00aed55b4106a1d405e6e69efa7e9e7ae7008c7af46261d51b288bcbca437864736f6c63430007060033",
  "immutableReferences": {},
  "source": "// SPDX-License-Identifier: MIT\n\npragma solidity ^0.7.0;\npragma abicoder v2;\n\nimport \"@openzeppelin/contracts-upgradeable/access/OwnableUpgradeable.sol\";\nimport \"@openzeppelin/contracts-upgradeable/math/SafeMathUpgradeable.sol\";\n\nimport \"./interfaces/IERC721GenMint.sol\";\nimport \"./royalties/RoyaltiesV2GenImpl.sol\";\nimport \"./tokens/ERC721GenDefaultApproval.sol\";\nimport \"./tokens/ERC721GenOperatorRole.sol\";\nimport \"./tokens/ERC721BaseURI.sol\";\n\nimport \"./traits/TraitsManager.sol\";\nimport \"./utils/AddAddrToURI.sol\";\n\ncontract ERC721Gen is OwnableUpgradeable, ERC721GenDefaultApproval, ERC721BaseURI, RoyaltiesV2GenImpl, TraitsManager, AddAddrToURI, ERC721GenOperatorRole {\n    using SafeMathUpgradeable for uint;\n\n    event GenArtTotal(uint total);\n    event GenArtMint(uint tokenId);\n\n    //max amount of tokens in existance\n    uint public total;\n\n    //max amount of tokens to be minted in one transaction\n    uint public maxValue;\n\n    //amount of minted tokens\n    uint minted;\n\n    function __ERC721Gen_init(\n        string memory _name,\n        string memory _symbol,\n        string memory _baseURI,\n        address _transferProxy,\n        address _operatorProxy,\n        LibPart.Part[] memory _royalties,\n        Trait[] memory _traits,\n        uint _total,\n        uint _maxValue\n    ) external initializer {\n        __ERC721BaseURI_init_unchained(addTokenAddrToBaseURI(_baseURI, address(this)));\n        __RoyaltiesV2Upgradeable_init_unchained();\n        __RoyaltiesV2GenImpl_init_unchained(_royalties);\n        __Context_init_unchained();\n        __ERC165_init_unchained();\n        __Ownable_init_unchained();\n        __ERC721_init_unchained(_name, _symbol);\n        __TraitsManager_init_unchained(_traits);\n        __ERC721GenDefaultApproval_init_unchained(_transferProxy);\n        __ERC721GenOperatorRole_init_unchained(_operatorProxy);\n        __ERC721Gen_init_unchained(_total, _maxValue);\n    }\n\n    function __ERC721Gen_init_unchained(uint _total, uint _maxValue) internal initializer {\n        maxValue = _maxValue;\n        total = _total;\n        emit GenArtTotal(total);\n    }\n\n    //mint \"value\" amount of tokens and transfer them to \"to\" address\n    function mint(address artist, address to, uint value) onlyOperator() public {\n        require(value > 0 && value <= maxValue, \"incorrect value of tokens to mint\");\n        require(artist == owner(), \"artist is not an owner\");\n\n        uint totalSupply = minted;\n        require(totalSupply.add(value) <= total, \"all minted\");\n\n        for (uint i = 0; i < value; i ++) {\n            mintSingleToken(i, totalSupply + i, to);\n        }\n        minted = totalSupply.add(value);\n    }\n\n    //mint one token\n    function mintSingleToken(uint seed, uint totalSupply, address to) internal {\n        uint tokenId = random(seed, totalSupply, to);\n        _mint(to, tokenId);\n        emit GenArtMint(tokenId);\n    }\n\n    function _emitMintEvent(address to, uint tokenId) internal virtual override {\n        address _owner = owner();\n        emit Transfer(address(0), _owner, tokenId);\n        emit Transfer(_owner, to, tokenId);\n    }\n\n    function tokenURI(uint256 tokenId) public view virtual override returns (string memory) {\n        return string(abi.encodePacked(baseURI(), \"{id}\"));\n    }\n\n    function getTokenTraits(uint tokenId) public view returns (uint[] memory) {\n        uint[] memory result = new uint[](traits.length);\n        for (uint i = 0; i < traits.length; i++) {\n            result[i] = getTraitValue(traits[i], getRandom(tokenId, i));\n        }\n        return result;\n    }\n\n    uint256[50] private __gap;\n}\n",
  "sourcePath": "/home/quadro/Projects/rarible/generative-art/contracts/ERC721Gen.sol",
  "compiler": {
    "name": "solc",
    "version": "0.7.6+commit.7338295f.Emscripten.clang"
  },
  "schemaVersion": "3.4.3",
  "updatedAt": "2021-09-28T10:48:19.863Z",
  "networkType": "ethereum",
  "devdoc": {
    "kind": "dev",
    "methods": {
      "approve(address,uint256)": {
        "details": "See {IERC721-approve}."
      },
      "balanceOf(address)": {
        "details": "See {IERC721-balanceOf}."
      },
      "baseURI()": {
        "details": "Returns the base URI set via {_setBaseURI}. This will be automatically added as a prefix in {tokenURI} to each token's URI, or to the token ID if no specific URI is set for that token ID."
      },
      "getApproved(uint256)": {
        "details": "See {IERC721-getApproved}."
      },
      "isApprovedForAll(address,address)": {
        "details": "See {IERC721-isApprovedForAll}."
      },
      "name()": {
        "details": "See {IERC721Metadata-name}."
      },
      "owner()": {
        "details": "Returns the address of the current owner."
      },
      "ownerOf(uint256)": {
        "details": "See {IERC721-ownerOf}."
      },
      "renounceOwnership()": {
        "details": "Leaves the contract without owner. It will not be possible to call `onlyOwner` functions anymore. Can only be called by the current owner. NOTE: Renouncing ownership will leave the contract without an owner, thereby removing any functionality that is only available to the owner."
      },
      "safeTransferFrom(address,address,uint256)": {
        "details": "See {IERC721-safeTransferFrom}."
      },
      "safeTransferFrom(address,address,uint256,bytes)": {
        "details": "See {IERC721-safeTransferFrom}."
      },
      "setApprovalForAll(address,bool)": {
        "details": "See {IERC721-setApprovalForAll}."
      },
      "supportsInterface(bytes4)": {
        "details": "See {IERC165-supportsInterface}. Time complexity O(1), guaranteed to always use less than 30 000 gas."
      },
      "symbol()": {
        "details": "See {IERC721Metadata-symbol}."
      },
      "tokenURI(uint256)": {
        "details": "See {IERC721Metadata-tokenURI}."
      },
      "transferFrom(address,address,uint256)": {
        "details": "See {IERC721-transferFrom}."
      },
      "transferOwnership(address)": {
        "details": "Transfers ownership of the contract to a new account (`newOwner`). Can only be called by the current owner."
      }
    },
    "version": 1
  },
  "userdoc": {
    "kind": "user",
    "methods": {},
    "version": 1
  }
}