{
  "contractName": "ERC721GenMintTransferProxy",
  "abi": [
    {
      "anonymous": false,
      "inputs": [
        {
          "indexed": true,
          "internalType": "address",
          "name": "previousOwner",
          "type": "address"
        },
        {
          "indexed": true,
          "internalType": "address",
          "name": "newOwner",
          "type": "address"
        }
      ],
      "name": "OwnershipTransferred",
      "type": "event"
    },
    {
      "inputs": [
        {
          "internalType": "address",
          "name": "operator",
          "type": "address"
        }
      ],
      "name": "addOperator",
      "outputs": [],
      "stateMutability": "nonpayable",
      "type": "function"
    },
    {
      "inputs": [],
      "name": "owner",
      "outputs": [
        {
          "internalType": "address",
          "name": "",
          "type": "address"
        }
      ],
      "stateMutability": "view",
      "type": "function"
    },
    {
      "inputs": [
        {
          "internalType": "address",
          "name": "operator",
          "type": "address"
        }
      ],
      "name": "removeOperator",
      "outputs": [],
      "stateMutability": "nonpayable",
      "type": "function"
    },
    {
      "inputs": [],
      "name": "renounceOwnership",
      "outputs": [],
      "stateMutability": "nonpayable",
      "type": "function"
    },
    {
      "inputs": [
        {
          "internalType": "address",
          "name": "newOwner",
          "type": "address"
        }
      ],
      "name": "transferOwnership",
      "outputs": [],
      "stateMutability": "nonpayable",
      "type": "function"
    },
    {
      "inputs": [
        {
          "components": [
            {
              "components": [
                {
                  "internalType": "bytes4",
                  "name": "assetClass",
                  "type": "bytes4"
                },
                {
                  "internalType": "bytes",
                  "name": "data",
                  "type": "bytes"
                }
              ],
              "internalType": "struct LibAsset.AssetType",
              "name": "assetType",
              "type": "tuple"
            },
            {
              "internalType": "uint256",
              "name": "value",
              "type": "uint256"
            }
          ],
          "internalType": "struct LibAsset.Asset",
          "name": "asset",
          "type": "tuple"
        },
        {
          "internalType": "address",
          "name": "from",
          "type": "address"
        },
        {
          "internalType": "address",
          "name": "to",
          "type": "address"
        }
      ],
      "name": "transfer",
      "outputs": [],
      "stateMutability": "nonpayable",
      "type": "function"
    }
  ],
  "bytecode": "0x608060405234801561001057600080fd5b50600061001b61006a565b600080546001600160a01b0319166001600160a01b0383169081178255604051929350917f8be0079c531659141344cd1fd0a4f28419497f9722a3daafe3b4186f6b6457e0908290a35061006e565b3390565b6106b98061007d6000396000f3fe608060405234801561001057600080fd5b50600436106100625760003560e01c806354bc0cf114610067578063715018a61461007c5780638da5cb5b146100845780639870d7fe146100a2578063ac8a584a146100b5578063f2fde38b146100c8575b600080fd5b61007a610075366004610483565b6100db565b005b61007a610167565b61008c610213565b60405161009991906105c9565b60405180910390f35b61007a6100b0366004610444565b610222565b61007a6100c3366004610444565b6102ab565b61007a6100d6366004610444565b61032e565b60008360000151602001518060200190518101906100f99190610467565b6020850151604051636361ddf360e11b81529192506001600160a01b0383169163c6c3bbe69161012f91879187916004016105dd565b600060405180830381600087803b15801561014957600080fd5b505af115801561015d573d6000803e3d6000fd5b5050505050505050565b61016f610430565b6001600160a01b0316610180610213565b6001600160a01b0316146101c9576040805162461bcd60e51b81526020600482018190526024820152600080516020610664833981519152604482015290519081900360640190fd5b600080546040516001600160a01b03909116907f8be0079c531659141344cd1fd0a4f28419497f9722a3daafe3b4186f6b6457e0908390a3600080546001600160a01b0319169055565b6000546001600160a01b031690565b61022a610430565b6001600160a01b031661023b610213565b6001600160a01b031614610284576040805162461bcd60e51b81526020600482018190526024820152600080516020610664833981519152604482015290519081900360640190fd5b6001600160a01b03166000908152600160208190526040909120805460ff19169091179055565b6102b3610430565b6001600160a01b03166102c4610213565b6001600160a01b03161461030d576040805162461bcd60e51b81526020600482018190526024820152600080516020610664833981519152604482015290519081900360640190fd5b6001600160a01b03166000908152600160205260409020805460ff19169055565b610336610430565b6001600160a01b0316610347610213565b6001600160a01b031614610390576040805162461bcd60e51b81526020600482018190526024820152600080516020610664833981519152604482015290519081900360640190fd5b6001600160a01b0381166103d55760405162461bcd60e51b815260040180806020018281038252602681526020018061063e6026913960400191505060405180910390fd5b600080546040516001600160a01b03808516939216917f8be0079c531659141344cd1fd0a4f28419497f9722a3daafe3b4186f6b6457e091a3600080546001600160a01b0319166001600160a01b0392909216919091179055565b3390565b803561043f81610625565b919050565b600060208284031215610455578081fd5b813561046081610625565b9392505050565b600060208284031215610478578081fd5b815161046081610625565b600080600060608486031215610497578182fd5b833567ffffffffffffffff808211156104ae578384fd5b818601915060408083890312156104c3578485fd5b805181810181811084821117156104d657fe5b8083528435848111156104e7578788fd5b8501808b038413156104f7578788fd5b60808301828110868211171561050957fe5b845280356001600160e01b031981168114610522578889fd5b82526020818101358681111561053657898afd5b8083019250508b601f83011261054a578889fd5b81358681111561055657fe5b610568601f8201601f19168301610601565b96508087528c8282850101111561057d57898afd5b8082840183890137898282890101525085606085015282845280870135818501528399506105ac818c01610434565b9850505050506105bd818801610434565b93505050509250925092565b6001600160a01b0391909116815260200190565b6001600160a01b039384168152919092166020820152604081019190915260600190565b60405181810167ffffffffffffffff8111828210171561061d57fe5b604052919050565b6001600160a01b038116811461063a57600080fd5b5056fe4f776e61626c653a206e6577206f776e657220697320746865207a65726f20616464726573734f776e61626c653a2063616c6c6572206973206e6f7420746865206f776e6572a2646970667358221220e35264e5112c8a9354f35634f9ffc761c7dbe18ba544437458c34ed1f030511a64736f6c63430007060033",
  "immutableReferences": {},
  "source": "// SPDX-License-Identifier: MIT\n\npragma solidity >=0.6.2 <0.8.0;\npragma abicoder v2;\n\nimport \"@rarible/exchange-interfaces/contracts/ITransferProxy.sol\";\nimport \"../interfaces/IERC721GenMint.sol\";\nimport \"../roles/OperatorRole.sol\";\n\n//transfer proxy that is going to mint tokens (operator proxy)\ncontract ERC721GenMintTransferProxy is ITransferProxy, OperatorRole {\n    function transfer(LibAsset.Asset memory asset, address from, address to) external override {\n        address token = abi.decode(asset.assetType.data, (address));\n        IERC721GenMint(token).mint(from, to, asset.value);\n    }\n}\n",
  "sourcePath": "/home/quadro/Projects/rarible/generative-art/contracts/proxy/ERC721GenMintTransferProxy.sol",
  "compiler": {
    "name": "solc",
    "version": "0.7.6+commit.7338295f.Emscripten.clang"
  },
  "schemaVersion": "3.4.3",
  "updatedAt": "2021-09-29T19:43:58.317Z",
  "devdoc": {
    "kind": "dev",
    "methods": {
      "owner()": {
        "details": "Returns the address of the current owner."
      },
      "renounceOwnership()": {
        "details": "Leaves the contract without owner. It will not be possible to call `onlyOwner` functions anymore. Can only be called by the current owner. NOTE: Renouncing ownership will leave the contract without an owner, thereby removing any functionality that is only available to the owner."
      },
      "transferOwnership(address)": {
        "details": "Transfers ownership of the contract to a new account (`newOwner`). Can only be called by the current owner."
      }
    },
    "version": 1
  },
  "userdoc": {
    "kind": "user",
    "methods": {},
    "version": 1
  }
}