{
  "contractName": "OperatorRole",
  "abi": [
    {
      "anonymous": false,
      "inputs": [
        {
          "indexed": true,
          "internalType": "address",
          "name": "previousOwner",
          "type": "address"
        },
        {
          "indexed": true,
          "internalType": "address",
          "name": "newOwner",
          "type": "address"
        }
      ],
      "name": "OwnershipTransferred",
      "type": "event"
    },
    {
      "inputs": [],
      "name": "owner",
      "outputs": [
        {
          "internalType": "address",
          "name": "",
          "type": "address"
        }
      ],
      "stateMutability": "view",
      "type": "function"
    },
    {
      "inputs": [],
      "name": "renounceOwnership",
      "outputs": [],
      "stateMutability": "nonpayable",
      "type": "function"
    },
    {
      "inputs": [
        {
          "internalType": "address",
          "name": "newOwner",
          "type": "address"
        }
      ],
      "name": "transferOwnership",
      "outputs": [],
      "stateMutability": "nonpayable",
      "type": "function"
    },
    {
      "inputs": [
        {
          "internalType": "address",
          "name": "operator",
          "type": "address"
        }
      ],
      "name": "addOperator",
      "outputs": [],
      "stateMutability": "nonpayable",
      "type": "function"
    },
    {
      "inputs": [
        {
          "internalType": "address",
          "name": "operator",
          "type": "address"
        }
      ],
      "name": "removeOperator",
      "outputs": [],
      "stateMutability": "nonpayable",
      "type": "function"
    }
  ],
  "bytecode": "0x608060405234801561001057600080fd5b50600061001b61006a565b600080546001600160a01b0319166001600160a01b0383169081178255604051929350917f8be0079c531659141344cd1fd0a4f28419497f9722a3daafe3b4186f6b6457e0908290a35061006e565b3390565b6104458061007d6000396000f3fe608060405234801561001057600080fd5b50600436106100575760003560e01c8063715018a61461005c5780638da5cb5b146100665780639870d7fe1461008a578063ac8a584a146100b0578063f2fde38b146100d6575b600080fd5b6100646100fc565b005b61006e6101a8565b604080516001600160a01b039092168252519081900360200190f35b610064600480360360208110156100a057600080fd5b50356001600160a01b03166101b7565b610064600480360360208110156100c657600080fd5b50356001600160a01b0316610240565b610064600480360360208110156100ec57600080fd5b50356001600160a01b03166102c3565b6101046103c5565b6001600160a01b03166101156101a8565b6001600160a01b03161461015e576040805162461bcd60e51b815260206004820181905260248201526000805160206103f0833981519152604482015290519081900360640190fd5b600080546040516001600160a01b03909116907f8be0079c531659141344cd1fd0a4f28419497f9722a3daafe3b4186f6b6457e0908390a3600080546001600160a01b0319169055565b6000546001600160a01b031690565b6101bf6103c5565b6001600160a01b03166101d06101a8565b6001600160a01b031614610219576040805162461bcd60e51b815260206004820181905260248201526000805160206103f0833981519152604482015290519081900360640190fd5b6001600160a01b03166000908152600160208190526040909120805460ff19169091179055565b6102486103c5565b6001600160a01b03166102596101a8565b6001600160a01b0316146102a2576040805162461bcd60e51b815260206004820181905260248201526000805160206103f0833981519152604482015290519081900360640190fd5b6001600160a01b03166000908152600160205260409020805460ff19169055565b6102cb6103c5565b6001600160a01b03166102dc6101a8565b6001600160a01b031614610325576040805162461bcd60e51b815260206004820181905260248201526000805160206103f0833981519152604482015290519081900360640190fd5b6001600160a01b03811661036a5760405162461bcd60e51b81526004018080602001828103825260268152602001806103ca6026913960400191505060405180910390fd5b600080546040516001600160a01b03808516939216917f8be0079c531659141344cd1fd0a4f28419497f9722a3daafe3b4186f6b6457e091a3600080546001600160a01b0319166001600160a01b0392909216919091179055565b339056fe4f776e61626c653a206e6577206f776e657220697320746865207a65726f20616464726573734f776e61626c653a2063616c6c6572206973206e6f7420746865206f776e6572a2646970667358221220442a68073d7803150896b047d7863fa3f80c5dac5bbc024e65b08356bd8abc7f64736f6c63430007060033",
  "immutableReferences": {},
  "source": "// SPDX-License-Identifier: MIT\n\npragma solidity >=0.6.9 <0.8.0;\n\nimport \"@openzeppelin/contracts/access/Ownable.sol\";\n\n//operator role\ncontract OperatorRole is Ownable {\n    mapping (address => bool) operators;\n\n    function addOperator(address operator) external onlyOwner {\n        operators[operator] = true;\n    }\n\n    function removeOperator(address operator) external onlyOwner {\n        operators[operator] = false;\n    }\n\n    modifier onlyOperator() {\n        require(operators[_msgSender()], \"OperatorRole: caller is not the operator\");\n        _;\n    }\n}\n",
  "sourcePath": "/home/quadro/Projects/rarible/generative-art/contracts/roles/OperatorRole.sol",
  "compiler": {
    "name": "solc",
    "version": "0.7.6+commit.7338295f.Emscripten.clang"
  },
  "schemaVersion": "3.4.3",
  "updatedAt": "2021-09-29T19:43:58.320Z",
  "devdoc": {
    "kind": "dev",
    "methods": {
      "owner()": {
        "details": "Returns the address of the current owner."
      },
      "renounceOwnership()": {
        "details": "Leaves the contract without owner. It will not be possible to call `onlyOwner` functions anymore. Can only be called by the current owner. NOTE: Renouncing ownership will leave the contract without an owner, thereby removing any functionality that is only available to the owner."
      },
      "transferOwnership(address)": {
        "details": "Transfers ownership of the contract to a new account (`newOwner`). Can only be called by the current owner."
      }
    },
    "version": 1
  },
  "userdoc": {
    "kind": "user",
    "methods": {},
    "version": 1
  }
}