{
  "contractName": "RoyaltiesV2GenImpl",
  "abi": [
    {
      "anonymous": false,
      "inputs": [
        {
          "indexed": false,
          "internalType": "uint256",
          "name": "tokenId",
          "type": "uint256"
        },
        {
          "components": [
            {
              "internalType": "address payable",
              "name": "account",
              "type": "address"
            },
            {
              "internalType": "uint96",
              "name": "value",
              "type": "uint96"
            }
          ],
          "indexed": false,
          "internalType": "struct LibPart.Part[]",
          "name": "royalties",
          "type": "tuple[]"
        }
      ],
      "name": "RoyaltiesSet",
      "type": "event"
    },
    {
      "inputs": [
        {
          "internalType": "bytes4",
          "name": "interfaceId",
          "type": "bytes4"
        }
      ],
      "name": "supportsInterface",
      "outputs": [
        {
          "internalType": "bool",
          "name": "",
          "type": "bool"
        }
      ],
      "stateMutability": "view",
      "type": "function"
    },
    {
      "inputs": [
        {
          "internalType": "uint256",
          "name": "",
          "type": "uint256"
        }
      ],
      "name": "getRaribleV2Royalties",
      "outputs": [
        {
          "components": [
            {
              "internalType": "address payable",
              "name": "account",
              "type": "address"
            },
            {
              "internalType": "uint96",
              "name": "value",
              "type": "uint96"
            }
          ],
          "internalType": "struct LibPart.Part[]",
          "name": "",
          "type": "tuple[]"
        }
      ],
      "stateMutability": "view",
      "type": "function"
    }
  ],
  "bytecode": "0x608060405234801561001057600080fd5b50610214806100206000396000f3fe608060405234801561001057600080fd5b50600436106100365760003560e01c806301ffc9a71461003b578063cad96cca14610064575b600080fd5b61004e610049366004610126565b610084565b60405161005b91906101d3565b60405180910390f35b610077610072366004610155565b6100a3565b60405161005b919061016d565b6001600160e01b03191660009081526001602052604090205460ff1690565b60606033805480602002602001604051908101604052809291908181526020016000905b8282101561011b57600084815260209081902060408051808201909152908401546001600160a01b0381168252600160a01b90046bffffffffffffffffffffffff16818301528252600190920191016100c7565b505050509050919050565b600060208284031215610137578081fd5b81356001600160e01b03198116811461014e578182fd5b9392505050565b600060208284031215610166578081fd5b5035919050565b602080825282518282018190526000919060409081850190868401855b828110156101c657815180516001600160a01b031685528601516bffffffffffffffffffffffff1686850152928401929085019060010161018a565b5091979650505050505050565b90151581526020019056fea2646970667358221220ac68035d1a0c0319d1aafcd82ad4f7ac9a815bff91276b5d06485e073a64fa4964736f6c63430007060033",
  "immutableReferences": {},
  "source": "// SPDX-License-Identifier: MIT\n\npragma solidity ^0.7.0;\npragma abicoder v2;\n\nimport \"@rarible/royalties-upgradeable/contracts/RoyaltiesV2Upgradeable.sol\";\n\n//royalties for gen-art, one royalty value for the whole collection\ncontract RoyaltiesV2GenImpl is RoyaltiesV2Upgradeable {\n    LibPart.Part[] collectionRoyalties;\n\n    function __RoyaltiesV2GenImpl_init_unchained(LibPart.Part[] memory _royalties) internal initializer {\n        _saveRoyalties(_royalties);\n    }\n\n    function getRaribleV2Royalties(uint256) override external view returns (LibPart.Part[] memory) {\n        return collectionRoyalties;\n    }\n\n    function _saveRoyalties(LibPart.Part[] memory _royalties) internal {\n        for (uint i = 0; i < _royalties.length; i++) {\n            require(_royalties[i].account != address(0x0), \"Recipient should be present\");\n            require(_royalties[i].value != 0, \"Royalty value should be positive\");\n            collectionRoyalties.push(_royalties[i]);\n        }\n        _onRoyaltiesSet(_royalties);\n    }\n\n    function _onRoyaltiesSet(LibPart.Part[] memory _royalties) internal {\n        emit RoyaltiesSet(0, _royalties);\n    }\n\n    uint256[50] private __gap;\n}",
  "sourcePath": "/home/quadro/Projects/rarible/generative-art/contracts/royalties/RoyaltiesV2GenImpl.sol",
  "compiler": {
    "name": "solc",
    "version": "0.7.6+commit.7338295f.Emscripten.clang"
  },
  "schemaVersion": "3.4.3",
  "updatedAt": "2021-09-29T11:34:20.266Z",
  "devdoc": {
    "kind": "dev",
    "methods": {
      "supportsInterface(bytes4)": {
        "details": "See {IERC165-supportsInterface}. Time complexity O(1), guaranteed to always use less than 30 000 gas."
      }
    },
    "version": 1
  },
  "userdoc": {
    "kind": "user",
    "methods": {},
    "version": 1
  }
}