{
  "contractName": "TraitsManager",
  "abi": [
    {
      "anonymous": false,
      "inputs": [
        {
          "components": [
            {
              "internalType": "string",
              "name": "name",
              "type": "string"
            },
            {
              "internalType": "string[]",
              "name": "keys",
              "type": "string[]"
            },
            {
              "internalType": "uint256[]",
              "name": "rarities",
              "type": "uint256[]"
            }
          ],
          "indexed": false,
          "internalType": "struct Traits.Trait[]",
          "name": "traits",
          "type": "tuple[]"
        }
      ],
      "name": "TraitsSet",
      "type": "event"
    },
    {
      "inputs": [],
      "name": "getPossibleTraits",
      "outputs": [
        {
          "components": [
            {
              "internalType": "string",
              "name": "name",
              "type": "string"
            },
            {
              "internalType": "string[]",
              "name": "keys",
              "type": "string[]"
            },
            {
              "internalType": "uint256[]",
              "name": "rarities",
              "type": "uint256[]"
            }
          ],
          "internalType": "struct Traits.Trait[]",
          "name": "",
          "type": "tuple[]"
        }
      ],
      "stateMutability": "view",
      "type": "function"
    }
  ],
  "bytecode": "0x608060405234801561001057600080fd5b50610404806100206000396000f3fe608060405234801561001057600080fd5b506004361061002b5760003560e01c8063d94dea8914610030575b600080fd5b61003861004e565b60405161004591906102f1565b60405180910390f35b60606001805480602002602001604051908101604052809291908181526020016000905b828210156102635760008481526020908190206040805160038602909201805460026001821615610100026000190190911604601f810185900490940283016080908101909252606083018481529293909284929091849184018282801561011b5780601f106100f05761010080835404028352916020019161011b565b820191906000526020600020905b8154815290600101906020018083116100fe57829003601f168201915b5050505050815260200160018201805480602002602001604051908101604052809291908181526020016000905b828210156101f45760008481526020908190208301805460408051601f60026000196101006001871615020190941693909304928301859004850281018501909152818152928301828280156101e05780601f106101b5576101008083540402835291602001916101e0565b820191906000526020600020905b8154815290600101906020018083116101c357829003601f168201915b505050505081526020019060010190610149565b5050505081526020016002820180548060200260200160405190810160405280929190818152602001828054801561024b57602002820191906000526020600020905b815481526020019060010190808311610237575b50505050508152505081526020019060010190610072565b50505050905090565b6000815180845260208085019450808401835b8381101561029b5781518752958201959082019060010161027f565b509495945050505050565b60008151808452815b818110156102cb576020818501810151868301820152016102af565b818111156102dc5782602083870101525b50601f01601f19169290920160200192915050565b60208082528251828201819052600091906040908185019080840286018301878501865b838110156103c057603f1989840301855281516060815181865261033b828701826102a6565b838b0151878203888d015280518083529193508b0191508a830190808c0284018c018d5b8281101561038d57601f1986830301845261037b8286516102a6565b948e0194938e0193915060010161035f565b50948b0151888603898d0152946103a4818761026c565b9a8d019a98505050948a01945050506001919091019050610315565b50909897505050505050505056fea2646970667358221220fb738ea07a0d8b9e5ffdc6ab4a64b87006cbad850cb3c5526a1eb96d742782c964736f6c63430007060033",
  "immutableReferences": {},
  "source": "// SPDX-License-Identifier: MIT\n\npragma solidity ^0.7.0;\npragma abicoder v2;\n\nimport \"@openzeppelin/contracts-upgradeable/proxy/Initializable.sol\";\nimport \"./Traits.sol\";\n\ncontract TraitsManager is Traits, Initializable {\n\n    event TraitsSet(Trait[] traits);\n\n    Trait[] traits;\n\n    function __TraitsManager_init_unchained(Trait[] memory _traits) internal initializer {\n        for (uint i = 0; i < _traits.length; i++) {\n            Trait memory _trait = _traits[i];\n            traits.push(_trait);\n\n            uint total = 0;\n            require(_trait.keys.length == _trait.rarities.length, \"keys and rarities length not equal\");\n            for (uint j = 0; j < _trait.rarities.length; j++) {\n                total += _trait.rarities[j];\n            }\n            require(total == 10000, \"sum or rarities not equal 10000\");\n        }\n        emit TraitsSet(_traits);\n    }\n\n    function getTraitValue(Trait memory trait, uint rnd) internal pure returns (uint) {\n        uint total = 0;\n        for (uint i = 0; i < trait.rarities.length; i++) {\n            total += trait.rarities[i];\n            if (rnd < total) {\n                return i;\n            }\n        }\n        revert(\"never\");\n    }\n\n    function random(uint seed, uint supply, address to) internal view returns (uint) {\n        return uint(keccak256(abi.encodePacked(seed, block.timestamp, block.number, block.difficulty, supply, to)));\n    }\n\n    function getPossibleTraits() external view returns (Trait[] memory) {\n        return traits;\n    }\n\n    uint256[50] private __gap;\n}\n",
  "sourcePath": "/home/quadro/Projects/rarible/generative-art/contracts/traits/TraitsManager.sol",
  "compiler": {
    "name": "solc",
    "version": "0.7.6+commit.7338295f.Emscripten.clang"
  },
  "schemaVersion": "3.4.3",
  "updatedAt": "2021-09-21T14:11:52.438Z",
  "devdoc": {
    "kind": "dev",
    "methods": {},
    "version": 1
  },
  "userdoc": {
    "kind": "user",
    "methods": {},
    "version": 1
  }
}