{
  "contractName": "TraitsManager",
  "abi": [
    {
      "anonymous": false,
      "inputs": [
        {
          "components": [
            {
              "internalType": "uint256[]",
              "name": "rarities",
              "type": "uint256[]"
            }
          ],
          "indexed": false,
          "internalType": "struct Traits.Trait[]",
          "name": "traits",
          "type": "tuple[]"
        }
      ],
      "name": "TraitsSet",
      "type": "event"
    },
    {
      "inputs": [],
      "name": "getPossibleTraits",
      "outputs": [
        {
          "components": [
            {
              "internalType": "uint256[]",
              "name": "rarities",
              "type": "uint256[]"
            }
          ],
          "internalType": "struct Traits.Trait[]",
          "name": "",
          "type": "tuple[]"
        }
      ],
      "stateMutability": "view",
      "type": "function"
    }
  ],
  "bytecode": "0x608060405234801561001057600080fd5b506101be806100206000396000f3fe608060405234801561001057600080fd5b506004361061002b5760003560e01c8063d94dea8914610030575b600080fd5b61003861004e565b60405161004591906100f7565b60405180910390f35b60606001805480602002602001604051908101604052809291908181526020016000905b828210156100ee576000848152602090819020604080519185018054808502840183018352938301848152929390928492909184918401828280156100d657602002820191906000526020600020905b8154815260200190600101908083116100c2575b50505050508152505081526020019060010190610072565b50505050905090565b60208082528251828201819052600091906040908185019080840286018301878501865b8381101561017a57888303603f190185528151518784528051888501819052908801908990888601905b808310156101655783518252928a019260019290920191908a0190610145565b5096890196945050509086019060010161011b565b50909897505050505050505056fea264697066735822122089fc0aad7ec7615e2d652c9dfa2f7fbb78bf09db1c51a4ccd2cac45e5764579f64736f6c63430007060033",
  "immutableReferences": {},
  "source": "// SPDX-License-Identifier: MIT\n\npragma solidity ^0.7.0;\npragma abicoder v2;\n\nimport \"@openzeppelin/contracts-upgradeable/proxy/Initializable.sol\";\nimport \"./Traits.sol\";\n\ncontract TraitsManager is Traits, Initializable {\n\n    event TraitsSet(Trait[] traits);\n\n    Trait[] traits;\n\n    function __TraitsManager_init_unchained(Trait[] memory _traits) internal initializer {\n        for (uint i = 0; i < _traits.length; i++) {\n            Trait memory _trait = _traits[i];\n            traits.push(_trait);\n\n            uint total = 0;\n            for (uint j = 0; j < _trait.rarities.length; j++) {\n                total += _trait.rarities[j];\n            }\n            require(total == 10000, \"sum or rarities not equal 10000\");\n        }\n        emit TraitsSet(_traits);\n    }\n\n    function getTraitValue(Trait memory trait, uint rnd) internal pure returns (uint) {\n        uint total = 0;\n        for (uint i = 0; i < trait.rarities.length; i++) {\n            total += trait.rarities[i];\n            if (rnd < total) {\n                return i;\n            }\n        }\n        revert(\"never\");\n    }\n\n    function getRandom(uint tokenId, uint i) internal pure returns (uint) {\n        return uint(keccak256(abi.encodePacked(tokenId, i))) % 10000;\n    }\n\n    function random(uint seed, uint supply, address to) internal view returns (uint) {\n        return uint(keccak256(abi.encodePacked(seed, block.timestamp, block.number, block.difficulty, supply, to)));\n    }\n\n    function getPossibleTraits() external view returns (Trait[] memory) {\n        return traits;\n    }\n\n    uint256[50] private __gap;\n}\n",
  "sourcePath": "/home/quadro/Projects/rarible/generative-art/contracts/traits/TraitsManager.sol",
  "compiler": {
    "name": "solc",
    "version": "0.7.6+commit.7338295f.Emscripten.clang"
  },
  "schemaVersion": "3.4.3",
  "updatedAt": "2021-09-29T19:43:58.348Z",
  "devdoc": {
    "kind": "dev",
    "methods": {},
    "version": 1
  },
  "userdoc": {
    "kind": "user",
    "methods": {},
    "version": 1
  }
}